:020000040800F2
:100000000005002001010008671C00085F120008BD
:10001000651C00086D0100084D1F0008000000006D
:100020000000000000000000000000006B1C000841
:100030006F01000800000000691C00086D1C00082A
:100040001B0100081B0100081B0100081B01000820
:100050001B0100081B0100081B0100081B01000810
:100060001B0100081B0100081B0100081B01000800
:100070001B0100081B0100081B0100081B010008F0
:100080001B0100081B0100081B0100081B010008E0
:100090001B0100081B0100081B0100081B010008D0
:1000A0001B0100081B0100081B0100081B010008C0
:1000B0001B0100081B0100081B0100086D1200084D
:1000C000611200081B0100081B0100081B01000849
:1000D0001B010008411F00081B0100081B0100084C
:1000E0001B0100081B0100081B010008DFF80CD0F1
:1000F00000F02AF8004800478D1F00080005002086
:100100000648804706480047FEE7FEE7FEE7FEE7B1
:10011000FEE7FEE7FEE7FEE7FEE7FEE7B51C0008A8
:10012000ED000008D2B201E000F8012B491EFBD21D
:1001300070470022F6E710B513460A4604461946F2
:10014000FFF7F0FF204610BD064C074D06E0E068C3
:1001500040F0010394E8070098471034AC42F6D30E
:10016000FFF7C8FF6420000884200008FEE77047FE
:1001700010B590F821100024022903D004218163D6
:1001800001243DE001680A6822F00E020A6001685D
:100190000A6822F001020A601A4A0168914201D1FC
:1001A000012121E0174A1432914201D110211BE0B4
:1001B000144A2832914201D1891515E0114A3C3286
:1001C000914201D189140FE00E4A5032914202D17E
:1001D0004FF4803108E00B4A6432914202D14FF46F
:1001E000801101E04FF08071064A083A5160012108
:1001F00080F82110002180F82010416B01B1884760
:10020000204610BD0800024090F821007047000011
:1002100070B5044600F008F90546601C02D0044899
:100220000078044400F000F9401BA042FAD370BDEE
:10023000100000202DE9F84FDFF8B891002409F1F3
:10024000040A0AF1040B23460F270BF1040EC9E040
:100250000125A5402A40AA427DD1674ED1F804C0AD
:10026000ACEB0608B44532D014DCBCF1030F3AD035
:1002700009DCBCF1000F2AD0BCF1010F1CD0BCF18D
:10028000020F31D11DE0BCF1110F17D0BCF1120FDC
:100290002AD119E0B8F5881F19D006DCB8F5803FDF
:1002A00015D0B8F5801F1FD111E0B8F5001F0ED092
:1002B000B8F5041F18D10AE0CB6815E0CB681B1D08
:1002C00012E0CB6808330FE0CB680C330CE08B688E
:1002D0002BB1012B4FF0080303D0456104E0042348
:1002E00002E0056100E00023FF2A01D8064601E094
:1002F00000F104064FEA840501D9A5F12005D6F8DE
:10030000008007FA05FC28EA0C0803FA05F548EA1C
:100310000508C6F800804D68ED0062D5374DAE691E
:1003200046F00106AE61AD6924F0030605F0010553
:100330000095334D06EB050CDCF80850A607360F88
:1003400007FA06F825EA0805DFF8B880404503D12A
:100350004FF0000817E044E0DFF8AC80404502D1E0
:100360004FF001080FE0DFF8A480404502D14FF0C4
:10037000020808E0DFF89880404502D14FF00308FA
:1003800001E04FF0040808FA06F848EA0508CCF83E
:1003900008804D68D9F80060ED034D4601D516433D
:1003A00000E096432E604D68DAF80060AD035546D4
:1003B00001D5164300E096432E604D68DBF80060DF
:1003C000ED025D4601D5164300E096432E604D6870
:1003D000DEF80060AD02754601D5164300E0964395
:1003E0002E60641C0D682A46E5407FF431AFBDE8FD
:1003F000F88F0000000401400000111000100240BE
:100400000000014000080140000C014000100140C4
:10041000001401408068084000D0012070470AB1F4
:10042000016170470904FBE70148806870470000DC
:1004300010000020704770472DE9F0410446006825
:10044000416946680025CF43F9050BD4F143C9053E
:1004500008D46FF48071012541612068016841F47E
:1004600000410160B80508D4F043C00505D42168F7
:100470006FF4007045F002054861780527D4F04319
:10048000C00524D494F83E30628D94F83D00216B71
:10049000202B08D13AB9212810D029280ED028289D
:1004A00001D121290AD021686FF48060486194F855
:1004B0003E0045F00405102804D008E0204601F075
:1004C00025FA04E02068016841F4007101603805F4
:1004D00008D4F043C00505D421686FF4006045F0EE
:1004E00008054861002D07D0206C28432064204671
:1004F000BDE8F04100F000BFBDE8F0812DE9F0411A
:10050000026800245168C56A90F83E3090F83D605A
:10051000102B1CD0402B1AD0036C002B7ED05369BB
:100520004FF02805DB439F0779D4CF43BF0576D42E
:10053000016C01B1946990F83D3000219D430B4658
:100540007FD0C91E516180F83C30BDE8F0819469CC
:1005500053694FF42A07DB435FEAC37C4FF02A4616
:1005600004D0BD42F1D0B542EFD010E0CD43AD058F
:100570000DD4C16AB94201D1012103E0C16AB1427F
:1005800001D10821C162BDE8F04101F077B91D0732
:1005900016D4CD43AD0513D4416CC9B21161416B82
:1005A00011B9826B002AD0D0896A19B9816B896A26
:1005B0000029CAD00068416841F400614160C4E785
:1005C0009D0706D4CD43AD0503D4BDE8F04101F04D
:1005D000A9B8E443526864074FEA025215D4002ACE
:1005E000B3DB1A0608D4CA43520505D45A0705D509
:1005F000BDE8F04101F014B85A07A6D4C9438905F3
:10060000A3D4BDE8F04100F0C9BF002A9DDB5A0623
:100610000CD4CA43520509D45A0702E00FE023E084
:100620000FE005D5BDE8F04100F06FBF5A078CD44C
:10063000C943890589D4BDE8F04100F0FDBE946945
:100640006DE7556825F480655560E243540700D591
:100650000121120601D5828900E0028B80F83C302E
:1006600092B2FFF7E8FE70E7DC0606D4CC43A4059F
:1006700003D4BDE8F04101F08BB9212E27D0292EFB
:1006800025D05C0655D4CC43640552D45B0752D5C3
:1006900090F83D10438D002B91D01269436A1A7077
:1006A000426A521C4262428D521E4285428D002A8D
:1006B00085D12A29D7D101684A6822F480624A602C
:1006C0002221016380F83D5000F044F93DE71C060B
:1006D00023D4CC43640520D45B0720D590F83D108B
:1006E000438D002BBFD0436A1B781361426A521CB2
:1006F0004262428D521E4285428D002AB3D1292981
:10070000B1D101684A6822F480624A602121016304
:1007100080F83D5000F01FF917E75B07A3D4C943E9
:100720008905A0D4418D00299DD0416A09781161C5
:100730000AE05B0797D4C943890594D4418D002909
:1007400091D01169426A1170416A491C4162418D20
:10075000491E4185F9E6704770B504001BD094F836
:100760003D00002520B984F83C50204600F0B4F844
:10077000242084F83D002068016821F00101016017
:1007800000F018FA4D4A6168914201D84C4900E0E6
:100790004C49884201D2012070BD4B492368B0FB0F
:1007A000F1F15E6826F03F060E435E606368934297
:1007B00006D94FF4967359434FF47A73B1FBF3F1B2
:1007C0002368491C1E6A26F03F063143196261689E
:1007D000914210D84900401EB0FBF1F2521CC2F306
:1007E0000B02042A01D2042022E0B0FBF1F0401CED
:1007F000C0F30B001CE0A368F3B301EBC10202EBF2
:100800000116421EB2FBF6F2521C42F4804212055F
:1008100049D093B301EBC10202EB0111401EB0FBC2
:10082000F1F0401CC0F30B0040F4804040F4004065
:100830002168CA694CF6FF739A431043C861D4E932
:100840000701084321680A6822F0C00210430860CB
:10085000D4E9030101432068826848F2FF339A43D8
:1008600011438160D4E9050108432168CA6822F078
:10087000FF021043C86001E00EE016E02068016846
:1008800041F0010101602564202084F83D002563CA
:1008900084F83E50002070BD01EB4106421EB2FBC1
:1008A000F6F2521CB3E70120C2E701EB4101401E02
:1008B000B0FBF1F0401CC0F30B00B7E7A0860100CD
:1008C00080841E0000093D0040420F0070477047C1
:1008D000704770477047000010B586B00021009146
:1008E0000191029103910068174988422AD1174C5F
:1008F000A06940F00800A061A069694600F0080006
:100900000490C02000901220019003200390104812
:10091000FFF790FCE06940F40010E061E06900221C
:1009200000F40010049011461F2000F07BF81F20F7
:1009300000F06AF800221146202000F073F8202011
:1009400000F062F806B010BD0054004000100240F4
:10095000000C0140704770470248816802781144DA
:100960008160704710000020074810B5016841F011
:1009700010010160032000F075F8002000F006F877
:1009800000F024F8002010BD0020024070B50D4D8D
:1009900004464FF47A712878B1FBF0F00A490968EF
:1009A000B1FBF0F000F0ECFA48B9102C07D20022AD
:1009B0002146501E00F036F800206C6070BD01200A
:1009C00070BD0000100000201C0000200C4808B57D
:1009D000816941F001018161816901F001010091AA
:1009E000C16941F08051C161C06900F08050009040
:1009F0000448416821F0E06141F00071416008BDA8
:100A00000010024000000140002809DB00F01F0236
:100A1000012191404009800000F1E020C0F8001160
:100A200070470000F0B40E4B1B680C46C3F3022362
:100A3000C3F10705042D00D90425191D072901D28A
:100A4000002300E0DB1E012606FA05F1491E2140C5
:100A500099409E40761E16403143F0BC01F077BAB3
:100A60000CED00E0064900F0070208684FF6FF03AE
:100A7000184040EA0220034A104308607047000013
:100A80000CED00E00000FA052DE9F0470F460500E7
:100A900061D0434E306800F00700B84209D2306898
:100AA00020F0070038433060306800F00700B8429B
:100AB00051D128683B4C810712D5400703D56068A7
:100AC00040F4E06060602878000703D5606840F477
:100AD000605060606068A96820F0F00008436060C2
:100AE0002878C00728D06868012810D0216802281B
:100AF00010D0890700292EDA616821F00301014333
:100B00006160FFF791FC804641F288390DE0216871
:100B10008903EFE78901EDE7FFF786FCA0EB080109
:100B2000494502D90320BDE8F0876068696800F094
:100B30000C00B0EB810FEFD1306800F00700B84235
:100B40000BD9306820F0070038433060306800F07F
:100B50000700B84201D00120E5E72878400705D515
:100B60006068E96820F4E060084360602878000766
:100B700006D56068296920F4605040EAC1006060D1
:100B800000F038F86168084AC1F30311515CC840AD
:100B90000649086006480068FFF7F8FE0020C2E733
:100BA00000200240001002404C2000081C000020E1
:100BB000140000200448054900684968044AC1F34C
:100BC0000221515CC84070471C0000200010024008
:100BD0005C2000080448054900684968044AC1F3DC
:100BE000C221515CC84070471C0000200010024028
:100BF0005C20000812A185B00FC98DE80F0014A079
:100C0000144A006804905168134801F00C03042B47
:100C100010D0082B0ED1C1F38343C9031DF8030084
:100C20000AD5516804AAC1F34041515C0A4A5043B5
:100C3000B0FBF1F005B0704708494843FAE70000FF
:100C400002030405060708090A0B0C0D0E0F10100D
:100C5000010200000010024000127A0000093D006D
:100C60002DE9F84F040070D02078C04DC00749D05E
:100C70006868C0F38100012807D06868C0F381006C
:100C8000022809D16868C00306D52868800339D5D1
:100C900060680028E7D035E06068B0F5803F0BD091
:100CA00010B1B0F5A02F11D0286820F48030286052
:100CB000286820F4802002E0286840F48030286012
:100CC000606890B1FFF7B0FB06460AE0286840F480
:100CD00080202860F0E700BFFFF7A6FB801B642898
:100CE00073D828688003F7D50CE0FFF79DFB064614
:100CF00005E000BFFFF798FB801B6428F0D8286848
:100D00008003F7D420789A4E80074FF001094FF006
:100D1000000839D5686810F00C0F07D06868C0F378
:100D20008100022809D16868C00306D428688007BA
:100D300014D52069012808D110E02069B0B1C6F8A7
:100D40000090FFF771FB074605E00AE1FFF76CFB37
:100D5000C01B0228C4D828688007F7D528686169B5
:100D600020F0F80040EAC10028600DE0C6F80080DD
:100D7000FFF75AFB074604E0FFF756FBC01B0228AB
:100D800023D828688007F7D4207800072CD5794825
:100D9000A169D9B1C0F80090FFF746FB074604E00F
:100DA000FFF742FBC01B02280FD8686A8007F7D5FF
:100DB00071484FF4FA510068B0FBF1F0009000BFA9
:100DC0000098411E0091FAD20EE080E0C0F8008049
:100DD000FFF72AFB074604E0FFF726FBC01B0228AB
:100DE00075D8686A8007F7D42078400760D5E8692D
:100DF0000027C00008D4E86940F08050E861E86945
:100E0000012700F0805000905C480168C90513D4A8
:100E10000168834641F480710160FFF705FB82465B
:100E200006E000BFFFF700FBA0EB0A0064284ED8E5
:100E3000DBF80000C005F5D5E06801280AD008B14C
:100E4000052813D0286A20F001002862286A20F0C3
:100E5000040002E0286A40F001002862E06841F2E4
:100E6000883B98B1FFF7E0FA82460BE0286A40F031
:100E700004002862EEE700BFFFF7D6FAA0EB0A01F4
:100E800059455AD8286A8007F6D50CE0FFF7CCFA06
:100E9000824605E0FFF7C8FAA0EB0A0159454CD895
:100EA000286A8007F6D41FB1E86920F08050E86115
:100EB000E06988B36968C1F38101022944D002283E
:100EC000C6F8608004D0FFF7AFFA044638E034E09B
:100ED000FFF7AAFA074604E0FFF7A6FAC01B0228AC
:100EE0002BD828688001F7D4206AB0F5803F05D15F
:100EF0006868A16820F4003008436860D4E90801FC
:100F00000843696821F4741108436860C6F860906A
:100F1000FFF78AFA044606E025E000BFFFF784FAEF
:100F2000001B022809D828688001F7D51BE000BF04
:100F3000FFF77AFA001B022802D90320BDE8F88FD8
:100F400028688001F4D40EE00128F7D06868226A8E
:100F500000F48031914204D1616A00F4701088423B
:100F600001D00120EAE70020E8E70000001002407D
:100F700000004242800442421C00002000700040F9
:100F800010B5401EB0F1807F01D3012010BD4FF09D
:100F9000E02460610F21601700F0D9FF0020A061FC
:100FA00007202061002010BD7047000070B5026866
:100FB00004461068D168536910F00F0F50D003F049
:100FC000010501F4907635435DD0C20705D0CA050E
:100FD00003D5E26B42F00102E263420705D5DA076E
:100FE00003D0E26B42F00202E263820705D5DA0722
:100FF00003D0E26B42F00402E263020705D5DA0790
:1010000003D0E26B42F00802E263E26B002A33D0C5
:10101000800604D5880602D5204600F085FE2068AB
:101020004069E16BC0F38010090700D428B3204663
:1010300000F06CFE2068416949061AD5416921F02B
:1010400040014161606BA0B11B494163606BFFF7D8
:101050008FF8002810D0606B416BBDE870400847E6
:10106000830610D58B060ED52046BDE8704000F0F3
:101070005BBE2046FFF798FF70BD2046FFF794FF48
:101080000020E06370BD030606D50B0604D520469C
:10109000BDE8704000F0F0BE4006F3D54806F1D53B
:1010A000D168204621F04001D160202184F8391018
:1010B00000F0D4F870BD0000FD1C000870B50400FD
:1010C00004D094F83900002510B106E0012070BD6D
:1010D00084F83850204600F023F8242084F83900A2
:1010E0002068C16821F40051C160204600F068FE0C
:1010F0002068016921F4904101612068416921F073
:101100002A0141612068C16841F40051C160E56372
:10111000202084F8390084F83A00002070BD0000D7
:1011200030B585B0002400940194029403940068C3
:10113000184988422CD11848816941F48041816165
:10114000816901F480410491816941F00401816168
:101150008069124D00F0040004904FF4007000907C
:10116000022001900320039069462846FFF762F8A9
:101170002815CDE90004694628460294FFF75AF87D
:10118000002211462520FFF74DFC2520FFF73CFCEF
:1011900005B030BD00380140001002400008014099
:1011A00070472DE9F843044690F839001F4616466B
:1011B0000D46202850D1A5B19EB194F838000128E1
:1011C0004AD0012084F838004FF00008C4F83C8071
:1011D000212084F83900FFF727F9A6848146E684A8
:1011E00026E00120BDE8F883E08C401EE084A06882
:1011F0004B46B0F5805F4FF000024FF08001204673
:10120000009703D000F069FEE8B90DE000F065FE3C
:10121000C8B928882168C0F308004860206908B16F
:101220006D1C05E0AD1C03E0216815F8010B48605A
:10123000E08C0028D8D14B46002240212046009760
:1012400000F04BFE08B10320CCE7202084F83900E1
:1012500084F838800020C5E70220C3E77047FEE726
:101260000148FFF7E9B80000200000200148FFF71F
:1012700045B900002000002010B5406A90F83D30CC
:10128000426B00219162826B91620268146824F4BF
:10129000806414604185426B5163826B51630268C4
:1012A000146824F00104146090F83D202024602A82
:1012B0000BD0282232EA03030FD080F83D4080F89B
:1012C0003E1000BFFFF747FA10BD80F83D4080F8A0
:1012D0003E100164FFF7AEF810BD03681C6844F0CF
:1012E00001041C6003681C6844F480641C60016392
:1012F00080F83D20E6E7000070B5044690F83D0018
:1013000094F83E10102906D1222804D121680A68D9
:1013100022F400620A60282131EA00024FF0000541
:101320004FF0200626D021684968090503D46028BB
:1013300001D084F83D60256384F83E502068416800
:10134000090537D5416821F400614160606B384977
:1013500090F82120012A11D04163606BFEF708FF4D
:1013600038B32068016821F00101016084F83D6014
:10137000606B1CE0256384F83D10DFE7A06B4163E0
:10138000A06BFEF7F5FEA0B120684169C94349068C
:1013900005D40069616A0870606A401C6062206858
:1013A000016821F00101016084F83D60A06B416B90
:1013B000884710E094F83D10602923D04169C94363
:1013C000490605D40069616A0870606A401C606261
:1013D0002046FFF7C0F994F83D00216C490710D56D
:1013E00028280ED12068416821F4E061416011484D
:1013F000E062256384F83D6084F83E502046FFF7A4
:1014000065FA70BD84F83D6025644169C9434906A9
:1014100005D40069616A0870606A401C60622068D7
:10142000016821F0010101602046FFF703F8D2E7CF
:10143000791200080000FFFF10B5C26A438D0168F1
:10144000042B06D0438D032B08D0438D022B1DD0D7
:1014500012E04A6822F480624A600CE04B6823F490
:1014600080634B60042A06D0022A04D001680A680F
:1014700022F480620A6001680969426A1170416A57
:10148000491C4162418D491E418510BD012A30D061
:10149000102A2ED0042A30D0022A2ED00A6842F414
:1014A00000720A6001680969426A1170416A491C48
:1014B0004162428D521E4285026812690A70416A79
:1014C000491C4162418D491E418501684A6822F4E8
:1014D00040724A60202180F83D1090F83E200021A3
:1014E000402A80F83E100CD012210163FFF7EFF97B
:1014F00010BD0A6822F48062D3E70A6842F4806271
:10150000CFE70163FFF7E5F910BD10B590F83D1086
:10151000222914D1418D032912D901680969426A2F
:101520001170416A491C4162418D491E4185418DBE
:10153000032904D10068416821F48061416010BD35
:10154000C26A022AFBD0012901D00029F7D1016823
:101550000A6822F480620A6001684A6822F4E06244
:101560004A6001680969426A1170416A491C416216
:10157000418D491E4185202180F83D1090F83E2084
:101580000021402A80F83E1004D012210163FFF7A9
:101590009EF910BD0163FFF79CF910BD10B5C26A3A
:1015A00090F83D1021290BD1418D51B1416A02685B
:1015B00009781161416A491C4162418D491E41858A
:1015C00010BD20230021082A13D0202A11D012F5A3
:1015D000803F0ED00268546824F4E0645460112205
:1015E000026380F83E1080F83D3000BFFFF770F9CD
:1015F00010BD0268546824F4E06454600268146802
:1016000044F400741460016380F83D3090F83E208B
:1016100080F83E10402AE9D1FFF75CF910BD0000C8
:1016200010B590F83D1090F83E30C26A048D64B158
:10163000212903D0402B21D122291FD1418DA1B3D3
:1016400090F83E10402937D046E02129F2D12023DE
:101650000021082A13D0202A11D012F5803F0ED085
:101660000268546824F4E06454601122026380F834
:101670003E1080F83D3000BFFFF72AF910BD026828
:10168000546824F4E06454600268146844F40074FC
:101690001460016380F83D3090F83E2080F83E10E1
:1016A000402AE9D1FFF716F910BDFFE7006841684D
:1016B00021F480614160F7E7016DC1B1016D01293D
:1016C00022D0016D0229EFD190F83D10222923D0BC
:1016D00090F83D102129E7D1416A0268097811612B
:1016E000416A491C4162418D491E4185DCE7C16C5C
:1016F0000129816C02D0C1F3072107E00268C9B259
:101700001161016D891C05E0816CC9B2026811612B
:10171000016D491C0165C7E70068016841F48071EB
:101720000160C1E778B590F83E50C26A046B90F84A
:101730003D6000230168222E73D1066D0EB9402D45
:101740006FD0056D1DB90569B5F5404F1BD0458DAE
:1017500095B3468D484D012E20D0448D022C4DD09E
:101760000C6844F480640C6001684C68240579D5E9
:10177000AA4273D0012A71D0082A6FD0102A6DD0E6
:10178000202A6BD06EE04A698A6900920A6842F4A6
:1017900080720A60016D491C016578BDAA4214D1AE
:1017A0000A6822F480620A6001684A68120504D55A
:1017B0000A6822F4806217E0FFE74A698A690092AA
:1017C0000A6842F400720A6050E0082A10D0202A09
:1017D0000ED0122C0AD0042A03D0022A01D0102ADB
:1017E000E6D10A6842F480620A603BE0012ADFD059
:1017F0000A6822F480620A600168DEE7042A11D0D8
:10180000022A0FD0102A0DD00C6844F400640C603A
:1018100001684C698C6900940C6824F480640C6045
:1018200008E025E00C6844F480640C6001684C69B1
:101830008969009101684C68240517D5AA4207D030
:10184000012A05D0082A03D0102A01D0202A0DD160
:101850004A6842F480524A6008E0FFE74A6842F46E
:1018600080524A6001684A6989690091036578BDC0
:1018700048698869009078BD0000FFFF90F83E102D
:10188000402910D00169B1F5804F19D0016DB1B375
:10189000016D012910D1416C5FF0F10201F440713A
:1018A00042EAD11106E0016D0029416C05D0C9B2B0
:1018B00041F0010100680161704701F0FE01F9E7A4
:1018C00090F83D102129416C07D0C9B241F00101C7
:1018D00002681161416B31B902E001F0FE01F7E7E6
:1018E000826B002AE8D0896A19B9816B896A00295C
:1018F000E2D00068416841F4006141607047FFE751
:10190000416CF02201F44071CAE700002DE9F0417A
:1019100090F83D40C26A002320261C4F01686FF4F6
:101920008065082A01D0202A01D1282C04D0212C3E
:1019300016D04D61BDE8F081C7624A6822F4E062CA
:101940004A6001684D6101680A6822F480620A6099
:10195000036380F83D6080F83E30FEF7B7FFE9E7AB
:10196000C7622122026380F83D6080F83E304A68F9
:1019700022F4E0624A6001684D6101680A6822F45D
:1019800080620A60FEF7E7FFD4E700000000FFFF77
:10199000F8B590F83D6004460068416821F4E061C4
:1019A00041602068002541690091016841F0010112
:1019B00001602068016821F480610160206841684D
:1019C000090520D5474F222E48D02A2E46D0616BDC
:1019D000096849686185618D19B1216C41F0040184
:1019E0002164416821F400614160606BFEF70CFCEA
:1019F000012808D0606B4763606BFEF7B9FB10B13C
:101A0000606B416B8847608D08B320684169C943AA
:101A1000490708D40069616A0870606A401C606206
:101A2000608D401E608520684169C943490608D41D
:101A30000069616A0870606A401C6062608D401EC7
:101A40006085608D18B1206C40F004002064206C2B
:101A500000B32046BDE8F840FFF74EBCA16B096813
:101A600049686185618D19B1216C41F004012164DF
:101A7000416821F400614160A06BFEF7C5FB0128BD
:101A8000C1D0A06B4763A06BFEF772FB0028BAD0F1
:101A9000A06BB6E72A2E06D12563282084F83D00E6
:101AA0002046FEF757FF94F83D10202028290DD03E
:101AB000216B222901D0222E07D1256384F83D0015
:101AC00084F83E502046FEF745FFF8BD0649E16226
:101AD000256384F83D0084F83E502046FEF7F6FE6C
:101AE000F8BD0000791200080000FFFF2DE9F05F4B
:101AF0000446DDE913A0DDE90F65DDE90DC7DDE989
:101B00000A8BDDF848E0DDF83090C4F824E044F8B2
:101B1000286B84E80503183CA4E8081864E80775F6
:101B20001198C4E9010A1598E06000205FF00002F6
:101B300002EB42035D18234403442D5C521C83F8DE
:101B40003850042AF4DB401C0328EFDB208A0122F2
:101B500081B2E06AFEF763FCA08A012281B2206BA9
:101B6000FEF75DFC208B012281B2606BBDE8F05F67
:101B7000FEF755BC2DE9F0410546002085F84400EC
:101B80004FEA000605EB86070022388A81B2F86A20
:101B9000FEF745FC5FF0000435F8240081B205EB48
:101BA0008400C069FEF736FC70B1641C042CF3DBC2
:101BB000388A012281B2F86AFEF731FC761C032EC6
:101BC000E0DB0020BDE8F0813220FEF721FB05EBD1
:101BD000840700BF35F8240081B2F869FEF71AFCCB
:101BE0000028F7D004EB44002844304490F8380033
:101BF00085F84400E6E7000070B586B00024174879
:101C00000094019402940394816941F0040181617C
:101C1000816901F004010491816941F00801816149
:101C200080690F4E00F008000490002270213046B9
:101C3000FEF7F5FB0F2001258DE83100694630469F
:101C4000FEF7F8FA7020CDE900050220CDE9024048
:101C500069463046FEF7EEFA06B070BD001002404D
:101C600000080140FEE7704770477047FEF774BEFA
:101C700010B590B028216846FEF75BFA14210AA837
:101C8000FEF757FA02200090012004901020002453
:101C9000059007946846FEF7E3FF0F20CDE90A049C
:101CA0000C940D9400210AA80E94FEF7EDFE10B0DE
:101CB00010BD00000D48016841F00101016041685C
:101CC0000B4A1140416001680A4A114001600168F5
:101CD00021F480210160416821F4FE0141604FF44C
:101CE0001F0181600449C003086070470010024072
:101CF0000000FFF8FFFFF6FE08ED00E010B5406AB7
:101D00000021C185C184FFF74FF910BD0168CA6881
:101D100022F49072CA6001684A6922F001024A61A5
:101D2000202180F83A10704710B590F83A10222917
:101D300001D0022010BD8168B1F5805F11D001692A
:101D4000002901681FD0496801F07F03816A4A1C9D
:101D500082620B70C18D491E0904090CC18518D01F
:101D60002BE00269816A002A0268526805D0D2B26B
:101D70000A80816A491C8162ECE7C2F308020A808A
:101D8000816A891CF7E74A68816A4B1C83620A7082
:101D9000E0E70168CA6822F02002CA600168CA68E8
:101DA00022F48072CA6001684A6922F001024A6125
:101DB000202180F83A10FFF7F3F9002010BD000051
:101DC0002DE9F041044600680169E26821F44051C0
:101DD000114301612169A0680843616908432168D2
:101DE000CA6841F20C639A430243CA6020684169A1
:101DF000A26921F44071114341611E4920686425A4
:101E00003226884202D1FEF7E5FE01E0FEF7D2FE5F
:101E100000EBC00101EB001160686FF01807800053
:101E2000B1FBF0F2B2FBF5F2B1FBF0F37A4303EB56
:101E30008202B1FBF0F306EB0212B2FBF5F2B3FB48
:101E4000F5F302F0F00202EB0312B1FBF0F3B1FB89
:101E5000F0F0B0FBF5F0784303EB800006EB0010E8
:101E6000B0FBF5F0216800F00F0010448860BDE879
:101E7000F08100000038014090F83910212901D08C
:101E8000022070478168B1F5805F016A0BD04A1C5F
:101E90000262026809785160C18C491E0904090C6C
:101EA000C1840ED017E009880268C1F308015160AF
:101EB00001690029016A02D0491C0162ECE7891C12
:101EC000FBE70168CA6822F08002CA600068C16846
:101ED00041F04001C160002070472DE9F041984673
:101EE00017460E460446069D1DE0681C1BD02DB10A
:101EF000FEF79AFAA0EB0800A84214D92068C1683E
:101F000021F4D071C1602068416921F00101416173
:101F1000202084F8390084F83A00002084F8380042
:101F20000320BDE8F0812068006836EA000004D094
:101F30000020B842D9D00020F3E70120F9E70000E3
:101F40000148FFF733B8000074000020FEE70907DE
:101F5000090E002804DB00F1E02080F8001470472F
:101F600000F00F0000F1E02080F8141D704702E03F
:101F700008C8121F08C1002AFAD170477047002014
:101F800001E001C1121F002AFBD170478CB0FEF79F
:101F9000EBFCFFF76DFEFFF72FFE274825490024D5
:101FA00001602649C0E901144FF48041C0E90341B2
:101FB00044618461C4610462FEF7CEFB1E4820497F
:101FC000543001604FF4E131C0E901140C21C460C8
:101FD000C0E904418461C461FFF770F8194A082020
:101FE000CDE90A200421CDE908210220CDE906200F
:101FF0000121CDE904214020CDE902202021CDE9B5
:1020000000210D48102310499430FFF76FFD0E4C4E
:10201000641E09489430FFF7ADFD20700028F8D009
:102020000949054864230122491E5430FFF7B9F8D5
:10203000EFE700000054004020000020A0860100CF
:1020400000380140000801400100002000000000AD
:102050000000000001020304060708090000000058
:10206000010203048420000800000020200000007A
:102070006E1F0008A420000820000020E0040000DB
:102080007E1F0008003132333435363738392A3074
:10209000230000000100000010000000000000000C
:0420A0000024F40024
:04000005080000ED02
:00000001FF
