:020000040800F2
:10000000980800200101000839100008E90D0008D7
:10001000371000086D010008051D000800000000F1
:10002000000000000000000000000000431900086C
:100030006F010008000000003B100008451900088F
:100040001B0100081B0100081B0100081B01000820
:100050001B0100081B0100081B0100081B01000810
:100060001B0100081B0100081B0100081B01000800
:100070001B0100081B0100081B0100081B010008F0
:100080001B0100081B0100081B0100081B010008E0
:100090001B0100081B0100081B0100081B010008D0
:1000A0001B0100081B0100081B0100081B010008C0
:1000B0001B0100081B0100081B0100081B010008B0
:1000C0001B0100081B0100081B0100081B010008A0
:1000D0001B0100081B0100081B0100081B01000890
:1000E0001B0100081B0100081B010008DFF80CD0F1
:1000F00000F02AF800480047451D00089808002035
:100100000648804706480047FEE7FEE7FEE7FEE7B1
:10011000FEE7FEE7FEE7FEE7FEE7FEE799190008C7
:10012000ED000008D2B201E000F8012B491EFBD21D
:1001300070470022F6E710B513460A4604461946F2
:10014000FFF7F0FF204610BD064C074D06E0E068C3
:1001500040F0010394E8070098471034AC42F6D30E
:10016000FFF7C8FF545A0008745A0008FEE77047AA
:1001700070B5044600F0FEF80546601C02D0044845
:100180000078044400F0F6F8401BA042FAD370BD9A
:10019000080000202DE9F84FDFF8B891002409F19C
:1001A000040A0AF1040B23460F270BF1040EC9E0E1
:1001B0000125A5402A40AA427DD1674ED1F804C04E
:1001C000ACEB0608B44532D014DCBCF1030F3AD0D6
:1001D00009DCBCF1000F2AD0BCF1010F1CD0BCF12E
:1001E000020F31D11DE0BCF1110F17D0BCF1120F7D
:1001F0002AD119E0B8F5881F19D006DCB8F5803F80
:1002000015D0B8F5801F1FD111E0B8F5001F0ED032
:10021000B8F5041F18D10AE0CB6815E0CB681B1DA8
:1002200012E0CB6808330FE0CB680C330CE08B682E
:100230002BB1012B4FF0080303D0456104E00423E8
:1002400002E0056100E00023FF2A01D8064601E034
:1002500000F104064FEA840501D9A5F12005D6F87E
:10026000008007FA05FC28EA0C0803FA05F548EABD
:100270000508C6F800804D68ED0062D5374DAE69BF
:1002800046F00106AE61AD6924F0030605F00105F4
:100290000095334D06EB050CDCF80850A607360F29
:1002A00007FA06F825EA0805DFF8B880404503D1CB
:1002B0004FF0000817E044E0DFF8AC80404502D181
:1002C0004FF001080FE0DFF8A480404502D14FF065
:1002D000020808E0DFF89880404502D14FF003089B
:1002E00001E04FF0040808FA06F848EA0508CCF8DF
:1002F00008804D68D9F80060ED034D4601D51643DE
:1003000000E096432E604D68DAF80060AD03554674
:1003100001D5164300E096432E604D68DBF800607F
:10032000ED025D4601D5164300E096432E604D6810
:10033000DEF80060AD02754601D5164300E0964335
:100340002E60641C0D682A46E5407FF431AFBDE89D
:10035000F88F00000004014000001110001002405E
:100360000000014000080140000C01400010014065
:100370000014014001488068704700000800002018
:1003800070B504001BD094F83D00002520B984F816
:100390003C50204600F0F0F9242084F83D0020680D
:1003A000016821F00101016000F034FB4D4A6168F1
:1003B000914201D84C4900E04C49884201D20120C9
:1003C00070BD4B492368B0FBF1F15E6826F03F0633
:1003D0000E435E606368934206D94FF496735943A7
:1003E0004FF47A73B1FBF3F12368491C1E6A26F0BF
:1003F0003F06314319626168914210D84900401E9E
:10040000B0FBF1F2521CC2F30B02042A01D2042009
:1004100022E0B0FBF1F0401CC0F30B001CE0A3682D
:10042000F3B301EBC10202EB0116421EB2FBF6F27E
:10043000521C42F48042120549D093B301EBC10231
:1004400002EB0111401EB0FBF1F0401CC0F30B00A9
:1004500040F4804040F400402168CA694CF6FF73C4
:100460009A431043C861D4E90701084321680A6828
:1004700022F0C00210430860D4E903010143206860
:10048000826848F2FF339A4311438160D4E9050141
:1004900008432168CA6822F0FF021043C86001E0E7
:1004A0000EE016E02068016841F00101016025645A
:1004B000202084F83D00256384F83E50002070BD64
:1004C00001EB4106421EB2FBF6F2521CB3E70120DB
:1004D000C2E701EB4101401EB0FBF1F0401CC0F34C
:1004E0000B00B7E7A086010080841E0000093D00D4
:1004F00040420F002DE9FF4F81B089460446FFF7C7
:1005000039FF054694F83D004FF0010820287AD1C4
:10051000192301224B492046009500F0E7FC0028F2
:1005200071D194F83C0001286DD0012084F83C0082
:1005300020680168C90703D1016841F00101016029
:100540002068016821F400610160242084F83D00E6
:10055000002626643C48E0624FF0011B20272068FB
:10056000016841F4807101600095002259462046DF
:10057000049B00F0BBFC002856D1216809F0FE0066
:100580000861FFF7F7FE2168054648694969C0F32D
:100590004000C1F380214FF0A00A0FE0FFF7EAFE10
:1005A000411B0498814200D808B984F83DA0216815
:1005B00048694969C0F34000C1F3802194F83D20A7
:1005C000A02A02D008B90029E8D084F83D7020683C
:1005D0004169C943890717D4016841F4007101607A
:1005E0002068416980691923012216492046009537
:1005F00000F07CFCC0B984F83D7084F83C600020B9
:1006000005B0BDE8F08F1BE0016841F400710160A6
:1006100021686FF48060486119230122094920464E
:10062000009500F063FC08B10120E9E7039808F1A8
:100630000108804593D384F83D7084F83C60F3E76B
:100640000220DDE7020010000000FFFF2DE9F84F57
:100650001F4690468A460446DDF82890FFF78AFE3A
:10066000054694F83D0020287FD1192301224049F6
:100670002046009500F03AFC002876D194F83C0022
:10068000012872D0012084F83C0020680168C90765
:1006900003D1016841F0010101602068016821F483
:1006A00000610160212084F83D00102084F83E00A4
:1006B00000262664C4F824806785608D20852D4837
:1006C000E0622B464A465146204600F0A5FB90B911
:1006D000206841698069009036E02A4649462046F4
:1006E00000F083FC50B1206C042804D1206801681C
:1006F00041F4007101600120BDE8F88F606A216853
:1007000000780861606A401C6062618D491E6185E5
:10071000218D491E89B2218522685369DB435B071D
:100720000BD451B100781061606A401C6062608D2A
:10073000401E6085208D401E20852A464946204661
:1007400000F0AEFB0028CED1208D0028C5D154F892
:100750003D0B016841F400710160202004F81E097E
:10076000E67766770020C7E7FFE70220C4E70000CE
:10077000020010000000FFFF10B586B000210091BC
:1007800001910291039100680F4988421AD10F4CE0
:10079000A06940F00800A061A069694600F0080067
:1007A0000490C0200090122001900320039008487C
:1007B000FFF7F0FCE06940F40010E061E06900F44C
:1007C0000010049006B010BD00540040001002401C
:1007D000000C014002488168027811448160704732
:1007E00008000020074810B5016841F010010160C1
:1007F000032000F067F8002000F006F800F024F86D
:10080000002010BD0020024070B50D4D04464FF48D
:100810007A712878B1FBF0F00A490968B1FBF0F071
:1008200000F0CEFA48B9102C07D200222146501E03
:1008300000F028F800206C6070BD012070BD000041
:1008400008000020140000200C4808B5816941F020
:1008500001018161816901F001010091C16941F0EB
:100860008051C161C06900F0805000900448416827
:1008700021F0E06141F00071416008BD00100240CC
:1008800000000140F0B40E4B1B680C46C3F302237A
:10089000C3F10705042D00D90425191D072901D22C
:1008A000002300E0DB1E012606FA05F1491E214067
:1008B00099409E40761E16403143F0BC01F023BAA9
:1008C0000CED00E0064900F0070208684FF6FF0350
:1008D000184040EA0220034A1043086070470000B5
:1008E0000CED00E00000FA052DE9F0470F46050089
:1008F00061D0434E306800F00700B84209D230683A
:1009000020F0070038433060306800F00700B8423C
:1009100051D128683B4C810712D5400703D5606848
:1009200040F4E06060602878000703D5606840F418
:10093000605060606068A96820F0F0000843606063
:100940002878C00728D06868012810D021680228BC
:1009500010D0890700292EDA616821F003010143D4
:100960006160FFF707FD804641F288390DE021689C
:100970008903EFE78901EDE7FFF7FCFCA0EB080135
:10098000494502D90320BDE8F0876068696800F036
:100990000C00B0EB810FEFD1306800F00700B842D7
:1009A0000BD9306820F0070038433060306800F021
:1009B0000700B84201D00120E5E72878400705D5B7
:1009C0006068E96820F4E060084360602878000708
:1009D00006D56068296920F4605040EAC100606073
:1009E00000F028F86168084AC1F30311515CC8405F
:1009F0000649086006480068FFF706FF0020C2E7C6
:100A000000200240001002403C5A00081400002060
:100A10000C0000200448054900684968044AC1F3F5
:100A20000221515CC84070471400002000100240B1
:100A30004C5A000812A185B00FC98DE80F0014A010
:100A4000144A006804905168134801F00C03042B09
:100A500010D0082B0ED1C1F38343C9031DF8030046
:100A60000AD5516804AAC1F34041515C0A4A504377
:100A7000B0FBF1F005B0704708494843FAE70000C1
:100A800002030405060708090A0B0C0D0E0F1010CF
:100A9000010200000010024000127A0000093D002F
:100AA0002DE9F84F040070D02078C04DC00749D020
:100AB0006868C0F38100012807D06868C0F381002E
:100AC000022809D16868C00306D52868800339D593
:100AD00060680028E7D035E06068B0F5803F0BD053
:100AE00010B1B0F5A02F11D0286820F48030286014
:100AF000286820F4802002E0286840F480302860D4
:100B0000606890B1FFF736FC06460AE0286840F4BA
:100B100080202860F0E700BFFFF72CFC801B6428D2
:100B200073D828688003F7D50CE0FFF723FC06464E
:100B300005E000BFFFF71EFC801B6428F0D8286882
:100B40008003F7D420789A4E80074FF001094FF0C8
:100B5000000839D5686810F00C0F07D06868C0F33A
:100B60008100022809D16868C00306D4286880077C
:100B700014D52069012808D110E02069B0B1C6F869
:100B80000090FFF7F7FB074605E00AE1FFF7F2FBED
:100B9000C01B0228C4D828688007F7D52868616977
:100BA00020F0F80040EAC10028600DE0C6F800809F
:100BB000FFF7E0FB074604E0FFF7DCFBC01B022861
:100BC00023D828688007F7D4207800072CD57948E7
:100BD000A169D9B1C0F80090FFF7CCFB074604E04B
:100BE000FFF7C8FBC01B02280FD8686A8007F7D53B
:100BF00071484FF4FA510068B0FBF1F0009000BF6B
:100C00000098411E0091FAD20EE080E0C0F800800A
:100C1000FFF7B0FB074604E0FFF7ACFBC01B022860
:100C200075D8686A8007F7D42078400760D5E869EE
:100C30000027C00008D4E86940F08050E861E86906
:100C4000012700F0805000905C480168C90513D46A
:100C50000168834641F480710160FFF78BFB824697
:100C600006E000BFFFF786FBA0EB0A0064284ED821
:100C7000DBF80000C005F5D5E06801280AD008B10E
:100C8000052813D0286A20F001002862286A20F085
:100C9000040002E0286A40F001002862E06841F2A6
:100CA000883B98B1FFF766FB82460BE0286A40F06C
:100CB00004002862EEE700BFFFF75CFBA0EB0A012F
:100CC00059455AD8286A8007F6D50CE0FFF752FB41
:100CD000824605E0FFF74EFBA0EB0A0159454CD8D0
:100CE000286A8007F6D41FB1E86920F08050E861D7
:100CF000E06988B36968C1F38101022944D0022800
:100D0000C6F8608004D0FFF735FB044638E034E0D5
:100D1000FFF730FB074604E0FFF72CFBC01B02285F
:100D20002BD828688001F7D4206AB0F5803F05D120
:100D30006868A16820F4003008436860D4E90801BD
:100D40000843696821F4741108436860C6F860902C
:100D5000FFF710FB044606E025E000BFFFF70AFBA3
:100D6000001B022809D828688001F7D51BE000BFC6
:100D7000FFF700FB001B022802D90320BDE8F88F13
:100D800028688001F4D40EE00128F7D06868226A50
:100D900000F48031914204D1616A00F470108842FD
:100DA00001D00120EAE70020E8E70000001002403F
:100DB00000004242800442421400002000700040C3
:100DC00010B5401EB0F1807F01D3012010BD4FF05F
:100DD000E02460610F21601700F095FF0020A06102
:100DE00007202061002010BDFEE701684A69D24358
:100DF00052050FD46FF480624A61002140F8301F21
:100E0000202242738173026942F00402026101737D
:100E10000120704700207047F8B50446C06A1E469E
:100E20000D461746082807D0012805D010F5803F49
:100E300002D0206B122804D12068016841F480712F
:100E40000160134600224FF001112046009600F089
:100E50004DF808BB2069B0F5804F0ED00620216800
:100E600000EAD51040F0F000086133463A460B49DD
:100E7000204600F06FF878B902E005F0FE0000E0CF
:100E8000E8B221680861054933463A46891F204681
:100E900000F060F8002800D00120F8BD0800010033
:100EA00070B516460D4604460DE02046FFF79DFF3F
:100EB00008B1012070BD681C05D0FFF75BFA801BEC
:100EC000A84207D835B120684069C0434007ECD438
:100ED000002070BD002044F8300F20216173A07302
:100EE000216941F0200121612073E2E72DE9F047FB
:100EF0001E4690460D460446C1F30747DDF8209094
:100F000008E0701C06D0FFF735FAA0EB0900B042EC
:100F10000FD876B12068012F18D0806925EA00002B
:100F20000004000C14D000214145EAD00020BDE8A7
:100F3000F087002044F8300F20216173A0732169ED
:100F400041F02001216120730120F0E74069E5E7CD
:100F50000121E9E72DE9F0479A4691460E460446FD
:100F600000254FF02008C1F3074725E020684069BD
:100F7000C043400514D42068016841F40071016049
:100F800021686FF480604861256384F83D8084F8AF
:100F90003E50206C40F00400206484F83C501FE078
:100FA000B9F1FF3F08D0FFF7E5F9A0EB0A01494589
:100FB0000CD8B9F1000F09D02068012F13D0806937
:100FC00026EA00000004000C0BD0CFE744F8305FA5
:100FD00084F80D80A573206940F0200020612573FE
:100FE0000120BDE8F0874069EAE770B516460D4676
:100FF00004460DE02046FFF7F8FE08B1012070BD61
:10100000681C05D0FFF7B6F9801BA84207D835B198
:1010100020684069C0430006ECD4002070BD002069
:1010200044F8300F20216173A073216941F0200141
:1010300021612073E2E7FEE77047704710B5044670
:10104000002100F080FA2046BDE8104000F032BCDC
:101050002DE9FF4F8B46DDE90D68F01DC11700EB50
:1010600051700027914640F3CF0A3D4624E000240A
:101070001AE0600702D07806070E08E0E01704EBDC
:101080005071039800EBE10105FB0A100778380660
:1010900008D50BEB040081B21FFA89F20F9B009870
:1010A00000F0D5F9641C24B2B442E2DB6D1C09F1F6
:1010B00001002DB20FFA80F94545D8DBBDE8FF8F5E
:1010C0002DE9FF4FC3F101001C460FFA80F8C3EB76
:1010D000C430400082B00FFA80FA164610190F464D
:1010E00082B24FF00109002589B20F9B029800F0EF
:1010F000AEF9301B82B2B9B20F9B029800F0A7F98B
:10110000381981B2B2B20F9B029800F0A0F9B2B2C6
:10111000381B5DE0B8F1000F09DB0AF102000FFA9D
:1011200080FA641E08EB0A0024B20FFA80F809F175
:1011300002000FFA80F96D1C08EB09002DB20FFABE
:1011400080F8781906EB040B81B201901FFA8BF23C
:101150000F9B029800F07BF9781B009081B21FFA78
:101160008BF20F9B029800F072F90198A6EB040B2A
:1011700081B21FFA8BF20F9B029800F068F9009879
:101180001FFA8BF281B20F9B029800F060F93819B8
:1011900006EB050B81B201901FFA8BF20F9B0298B0
:1011A00000F055F9381B009081B21FFA8BF20F9BAB
:1011B000029800F04CF90198A6EB050B81B21FFADA
:1011C0008BF20F9B029800F042F900981FFA8BF205
:1011D00081B20F9B029800F03AF9A5429ADB06B063
:1011E000BDE8F08F2DE9FF4FC3F101001C460FFA57
:1011F00080F8C3EBC43084B040000FFA80FB154682
:101200001019DDF844900F4682B24FF0010A002613
:1012100089B24B46049800F01AF9281B82B2B9B281
:101220004B46049800F013F9381981B20390AAB222
:101230004B46049800F00BF9381B81B20290AAB219
:101240004B46049800F003F9AAB23DE0B8F1000F54
:1012500009DB0BF102000FFA80FB641E08EB0B00A8
:1012600024B20FFA80F80AF102000FFA80FA761C15
:1012700008EB0A0036B20FFA80F8B81929198AB2B9
:1012800083B20390B81B0092CDE9019081B204981B
:1012900000F053F8291B02988AB283B20398CDE973
:1012A000002981B2049800F048F8381BA9198AB2C5
:1012B00083B2039038190092CDE9019081B204986D
:1012C00000F03BF8A91B8AB20398CDE9002983B24C
:1012D000029881B2049800F030F8A642B6DB08B05C
:1012E000BDE8F08F2DE9FC471546DDE90A790E4689
:1012F000824684291FD2402D1DD2F018842802D3A3
:10130000C6F1840083B2E819402802D3C5F1400039
:1013100087B2002406EB03080BE029198AB2CDE955
:1013200000291FFA88F33146504600F006F8641C85
:10133000E4B2BC42F1D9BDE8FC872DE9FF4F82B091
:101340001C460F9D16460F46842900D38327842C04
:1013500000D38324402E00D33F26402D00D33F25C9
:10136000A74201D2E01B00E0381B0FFA80F9AE4221
:1013700001D2A81B00E0701B0FFA80FA4FF0FF307B
:10138000A74201D2012100E001460191AE4200D204
:10139000012083464846D14501DCCAF1000000EB3C
:1013A000D07040F34F08B9F1000F24D0BAF1000F0C
:1013B00038D0C9F10000009032463946109B02989F
:1013C00000F045F8A74201D1AE4228D0009940462E
:1013D000884506DDA8EB0A010FFA81F80199394426
:1013E0008FB25045E8DA08EB09000FFA80F806EBF7
:1013F0000B0086B2E0E7B54202D22846354686B2F7
:10140000BC4200D2A7B234B207E0A2B23946109B68
:10141000029800F01CF8641C24B2AC42F5DD06B062
:10142000BDE8F08FB54200D2AEB2BC4202D2204637
:101430003C4687B23DB207E0A9B23246109B029803
:1014400000F005F86D1C2DB2A542F5DDE7E770B59B
:10145000842915D2402A13D2012402F00705AC409A
:10146000D20802EB421290F82B6401EB820108448F
:101470000EB133B101E0012B03D04178A14341709B
:1014800070BD41782143FAE72DE9FC431446DDE9BC
:1014900009870D468146842933D2402C31D2E81881
:1014A000842802D3C5F1840083B204EB08004028ED
:1014B00003D3C4F140001FFA80F8CDE90047EE18CD
:1014C000B3B222464846FFF738FF04EB08001FFA84
:1014D00080F8CDE90087B3B2424629464846FFF777
:1014E0002CFFCDE900872B46224619464846FFF7D8
:1014F00024FFCDE90087B3B2B1B222464846FFF7D8
:101500001CFFBDE8FC832DE9FC4F9B46DDE90D5433
:10151000DDE90B67CDE90064904689468246FFF716
:101520000CFFCDE900543B46324659465046FFF782
:1015300004FFCDE900844B462A4639465046FFF762
:10154000FCFEBDE8FC8F29B1FF224FF48461401CF2
:10155000FEF7E8BD0022F8E780F8281480F8292477
:10156000704710B504460846C4F824147821217049
:1015700044F620630122FEF7BDFF08B1002010BD34
:1015800040F6C210401EFDD1AE21204600F0C8F941
:101590002021204600F0C4F91021204600F0C0F9B7
:1015A000B021204600F0BCF9C821204600F0B8F96F
:1015B0000021204600F0B4F91021204600F0B0F9D7
:1015C0004021204600F0ACF98121204600F0A8F926
:1015D000FF21204600F0A4F9A121204600F0A0F947
:1015E000A621204600F09CF9A821204600F098F999
:1015F0003F21204600F094F9A421204600F090F904
:10160000D321204600F08CF90021204600F088F913
:10161000D521204600F084F9F021204600F080F921
:10162000D921204600F07CF92221204600F078F9EB
:10163000DA21204600F074F91221204600F070F9FA
:10164000DB21204600F06CF92021204600F068F9EB
:101650008D21204600F064F91421204600F060F945
:10166000AF21204600F05CF92E21204600F058F909
:1016700000212046FFF767FF204600F01BF90020FD
:1016800084F8280484F82904012084F82A0410BD71
:1016900009B1A72100E0A62100F042B92DE9F047E9
:1016A0008946044690F8280411789A46084416465C
:1016B000842805D294F8290471780844402802D37C
:1016C0000020BDE8F08700272CE000BFA9F1200131
:1016D00001FB00707268002532F810801EE000BF28
:1016E00008FA05F0000409D594F829045346384453
:1016F00082B294F82804284481B20BE0BAF1000FBA
:101700001BD0002394F82904384482B294F82804AA
:10171000284481B22046FFF79AFE6D1C3078A8421B
:10172000DEDC7F1C7078B842D0DC94F82804317875
:10173000084484F828044846C3E70123E2E7F0B5EB
:101740001D4616460C46074608E02B4632463846EC
:10175000FFF7A4FF2178884203D1641C2178002977
:10176000F3D1C8B2F0BD70B50C4616460546272128
:1017700000F0D6F80021284600F0D2F8214628468D
:1017800000F0CEF80021284600F0CAF8314628467D
:1017900000F0C6F80021284600F0C2F8FF212846D4
:1017A00000F0BEF82846BDE870402F2100F0B8B820
:1017B00070B50C4616460546262100F0B1F800210A
:1017C000284600F0ADF82146284600F0A9F800218F
:1017D000284600F0A5F83146284600F0A1F800217F
:1017E000284600F09DF8FF21284600F099F8284689
:1017F000BDE870402F2100F093B870B50C46164636
:101800000546A32100F08CF80021284600F088F856
:101810004021284600F084F82A21284600F080F86C
:101820000021284600F07CF82146284600F078F890
:101830000021284600F074F83146284600F070F880
:101840000121284600F06CF82846BDE870402F21A1
:1018500000F066B870B50C4616460546A32100F0A8
:101860005FF80021284600F05BF84021284600F090
:1018700057F82921284600F053F80021284600F0A7
:101880004FF82146284600F04BF80021284600F08A
:1018900047F83146284600F043F80121284600F079
:1018A0003FF82846BDE870402F2100F039B82E21BE
:1018B00000F036B8F0B5C1B0054600240DF10406BD
:1018C00004F1B000C1B2284600F02AF800212846F1
:1018D00000F026F81021284600F022F8402204EB00
:1018E00044108DF80420782105EB80008423002229
:1018F000401C06EB020C875C521CD2B28CF80170C3
:101900009A42F6D30A20009001AA5B1CD5F8240461
:10191000FEF79CFE641CE4B2082CD1D341B0F0BDAC
:101920001CB5047800228DF804208DF805100A21DA
:101930000091D0F82404022301AA2146FEF786FE76
:101940001CBD7047FEF746BF30B58FB028216846F2
:10195000FEF7EFFB14210AA8FEF7EBFB01210804B8
:10196000CDE900100024029402250491CDE907502E
:101970004FF4E01009906846FFF792F80F20CDE988
:101980000A056802CDE90C4002210AA80E94FEF770
:10199000ABFF0FB030BD00000D48016841F0010100
:1019A000016041680B4A1140416001680A4A1140D8
:1019B0000160016821F480210160416821F4FE0189
:1019C00041604FF41F0181600449C0030860704703
:1019D000001002400000FFF8FFFFF6FE08ED00E0F7
:1019E0002DE9F84F04460D461548FFF727FB600622
:1019F0004FEA106804F1840000F0FF094438C7B2D0
:101A0000002605F0FF0A17E0002510E023462A46CD
:101A100031460B48CDF800A0FFF752FB0848FFF70E
:101A200049FF0A20FEF7A4FB05EB0800C5B2BD4242
:101A3000ECD306EB0800C6B24E45E5D3BDE8F88FFF
:101A40006C0000202DE9F84F044640064FEA10686C
:101A50000D464FF0840940271148FFF7EFFA26465C
:101A600005F0FF0A17E0254610E023462A463146D6
:101A70000B48CDF800A0FFF7B5FB0948FFF71AFFA8
:101A80000A20FEF775FB05EB0800C5B2BD42ECD39A
:101A900006EB0800C6B24E45E5D3BDE8F88F00005E
:101AA0006C0000202DE9FC41074641261F250D480A
:101AB000FFF7C4FA40246008291A8AB2301ACDE927
:101AC000004781B223460748FFF70CFC0548FFF7A3
:101AD000F1FE0A20FEF74CFBA41F14F0FF04EAD12C
:101AE000BDE8FC816C0000202DE9FC410446604803
:101AF000FFF7A4FA00263F273546CDE900743246A9
:101B00002B4611465A48FFF718FC0120FEF730FB20
:101B10005748FFF7CFFEAD1DEDB2842DEDD38327DF
:101B20000025CDE9005432463B4611465048FFF7A8
:101B300004FC0120FEF71CFB4D48FFF7BBFEAD1D6A
:101B4000EDB2402DEDD30A20FEF712FB4848FFF717
:101B500075FA00264FF083083F273546CDE900741B
:101B60002B46324641464248FFF7E7FB4048FFF725
:101B7000A1FE0120FEF7FCFAAD1DEDB2842DEDD3E0
:101B800000273D46CDE900543B46324641463848A1
:101B9000FFF7D3FB3648FFF78DFE0120FEF7E8FA8A
:101BA000AD1DEDB2402DEDD30A20FEF7E1FA30482D
:101BB000FFF744FA4FF000083F2647464546CDE977
:101BC00000742B46324641462948FFF7B6FB0120F8
:101BD000FEF7CEFA2648FFF76DFEAD1DEDB2842D5F
:101BE000EDD383270025CDE900543B4632464146DC
:101BF0001F48FFF7A2FB0120FEF7BAFA1C48FFF7C7
:101C000059FEAD1DEDB2402DEDD30A20FEF7B0FA1E
:101C10001748FFF713FA3F2600274FF083083D4689
:101C2000CDE900742B46324641461148FFF785FB4B
:101C30000120FEF79DFA0E48FFF73CFEAD1DEDB208
:101C4000842DEDD300273D46CDE900543B46324676
:101C500041460748FFF771FB0120FEF789FA044867
:101C6000FFF728FEAD1DEDB2402DEDD3BDE8FC81A0
:101C70006C0000207CB506460E48FFF7DFF94025D2
:101C800002246108C1F1200082B2C1F14200CDE915
:101C9000004681B223460748FFF7F6FB0548FFF7E9
:101CA00009FE0A20FEF764FAA41DE4B2AC42E8D3B0
:101CB0007CBD00006C0000202DE9FF410746412655
:101CC0001F250F48FFF7BAF9002428193119CDE96B
:101CD0000207CDE90001301B83B2281B82B23146D6
:101CE0000748FFF710FC0648FFF7E4FD0A20FEF75F
:101CF0003FFA641DE4B2AC42E7D3BDE8FF810000C7
:101D00006C000020FEE70907090E002804DB00F143
:101D1000E02080F80014704700F00F0000F1E02090
:101D200080F8141D704702E008C8121F08C1002A7D
:101D3000FAD170477047002001E001C1121F002A4C
:101D4000FBD170470EB5FEF74DFDFFF7FDFDCE4808
:101D5000816941F020018161816901F020010091D8
:101D6000816941F004018161816901F00401009100
:101D7000816941F0080181618069C44900F008006F
:101D80000090C3484FF480420160C2494160002185
:101D90008160C0E9031241618161C1610162FEF7A6
:101DA000EFFABB4901F15400FFF7DBFB01244025AA
:101DB0004FF47A784FF4FA6980260120FFF794FEF9
:101DC00047464046FEF7D4F90120FFF753FF384657
:101DD000FEF7CEF90120FFF765FE3846FEF7C8F999
:101DE00001210620FFF7FCFD3846FEF7C1F901216D
:101DF0000620FFF727FE0120FFF75EFFA448002220
:101E000011465430FFF7A8FBA1480123A24AA3A121
:101E10005430FFF794FC9E481E220A215430FFF7ED
:101E20009BFB9B4801239C4A9FA15430FFF787FCF2
:101E300097485430FFF73EFD4F464846FEF798F965
:101E4000934801215430FFF77EFB91485430FFF74F
:101E500031FD3846FEF78CF98D48072200215430B9
:101E6000FFF7A6FC3846FEF783F9894807220021D0
:101E70005430FFF778FC3846FEF77AF9844854303E
:101E8000FFF715FD82485430FFF7D8F800968048D8
:101E9000CDE901540022874B11465430FFF7D8F8A2
:101EA0007B485430FFF706FD3846FEF761F9784865
:101EB0000F2200215430FFF77BFC3846FEF758F91B
:101EC00073480F2200215430FFF74DFC3846FEF7CF
:101ED0004FF96F480F2200215430FFF7BBFC384602
:101EE000FEF746F96A480F2200215430FFF785FCBF
:101EF0003846FEF73DF966485430FFF7D8FC644891
:101F000001215430FFF7C4FB3846FEF731F9604831
:101F100000215430FFF7BCFB3846FEF729F95C4836
:101F20005430FFF78BF800965948CDE90154002250
:101F3000614B11465430FFF78BF855485430FFF78A
:101F4000B9FC53485430FFF779F800965048CDE972
:101F500001540022594B11465430FFF779F84C4890
:101F60005430FFF7A7FC4A485430FFF767F8009653
:101F70004748CDE901540022514B11465430FFF738
:101F800067F843485430FFF795FC41485430FFF759
:101F900055F800963E48CDE901540022494B1146C0
:101FA0005430FFF755F83A485430FFF783FC38486F
:101FB0005430FFF743F800963548CDE9015400222C
:101FC000414B11465430FFF743F831485430FFF786
:101FD00071FC2F485430FFF731F800962C48CDE9BA
:101FE00001540022394B11465430FFF731F828488C
:101FF0005430FFF75FFC26485430FFF71FF8009677
:102000002348CDE901540022314B11465430FFF7EB
:102010001FF81F485430FFF74DFC1D485430FFF7A0
:102020000DF800961A48CDE901540022294B1146BB
:102030005430FFF70DF816485430FFF73BFC1448B6
:102040005430FEF7FBFF00961148CDE90154002201
:10205000214B11465430FEF7FBFF0D485430FFF77B
:1020600029FC0B485430FEF7E9FF00960848CDE9FB
:1020700001540022194B11465430FEF7E9FF044881
:102080005430FFF717FC98E600100240005400405F
:1020900018000020801A0600000000204B4855451B
:1020A000204E475559454E00202043524541544F3C
:1020B00052000000E0480008E0200008E02400088A
:1020C000E0280008E02C0008E0300008E0340008B8
:1020D000E0380008E03C0008E0400008E044000868
:1020E00000000000000000000000000000000000F0
:1020F00000000000000000000000000000000000E0
:1021000000000000000000000000000000000000CF
:1021100000000000000000000000000000000000BF
:1021200000000000000000000000000000000000AF
:10213000000000000000000000000000000000009F
:10214000000000000000000000000000000000008F
:10215000000000000000000000000000000000007F
:10216000000000000000000000000000000000006F
:10217000000000000000000000000000000000005F
:10218000000000000000000000000000000000004F
:10219000000000000000000000000000000000003F
:1021A000000000000000000000000000000000002F
:1021B000000000003FF86000000000000000000088
:1021C0000000001FFFFFF000000000000000000002
:1021D0000000007FFFFFC0000000000000000000C2
:1021E000000005FFFFFFE400000000000000000009
:1021F00000000FFFFFFF8000000000000000000053
:1022000000000F000FFF00000000000000000000B1
:102210000000060000FF8000000000000000000039
:1022200000001860001FF80000000000000000001F
:1022300000003C7800078000000000000000000063
:102240000000306E000000000000000000000000F0
:10225000000050738000000000000000000000003B
:1022600000008000C00005FF0037F000001F800064
:1022700000010000FC0000000007FF8003F03000B8
:1022800000000800380000000000BFFFFFE004006D
:102290000001900060000000000087FFFFFE0000CA
:1022A0000001E00060000000000001FFFFFFC0002F
:1022B00000004000600600000000001FFC00080055
:1022C00000000000E0060000100080000000000098
:1022D00000000000600600003001800000000000E7
:1022E0000000000070060000300700000000000041
:1022F000000000007FC60000E00F000000000000AA
:102300000000000F81CC0010E03800000000000049
:102310000000000FC0088600006000000000000000
:102320000000001FF620000021C000000000000097
:102330000000001FC00000000000000000000000BE
:102340000000003E0000000004010000000000004A
:10235000000000F80000000048000000000000003D
:10236000000001F00000000070000000000000000C
:102370000000072000000000F000780000000000CE
:1023800000003C3800000000F00078000000000071
:102390000000783000000001C0007800000000005C
:1023A0000001E00000000003800070000000000059
:1023B0000003C000000000060000700000000000E4
:1023C000000000000000001C0000300000000000C1
:1023D000000000000000003C000030000000000091
:1023E0000000000000000078000070000000000005
:1023F00000000000000001E00000F000000000000C
:1024000000000000000003C00003F0000000000016
:10241000000000000000060000078000000000002F
:1024200000000000000000000000000000000000AC
:10243000000000000000000000000000000000009C
:10244000000000000000000000000000000000008C
:10245000000000000000000000000000000000007C
:10246000000000000000000000000000000000006C
:10247000000000000000000000000000000000005C
:10248000000000000000000000000000000000004C
:10249000000000000000000000000000000000003C
:1024A000000000000000000000000000000000002C
:1024B000000000000000000000000000000000001C
:1024C000000000000000000000000000000000000C
:1024D00000000000000000000000000000000000FC
:1024E00000000000000000000000000000000000EC
:1024F00000000000000000000000000000000000DC
:1025000000000000000000000000000000000000CB
:1025100000000000000000000000000000000000BB
:1025200000000000000000000000000000000000AB
:10253000000000000000000000000000000000009B
:10254000000000000000000000000000000000008B
:10255000000000000000000000000000000000007B
:10256000000000000000000000000000000000006B
:10257000000000000000000000000000000000005B
:10258000000000000000000000000000000000004B
:10259000000000000000000000000000000000003B
:1025A000000000000000000000000000000000002B
:1025B000000000003FF86000000000000000000084
:1025C0000000001FFFFFF0000000000000000000FE
:1025D0000000007FFFFFC0000000000000000000BE
:1025E000000005FFFFFFE400000000000000000005
:1025F00000000FFFFFFF800000000000000000004F
:1026000000000F000FFF00000000000000000000AD
:102610000000060000FF8000000000000000000035
:1026200000001860001FF80000000000000000001B
:1026300000003C780007800000000000000000005F
:102640000000306E000000000000000000000000EC
:102650000000507380000000000000000000000037
:1026600000008000C00005FF0037F000001F800060
:1026700000010000FC0000000007FF8003F03000B4
:1026800000000800380000000000BFFFFFE0040069
:102690000001900060000000000087FFFFFE0000C6
:1026A0000001E00060000000000001FFFFFFC0002B
:1026B00000004000600600000000001FFC00080051
:1026C00000000000E0060000100080000000000094
:1026D00000000000600600003001800000000000E3
:1026E000000000007006000030070000000000003D
:1026F000000000007FC60000E00F000000000000A6
:102700000000000F81CC0010E03800000000000045
:102710000000000FC00886000060000000000000FC
:102720000000001FF620000021C000000000000093
:102730000000001FC00000000000000000000000BA
:102740000000003E00000000040100000000000046
:10275000000000F800000000480000000000000039
:10276000000001F000000000700000000000000008
:102770000000072000000000F000780000000000CA
:1027800000003C3800000000F0007800000000006D
:102790000000783000000001C00078000000000058
:1027A0000001E00000000003800070000000000055
:1027B0000003C000000000060000700000000000E0
:1027C000000000000000001C0000300000000000BD
:1027D000000000000000003C00003000000000008D
:1027E0000000000000000078000070000000000001
:1027F00000000000000001E00000F0000000000008
:1028000000000000000003C00003F0000000000012
:10281000000000000000060000078000000000002B
:1028200000000000000000000000000000000000A8
:102830000000000000000000000000000000000098
:102840000000000000000000000000000000000088
:102850000000000000000000000000000000000078
:102860000000000000000000000000000000000068
:102870000000000000000000000000000000000058
:102880000000000000000000000000000000000048
:102890000000000000000000000000000000000038
:1028A0000000000000000000000000000000000028
:1028B0000000000000000000000000000000000018
:1028C0000000000000000000000000000000000008
:1028D00000000000000000000000000000000000F8
:1028E00000000000000000000000000000000000E8
:1028F00000000000000000000000000000000000D8
:1029000000000000000000000000000000000000C7
:1029100000000000000000000000000000000000B7
:1029200000000000000000000000000000000000A7
:102930000000000000000000000000000000000097
:102940000000000000000000000000000000000087
:102950000000000000000000000000000000000077
:102960000000000000000000000000000000000067
:102970000000000000000000000000000000000057
:102980000000000000000000000000000000000047
:102990000000000000000000000000000000000037
:1029A0000000000000000000000000000000000027
:1029B0000000000000060000000000000000000011
:1029C000000000000FFFB000000000000000000049
:1029D0000000007FFFFC000000000000000000007D
:1029E000000001FFFFF81FC0000000000000000011
:1029F00000000FFFFFFFF8000000000000000000D3
:102A000000001FE01FFFC0000000000000000000E9
:102A100000001E83887F800000000000000000008E
:102A200000003C00000FF00000000000000000006B
:102A30000000F8FA0003870000000000000000001A
:102A40000000F8FE0000C0000000000000000000D0
:102A50000001E0E706003000000000000000FF0079
:102A600000010003CE0007800FF7FFF0000FFC000D
:102A700000020200DC00007FC007FFFFF1FF8000C2
:102A800000041800780000000000DFFFFFFC0000D9
:102A90000007400030000000000043FFFFF000008E
:102AA0000003C000200004001800603FFF80000009
:102AB000000180005FFFFF00187FA003E00000001E
:102AC000000000007FEFFF801CFFA000000000005E
:102AD00000000000601C00000C006000000000000E
:102AE000000000003F1800000E00E00000000000A1
:102AF0000000003FC03800000601E00000000000B8
:102B000000000078003C0005FE21A000000000004D
:102B1000000000E3FCA3E7F01FFFD000000000006E
:102B2000000001803F8018000183080000000000C1
:102B3000000003004200000000C306000000000087
:102B400000000F00C40000000023FCF000000000A3
:102B500000001E0090000000001103F000000000C3
:102B600000001C0120000000000D00F80000000023
:102B700000007C0180000000000780380000000099
:102B800000007003800000000007C0180000000073
:102B900000000007000000000007C00C000000005B
:102BA0000000000E000000000007C00C0000000044
:102BB0000000001C000000000007800E0000000064
:102BC00000000038000000000007000E00000000B8
:102BD0000000007000000000000E000E0000000069
:102BE000000001E000000000001E000E00000000D8
:102BF0000000078000000000003C001E00000000F4
:102C0000000000000000000001FC003E0000000089
:102C100000000000000000000F80003800000000ED
:102C200000000000000000001F0000000000000085
:102C30000000000000000000000000000000000094
:102C40000000000000000000000000000000000084
:102C50000000000000000000000000000000000074
:102C60000000000000000000000000000000000064
:102C70000000000000000000000000000000000054
:102C80000000000000000000000000000000000044
:102C90000000000000000000000000000000000034
:102CA0000000000000000000000000000000000024
:102CB0000000000000000000000000000000000014
:102CC0000000000000000000000000000000000004
:102CD00000000000000000000000000000000000F4
:102CE00000000000000000000000000000000000E4
:102CF00000000000000000000000000000000000D4
:102D000000000000000000000000000000000000C3
:102D100000000000000000000000000000000000B3
:102D200000000000000000000000000000000000A3
:102D30000000000000000000000000000000000093
:102D40000000000000000000000000000000000083
:102D50000000000000000000000000000000000073
:102D60000000000000000000000000000000000063
:102D70000000000000000000000000000000000053
:102D80000000000000000000000000000000000043
:102D90000000000000000000000000000000000033
:102DA0000000000000000000000000000000000023
:102DB0000000000000000000000000000000000013
:102DC0000000000000000000000000000000000003
:102DD0000000007FF01DC0000000000000000000A7
:102DE00000001FFFFFFF00000000000000000000C7
:102DF00000001FFFFFFFF0000000000000000000C7
:102E000000001F803FFFFFC0000000000000000026
:102E100000001E8388FFE0000000000000000000AA
:102E2000000078C0001FF800000000000000000053
:102E30000000F1E20003E6000000000000000000D6
:102E40000001F1F800006000000000000000000038
:102E50000003418F0C00180000000000000000007B
:102E6000000600038C0007800001FFFF80000800BF
:102E7000000C0200F800000FC03FFFFFF018300008
:102E8000000E4000300000000000FFFFFFE1C00026
:102E9000000F80003000000000003FFFFFFF0040F7
:102EA00000078000200004000000103FFFFE1E000D
:102EB000000000005FFDFF00007FF000FFFFE0006A
:102EC000000000007FEFFF8000FFF0000000000026
:102ED00000000000401C0000000010000000000086
:102EE00000000000701800000180180000000000C1
:102EF00000000000603000000180180000000000A9
:102F000000000001807E0000F1C01C0000000000F5
:102F100000000007FFFDF5FE0FFFEE0000000000BF
:102F200000000028FBE80E0000100F8000000000E9
:102F30000000007E01080000000C070E00000000E9
:102F4000000001E001100000000303FF000000008A
:102F50000000070001100000000041CF0000000049
:102F600000003C0001900000000011E38000000020
:102F70000001F80000A00000000007E1C000000010
:102F80000007E00000E00000000003E0E0000000B7
:102F9000001F000000E00000000001E070000000E1
:102FA0000000000000E00000000000E03C00000025
:102FB0000000000000C00000000000E00FC00000A2
:102FC0000000000000C00000000000E007E000007A
:102FD00000000000008000000000007000E0000021
:102FE00000000000018000000000007000000000F0
:102FF00000000000018000000000007800000000D8
:103000000000000003800000000003C0000000007A
:10301000000000001F00000000000F000000000082
:10302000000000003E00000000001F000000000043
:103030000000000000000000000000000000000090
:103040000000000000000000000000000000000080
:103050000000000000000000000000000000000070
:103060000000000000000000000000000000000060
:103070000000000000000000000000000000000050
:103080000000000000000000000000000000000040
:103090000000000000000000000000000000000030
:1030A0000000000000000000000000000000000020
:1030B0000000000000000000000000000000000010
:1030C0000000000000000000000000000000000000
:1030D00000000000000000000000000000000000F0
:1030E00000000000000000000000000000000000E0
:1030F00000000000000000000000000000000000D0
:1031000000000000000000000000000000000000BF
:1031100000000000000000000000000000000000AF
:10312000000000000000000000000000000000009F
:10313000000000000000000000000000000000008F
:10314000000000000000000000000000000000007F
:10315000000000000000000000000000000000006F
:10316000000000000000000000000000000000005F
:10317000000000000000000000000000000000004F
:10318000000000000000000000000000000000003F
:10319000000000000000000000000000000000002F
:1031A000000000000000000000000000000000001F
:1031B000000000000000000000000000000000000F
:1031C00000000000000000000000000000000000FF
:1031D000000003FFF00000000000000000000000FD
:1031E00000000FFFFF800000000000000000000052
:1031F00000001FFFFFFFF0000000000000000000C3
:1032000000001FFFFFFFF0000000000000000000B2
:1032100000001E383FFFFE0000000000000000001C
:103220000000700000FF8880000000000000000027
:103230000000F1E00C5FC000000000000000000092
:103240000001F1F01C4B80000000000000000000B5
:10325000000381BC0C0040000000000000000000E2
:103260000000023F000218001F800007F800000065
:1032700000181807D80001001001FFFFFF800000B0
:10328000001C0000F8000008100027FFFFE000000D
:10329000001F0000744A10281488007FFFFC000003
:1032A000000600002000000000001018FFFFF000E2
:1032B0000000000028000000000010000007F000DF
:1032C0000000000048580008160010000000000030
:1032D000000000004C5B081C36901000000000004D
:1032E000000000004C720918179000000000000058
:1032F000000000007C300008030000000000000017
:1033000000000000783000031F8003000000000070
:10331000000000004C3E00C000400018000000000B
:103320000000000080FFC000000F801C00000000B3
:10333000000000010B108000000003BC0000000032
:1033400000000001040840000000003E00000000F2
:1033500000000002100040000000001E00000000FD
:1033600000000004400220000000000F00000000E8
:1033700000000009000120000000000F8000000094
:103380000000001E0000900000000007C0000000C8
:103390000000003C0000780000000007F000000082
:1033A000000000700000380000000007FC00000072
:1033B000000000C00000380000000007FE00000010
:1033C00000000780000018000000000780000000D7
:1033D00000000F0000000C0000000001C000000011
:1033E0000000780000000E0000000000F000000067
:1033F0000000F8000000070000000000F0000000DE
:103400000000000000000F0000000000300000007D
:103410000000000000003E0000000000000000006E
:103420000000000000007C00000000000000000020
:10343000000000000000000000000000000000008C
:10344000000000000000000000000000000000007C
:10345000000000000000000000000000000000006C
:10346000000000000000000000000000000000005C
:10347000000000000000000000000000000000004C
:10348000000000000000000000000000000000003C
:10349000000000000000000000000000000000002C
:1034A000000000000000000000000000000000001C
:1034B000000000000000000000000000000000000C
:1034C00000000000000000000000000000000000FC
:1034D00000000000000000000000000000000000EC
:1034E00000000000000000000000000000000000DC
:1034F00000000000000000000000000000000000CC
:1035000000000000000000000000000000000000BB
:1035100000000000000000000000000000000000AB
:10352000000000000000000000000000000000009B
:10353000000000000000000000000000000000008B
:10354000000000000000000000000000000000007B
:10355000000000000000000000000000000000006B
:10356000000000000000000000000000000000005B
:10357000000000000000000000000000000000004B
:10358000000000000000000000000000000000003B
:10359000000000000000000000000000000000002B
:1035A000000000000000000000000000000000001B
:1035B000000000000000000000000000000000000B
:1035C0000000007C0000000000000000000000007F
:1035D000000001FF8000000000000000000000006B
:1035E000000003FFF80000000000000000000000E1
:1035F000000007FFFFFE00000000000000000000C8
:1036000000000F80FFFFC7C00000000000000000A6
:1036100000003E8387FFFC00000000000000000067
:1036200000007CE000FFF800000000000000000047
:103630000000FCF2001FC2000000000000000000BB
:10364000000180F80003E00000000000000000001E
:103650000002009E0000E0000000000000000000EA
:10366000000C030F80001C01800FFFFFFFF800001B
:103670000006B003C00000700000FFFFFFFF000065
:1036800000078000EC000000000047FFFFFFC000C3
:10369000000300007C000000000041FFFFF060001C
:1036A00000000000380004000000403FFFFE18004A
:1036B000000000001FFBFF001C7F4000F800C4005A
:1036C000000000003FFDFF800CFFC0000000000074
:1036D00000000000200C0000060040000000000078
:1036E00000000000100C000003002000000000009B
:1036F00000000000180C00000F0030000000000067
:10370000000000000E0C0001FCC007F000000000EB
:103710000000000007FDFF9C003FFFF000000000DC
:1037200000000000040FA7C0000007F80000000020
:1037300000000000041BF800000006380000000034
:1037400000000000023408000000061C0000000019
:1037500000000000022304000000070E000000002B
:10376000000000000220C200000007070000000067
:10377000000000000240320000000703C00000000B
:103780000000000002400D8000000383E000000004
:103790000000000003C003C0000000F87F0000002C
:1037A0000000000003C001E00000003C0F0000002A
:1037B000000000000380003800000000000000004E
:1037C000000000000300000F0000000000000000E7
:1037D000000000000300000780000000000000005F
:1037E0000000000007000001C00000000000000011
:1037F0000000000006000000E000000000000000E3
:10380000000000003E000000E0000000000000009A
:1038100000000000F8000000200000000000000090
:103820000000000000000000000000000000000098
:103830000000000000000000000000000000000088
:103840000000000000000000000000000000000078
:103850000000000000000000000000000000000068
:103860000000000000000000000000000000000058
:103870000000000000000000000000000000000048
:103880000000000000000000000000000000000038
:103890000000000000000000000000000000000028
:1038A0000000000000000000000000000000000018
:1038B0000000000000000000000000000000000008
:1038C00000000000000000000000000000000000F8
:1038D00000000000000000000000000000000000E8
:1038E00000000000000000000000000000000000D8
:1038F00000000000000000000000000000000000C8
:1039000000000000000000000000000000000000B7
:1039100000000000000000000000000000000000A7
:103920000000000000000000000000000000000097
:103930000000000000000000000000000000000087
:103940000000000000000000000000000000000077
:103950000000000000000000000000000000000067
:103960000000000000000000000000000000000057
:103970000000000000000000000000000000000047
:103980000000000000000000000000000000000037
:103990000000000000000000000000000000000027
:1039A0000000000000000000000000000000000017
:1039B0000000000000000000000000000000000007
:1039C000000000FFC0000000000000000000000038
:1039D000000001FFF80000000000000000000000EF
:1039E000000003FFFE0000000000000000000000D7
:1039F000000007FFFF800000000000000000000042
:103A000000000783FFE00700000000000000000046
:103A100000001E839FFC0E0000000000000000005C
:103A200000003E3003FFFC0000000000000000002A
:103A300000007CBE003FF00000000000000000001D
:103A40000000803E0007FC000000000000000000B5
:103A50000001000F0000E000F1F01FE00000000096
:103A60000002030300002006000FFFFC000000001E
:103A700000038001800007E00001CFFFFFFFC000CE
:103A80000003C000C0000000000081FFFFFFF8003D
:103A900000008000600000003000807FFFFF3E00DB
:103AA00000000000600004003000801FFFFF810064
:103AB000000000003FFFFF00387F8007FE0020006D
:103AC000000000001FFFBF8018FE80000000000003
:103AD000000000000C01C000180100000000000000
:103AE000000000000400C000180E000000000000EC
:103AF000000000000400E0005E03FF000000000082
:103B0000000000000400600300E0FF00000000006F
:103B10000000000003FF7F98000FE7800000000016
:103B20000000000000C07FC00001C3800000000052
:103B300000000000002070000001C1C00000000073
:103B40000000000000107000000380E00000000092
:103B50000000000000086800000300700000000082
:103B60000000000000046800000700700000000072
:103B700000000000000238000006007C0000000089
:103B8000000000000001F8000007003E00000000F7
:103B9000000000000000FE04000700060000000016
:103BA000000000000000FFFFF00700000000000020
:103BB000000000000000701FE00300000000000093
:103BC00000000000000030000000000000000000C5
:103BD00000000000000018000000000000000000CD
:103BE0000000000000000C000000000000000000C9
:103BF0000000000000000E000000000000000000B7
:103C00000000000000001C00000000000000000098
:103C1000000000000000F0000000000000000000B4
:103C2000000000000001F0000000000000000000A3
:103C30000000000000000000000000000000000084
:103C40000000000000000000000000000000000074
:103C50000000000000000000000000000000000064
:103C60000000000000000000000000000000000054
:103C70000000000000000000000000000000000044
:103C80000000000000000000000000000000000034
:103C90000000000000000000000000000000000024
:103CA0000000000000000000000000000000000014
:103CB0000000000000000000000000000000000004
:103CC00000000000000000000000000000000000F4
:103CD00000000000000000000000000000000000E4
:103CE00000000000000000000000000000000000D4
:103CF00000000000000000000000000000000000C4
:103D000000000000000000000000000000000000B3
:103D100000000000000000000000000000000000A3
:103D20000000000000000000000000000000000093
:103D30000000000000000000000000000000000083
:103D40000000000000000000000000000000000073
:103D50000000000000000000000000000000000063
:103D60000000000000000000000000000000000053
:103D70000000000000000000000000000000000043
:103D80000000000000000000000000000000000033
:103D90000000000000000000000000000000000023
:103DA0000000000000000000000000000000000013
:103DB000000000007E000000000000000000000085
:103DC000000000FFFF800000000000000000000075
:103DD000000003FFFFE00000000000000000000002
:103DE000000003FFFFF000000000000000000000E2
:103DF000000003B9FFF80000000000000000000010
:103E0000000007003FFC0000000000000000000070
:103E100000001F3817FE0000000000000000000036
:103E200000001E3801FF0000000007F8000000003D
:103E300000003C1C0C7FC08000001FFE0000000042
:103E40000000203E1C4FFE0000003FFF000000006D
:103E50000000804F0C01F8007F00FFFF8000000091
:103E60000001840700023804001FFFFFC0000000AB
:103E70000000F0038C0003C8100303FFE0003000D3
:103E80000000F000C8000008100000FFF81FF0005C
:103E9000000000006C4A10281488007FFFFF00001B
:103EA00000000000300000004000001FFFFF800005
:103EB000000000001800000060000007FFE00000A4
:103EC0000000000008400008D0120000FE000000C2
:103ED000000000000C4B081CD098000000000000FF
:103EE000000000000C423118D098000000000000D3
:103EF000000000000C0030088C02000000000000F0
:103F0000000000000C00300807F8F8000000000076
:103F10000000000007003820007FF00000000000D3
:103F20000000000001E01F00003FE0000000000072
:103F30000000000000781000003FC00000000000FA
:103F400000000000005C10000079C00000000000CC
:103F5000000000000007080001E1800000000000F0
:103F6000000000000044080007830000000000007B
:103F700000000000002448F00E07000000000000D0
:103F800000000000002409E01C0700000000000001
:103F900000000000003C2F803807000000000000F7
:103FA00000000000003FDE003803C00000000000F9
:103FB00000000000000E07003003C00000000000F9
:103FC00000000000000000F0000180000000000080
:103FD000000000000000003E0000000000000000A3
:103FE000000000000000000E0000000000000000C3
:103FF000000000000000000780000000000000003A
:10400000000000000000000380000000000000002D
:10401000000000000000000380000000000000001D
:10402000000000000000000200000000000000008E
:104030000000000000000000000000000000000080
:104040000000000000000000000000000000000070
:104050000000000000000000000000000000000060
:104060000000000000000000000000000000000050
:104070000000000000000000000000000000000040
:104080000000000000000000000000000000000030
:104090000000000000000000000000000000000020
:1040A0000000000000000000000000000000000010
:1040B0000000000000000000000000000000000000
:1040C00000000000000000000000000000000000F0
:1040D00000000000000000000000000000000000E0
:1040E00000000000000000000000000000000000D0
:1040F00000000000000000000000000000000000C0
:1041000000000000000000000000000000000000AF
:10411000000000000000000000000000000000009F
:10412000000000000000000000000000000000008F
:10413000000000000000000000000000000000007F
:10414000000000000000000000000000000000006F
:10415000000000000000000000000000000000005F
:10416000000000000000000000000000000000004F
:10417000000000000000000000000000000000003F
:10418000000000000000000000000000000000002F
:10419000000000000000000000000000000000001F
:1041A0000000000001F80000000000000000000016
:1041B00000000001BFFF0000000000000000000040
:1041C000000000DFFFFFC000000000000000000052
:1041D000000001FFFFFFE000000000000000000001
:1041E000000001FFFFFFE0000000000000000000F1
:1041F000000001C1FFFFF00000000000000000000F
:10420000000003201FFEF00000000000000000007E
:1042100000000FB81FFE10000000000000000000AA
:1042200000000F1C00FFC80000000000000000009C
:104230000000162E0C7FF00000000FFC00000000B4
:104240000000303F1C4F000000003FFE0000000057
:10425000000060270C0040006101FFFF000000002B
:104260000000C70380021804003FFFFF8000000029
:1042700000007C01CC0003E8100F81FFC0000000AB
:1042800000007C00C80000081002007FF000000061
:10429000000000006C4A1028D488001FFF000000B6
:1042A0000000000020000000C000000FFFF0000030
:1042B000000000003C00000180020003FFFFFE0040
:1042C000000000001C4000091000000007FFE00093
:1042D000000000001C4B081FB0F0000000000000B0
:1042E000000000001C42311990F0000000000000A6
:1042F000000000002C003008FC000000000000005E
:10430000000000001E003808FC33C0000000000060
:10431000000000000F0C1800740FE0000000000007
:10432000000000000DFC1800040F800000000000D9
:104330000000000018781000121F000000000000AC
:1043400000000000418420000F7C000000000000FD
:1043500000000003C00420000FF000000000000077
:1043600000000001800020003F80000000000000ED
:1043700000000000C0034001FF000000000000003A
:10438000000000007002400F0E000000000000005E
:10439000000000003C81C01E0E0000000000000074
:1043A000000000000FF1C01C0E0000000000000023
:1043B000000000000001FFF8000000000000000005
:1043C000000000000000038000000000000000006A
:1043D00000000000000000000000000000000000DD
:1043E00000000000000000000000000000000000CD
:1043F00000000000000000000000000000000000BD
:1044000000000000000000000000000000000000AC
:10441000000000000000000000000000000000009C
:10442000000000000000000000000000000000008C
:10443000000000000000000000000000000000007C
:10444000000000000000000000000000000000006C
:10445000000000000000000000000000000000005C
:10446000000000000000000000000000000000004C
:10447000000000000000000000000000000000003C
:10448000000000000000000000000000000000002C
:10449000000000000000000000000000000000001C
:1044A000000000000000000000000000000000000C
:1044B00000000000000000000000000000000000FC
:1044C00000000000000000000000000000000000EC
:1044D00000000000000000000000000000000000DC
:1044E00000000000000000000000000000000000CC
:1044F00000000000000000000000000000000000BC
:1045000000000000000000000000000000000000AB
:10451000000000000000000000000000000000009B
:10452000000000000000000000000000000000008B
:10453000000000000000000000000000000000007B
:10454000000000000000000000000000000000006B
:10455000000000000000000000000000000000005B
:10456000000000000000000000000000000000004B
:10457000000000000000000000000000000000003B
:10458000000000000000000000000000000000002B
:10459000000000000000000000000000000000001B
:1045A000000000000000000000000000000000000B
:1045B00000000000207FE00000000000000000007C
:1045C0000000003FE7FFEC000000000000000000DA
:1045D000000001FFFFF800000000000000000000E4
:1045E000000001FFFFF9C000000000000000000013
:1045F000000001FBFFFFF8000000000000000000C9
:10460000000001C21FFFFE000000000000000000CB
:10461000000003DF8BFFE10000000000000000004D
:1046200000000F8E00FFF8000000000000000000F6
:1046300000000F8F001FC0000000000000000000FD
:1046400000001E0F000300000000031FF000000028
:10465000000010838000C00380E01FFFFF80000087
:1046600000002021C0003C78001FFFFFFFE0000099
:1046700000004180E00000000007FFFFFFF800009D
:104680000000740060000000C0020001FFFE000096
:1046900000003C0030000000C00200000FFF0000DE
:1046A0000000180010000400C002000001FFF0002C
:1046B000000000001FFFFF01807E0000003FE000BF
:1046C000000000003FFEFF8180FE00000003F800B4
:1046D000000000004600C001800C00000000000047
:1046E000000000004600C001C030000000000000D3
:1046F000000000006600C003C18000000000000050
:1047000000000001F618600DF1000000000000003C
:104710000000003EFFFF6770B900000000000000CD
:104720000000001FCFE06F805980000000000000F3
:10473000000000181FC080005F8000000000000023
:104740000000001800C300007FC00000000000004F
:104750000000000C008C0000FFC000000000000002
:104760000000000E03E0001FFC000000000000003D
:104770000000000FE380003EFC000000000000008D
:1047800000000003E3C13070700000000000000072
:1047900000000000203FFCE0E000000000000000FE
:1047A00000000000000380E1800000000000000025
:1047B0000000000000000087000000000000000072
:1047C000000000000000001E0000000000000000CB
:1047D000000000000000007C00000000000000005D
:1047E00000000000000000E00000000000000000E9
:1047F00000000000000003C00000000000000000F6
:1048000000000000000000000000000000000000A8
:104810000000000000000000000000000000000098
:104820000000000000000000000000000000000088
:104830000000000000000000000000000000000078
:104840000000000000000000000000000000000068
:104850000000000000000000000000000000000058
:104860000000000000000000000000000000000048
:104870000000000000000000000000000000000038
:104880000000000000000000000000000000000028
:104890000000000000000000000000000000000018
:1048A0000000000000000000000000000000000008
:1048B00000000000000000000000000000000000F8
:1048C00000000000000000000000000000000000E8
:1048D00000000000000000000000000000000000D8
:1048E00000000000000000000000000000000000C8
:1048F000000000000000000000003FC000000000B9
:10490000000000000000000000007FE00000000048
:104910000000000000000001C000FFF000000000E7
:10492000000000000000007FFF00FFF0000000001A
:1049300000000000000001E001E1FFF800000000BD
:104940000000000000000F000031FFF80000000030
:104950000000000000001E000011FFF80000000031
:104960000000000000007FE003F9FFF000000000FD
:10497000000000000000F03C1F00FFF000000000FD
:10498000000000000001C007F000FFF00000000080
:10499000000000000003C003E0007FE00000000012
:1049A000000000000006600770001F80000000008B
:1049B00000000000000E300C1C0000000000000091
:1049C00000000000000E1838060000000000000083
:1049D00000000000001C0C7003001000000000002C
:1049E00000000000001C07C001C01E000000000005
:1049F000000000000034038000601B000000000085
:104A0000000000000024038000301B0000000000B4
:104A100000000000006606E0001811000000000021
:104A20000000000000660C70000C11800000000007
:104A3000000000000042183800043180000000002F
:104A4000000000000043300C000630800000000031
:104A50000000000000C320060003208000000000CA
:104A60000000000000C1E0030001E0800000000041
:104A70000000000000C1C0018000C08000000000F4
:104A80000000000000C0C000C000C08000000000A6
:104A90000000000000C1C0006001C08000000000F4
:104AA0000000000000C1E0003001E08000000000D4
:104AB0000000000000C33000180320800000000048
:104AC00000000000004310000C06318000000000D0
:104AD0000000000000421800060C318000000000B9
:104AE0000000000000660C00039811800000000028
:104AF000000000000066060001F019000000000040
:104B0000000000000024030000F01B000000000073
:104B1000000000000034018000F01A0000000000D6
:104B200000000000001C00E001981E0000000000D2
:104B30000000000000000070030C1C0000000000DA
:104B400000000000000000180E061C00000000001D
:104B5000000000000000000E180318000000000014
:104B60000000000000FE0003F001B00000000000A3
:104B70000000000001FF8003E000E00000000000F2
:104B80000000000003FF800F7800C000000000005C
:104B90000000000007FFC0FC0FCF800000000000F5
:104BA0000000000007FFC7C001FF00000000000078
:104BB0000000000007FFC600001C0000000000000D
:104BC0000000000007FFC780007800000000000020
:104BD0000000000007FFC1F007C000000000000057
:104BE0000000000007FFC03FFE00000000000000C2
:104BF0000000000003FF8000000000000000000033
:104C00000000000001FF00000000000000000000A4
:104C100000000000007E0000000000000000000016
:104C20000000000000000000000000000000000084
:104C30000000000000000000000000000000000074
:104C40000F0F8C27F7E1F0C181F9F0FBF9F0F18C3F
:104C50001939CE21C63398C181819980E181918C27
:104C60003030CF2086330CC181818D804103018C8F
:104C700030304F2086320CC181F198F041F301FCB5
:104C800030304DE087E20CC18181F018438301FC94
:104C90003030CCE086630CC18181B00C4103018CC3
:104CA0001D9FCC608663F8FDF9F999D841F1D98C44
:104CB0000F0F0C208630F0FDF9F98CF041F0F18CEB
:104CC00000000000000000000000000000000000E4
:104CD00000000000000000000000000000000000D4
:104CE00000000000000000000000000000000000C4
:104CF00000000000000000000000000000000000B4
:104D0000000000000000000C000C000C000C000C67
:104D1000000C000C000C000C000C000C0000000C3F
:104D2000000C0000000000000000001B001B001B26
:104D3000001B001B0000000000000000000000003D
:104D400000000000000000000000000000008019CA
:104D5000801980198019C07FC07F80190033C07FFF
:104D6000C07F003300330033003300000000000038
:104D70000000001E003F807580650074003C001E2E
:104D800000078005806580658075003F001E000477
:104D9000000400000000007000D840D8C0D880D9BE
:104DA00000730006000C801BC036C066C046C006FB
:104DB00080030000000000000000001E003F0033E0
:104DC00000330033001E000CC03CC066806380616D
:104DD0008063C03E801C0000000000000000000C4A
:104DE000000C000C000C000C000000000000000093
:104DF00000000000000000000000000000000000B3
:104E0000800000010003000600060004000C000CF6
:104E1000000C000C000C000C00040006000600034F
:104E200000018000002000100018000C000C00049D
:104E30000006000600060006000600060004000C3E
:104E4000000C0018001000200000000C002D003F96
:104E5000001E003300000000000000000000000001
:104E60000000000000000000000000000000000042
:104E70000000000C000C000C000CC0FFC0FF000C78
:104E8000000C000C000C00000000000000000000FE
:104E90000000000000000000000000000000000012
:104EA00000000000000000000000000C000C0004E6
:104EB00000040008000000000000000000000000E6
:104EC000000000000000001E001E000000000000A6
:104ED00000000000000000000000000000000000D2
:104EE00000000000000000000000000000000000C2
:104EF0000000000C000C0000000000000000000397
:104F0000000300030006000600060006000C000C6B
:104F1000000C000C00180018001800000000000031
:104F20000000001E003F0033806180618061806D61
:104F3000806D8061806180610033003F001E000051
:104F40000000000000000006000E001E00360026D3
:104F50000006000600060006000600060006000621
:104F600000060000000000000000001E003F8073EB
:104F700080618061800100030006000C0018003091
:104F80000060807F807F0000000000000000001CA7
:104F9000003E006300630003000E000E000380016A
:104FA000800180618073003F001E0000000000004F
:104FB00000000006000E000E001E001E0016003647
:104FC00000360066807F807F000600060006000035
:104FD000000000000000007F007F006000600060B3
:104FE000006E007F80638001800180618073003FDC
:104FF000001E0000000000000000001E003F803383
:1050000080610060006E007F8073806180618061DC
:105010008033003F001E0000000000000000807F81
:10502000807F80010003000300060006000C000CD6
:10503000000C000800180018001800000000000014
:105040000000001E003F8063806180610021001E1F
:10505000003F8061806180618061003F001E000030
:10506000000000000000001E003F007380618061AE
:1050700080618073803F801D800180610073003FEC
:10508000001E000000000000000000000000000002
:105090000000000C000C00000000000000000000F8
:1050A0000000000C000C00000000000000000000E8
:1050B0000000000000000000000C000C00000000D8
:1050C000000000000000000C000C000400040008B8
:1050D000000000000000000080008003000E003887
:1050E00000600038000E8003800000000000000017
:1050F0000000000000000000000000000000807FB1
:10510000807F00000000807F807F000000000000A2
:10511000000000000000000000000000000000008F
:1051200000400070001C000780010007001C007098
:105130000040000000000000000000000000001F10
:10514000803FC071C060C000C00180030007000E36
:10515000000C000C0000000C000C0000000000001F
:105160000000001E003F803180718063806F806D81
:10517000806D806F806700600032003E001C000080
:10518000000000000000000E000E001B001B001BB2
:10519000001B80318031803F803F8031C060C06023
:1051A000C0600000000000000000007C007E006382
:1051B000006300630063007E007E006380618061A5
:1051C0008063007F007E0000000000000000001EE1
:1051D000003F80318061006000600060006000601E
:1051E000006080618031003F001E00000000000070
:1051F0000000007C007F00638063806180618061CB
:1052000080618061806100630063007E007C00003B
:10521000000000000000807F807F00600060006070
:105220000060007F007F0060006000600060807FA1
:10523000807F0000000000000000807F807F006011
:10524000006000600060007F007F00600060006020
:105250000060006000600000000000000000001E10
:10526000003F803180610060006000608063806387
:10527000806180618031803F001E000000000000DE
:105280000000806180618061806180618061807FD9
:10529000807F8061806180618061806180610000C9
:1052A000000000000000003F003F000C000C000C5C
:1052B000000C000C000C000C000C000C000C003F5B
:1052C000003F00000000000000008001800180011C
:1052D0008001800180018001800180018061806106
:1052E0008073003F001E0000000000000000C0604E
:1052F0008061006300660066006C0078007C0066D8
:105300000066006380618061C060000000000000F2
:1053100000000060006000600060006000600060ED
:1053200000600060006000600060807F807F00009F
:10533000000000000000C071C071C07BC07AC06A6C
:10534000C06AC06EC064C060C060C060C060C06041
:10535000C060000000000000000080718071807952
:1053600080798079806D806D806D806580678067D1
:105370008067806380630000000000000000001E62
:10538000003F003380618061806180618061806165
:10539000806180610033003F001E000000000000BB
:1053A0000000007E007F8063806180618061806397
:1053B000007F007E00600060006000600060000010
:1053C000000000000000001E003F0033806180618B
:1053D0008061806180618061806580670033803F8B
:1053E000401E0000000000000000007E007F80637F
:1053F000806180618063007F007E006600630063DF
:1054000080618061C0600000000000000000000EAC
:10541000001F8031803100300038001E00078003FB
:10542000806180618031003F001E000000000000AC
:105430000000C0FFC0FF000C000C000C000C000CB2
:10544000000C000C000C000C000C000C000C000008
:1054500000000000000080618061806180618061E7
:105460008061806180618061806180618073003FC4
:10547000001E0000000000000000C060C060C060AE
:10548000803180318031001B001B001B001B000E8F
:10549000000E000E00040000000000000000C0C06C
:1054A000C0C0C0C0C0C0C0C0C0CC804C804C805EFA
:1054B0008052805280738061806100000000000093
:1054C0000000C0C0806080610033003B001E000C03
:1054D000000C001E001F003B80718061C0C00000F6
:1054E000000000000000C0C0806180610033003314
:1054F000001E001E000C000C000C000C000C000C28
:10550000000C0000000000000000803F803F800190
:10551000000300030006000C000C00180018003007
:105520000060807F807F000000000000000F000FFF
:10553000000C000C000C000C000C000C000C000C0B
:10554000000C000C000C000C000C000C000F000FF5
:105550000000001800180018000C000C000C000CD3
:10556000000600060006000600030003000300001A
:1055700000000000001E001E0006000600060006D7
:1055800000060006000600060006000600060006EB
:1055900000060006001E001E0000000C000C001E8D
:1055A00000120033003380618061000000000000C1
:1055B00000000000000000000000000000000000EB
:1055C00000000000000000000000000000000000DB
:1055D000000000000000000000000000E0FF0000EC
:1055E000000000380018000C00000000000000005F
:1055F00000000000000000000000000000000000AB
:105600000000000000000000000000000000001F7B
:10561000803F80618001801F803F80618063807F48
:10562000C038000000000000000000600060006062
:105630000060006E007F80738061806180618061A6
:105640008073007F006E000000000000000000007A
:10565000000000000000001E003F807380610060B9
:10566000006080618073003F001E000000000000A9
:1056700000008001800180018001801D803F8073D7
:1056800080618061806180618073803F801D000047
:105690000000000000000000000000000000001EEC
:1056A000003F00738061807F807F00608071003FD9
:1056B000001E0000000000000000C007C00F000C2A
:1056C000000C807F807F000C000C000C000C000C94
:1056D000000C000C000C00000000000000000000A6
:1056E00000000000801D803F8073806180618061C8
:1056F00080618073803F801D80018063007F003E59
:1057000000000060006000600060006F807F8071BA
:105710008061806180618061806180618061000062
:105720000000000000000006000600000000003E2F
:10573000003E000600060006000600060006000601
:105740000006000000000000000600060000000047
:10575000003E003E000600060006000600060006A9
:105760000006000600060046007E003C00000060C7
:10577000006000600060806100630066006C007C77
:105780000076006300638061C060000000000000DC
:105790000000003E003E000600060006000600066F
:1057A00000060006000600060006000600060000CF
:1057B000000000000000000000000000000080DD8C
:1057C000C0FFC0CEC0CCC0CCC0CCC0CCC0CCC0CC44
:1057D000C0CC00000000000000000000000000003D
:1057E0000000006F807F80718061806180618061D6
:1057F0008061806180610000000000000000000006
:10580000000000000000001E003F80738061806186
:10581000806180618073003F001E00000000000076
:105820000000000000000000006E007F80738061B7
:105830008061806180618073007F006E0060006025
:10584000006000600000000000000000801D803F3C
:10585000807380618061806180618073803F801D82
:105860008001800180018001000000000000000034
:1058700000000067803F0039003000300030003009
:105880000030003000300000000000000000000088
:10589000000000000000001E803F80610060007F6B
:1058A000803F80018061007F001E0000000000003A
:1058B00000000000000800180018007F007F00189A
:1058C00000180018001800180018801F800F000032
:1058D00000000000000000000000000000008061E7
:1058E0008061806180618061806180618063807F90
:1058F000803D0000000000000000000000000000EB
:105900000000C060803180318031001B001B001B13
:10591000000E000E00060000000000000000000065
:1059200000000000000080DD80DD80DD00550055B6
:1059300000550077007700220022000000000000E0
:105940000000000000000000000080610033003310
:10595000001E000C000C001E0033003380610000AC
:105960000000000000000000000000008061806175
:10597000803100330033001B001B001B000E000EA3
:10598000000E001C007C0070000000000000000001
:105990000000C07FC07F800100030006000C0018DB
:1059A0000030C07FC07F000000000000800380073F
:1059B00000060006000600060006000E001C001C83
:1059C000000E0006000600060006000680078003A1
:1059D0000006000600060006000600060006000697
:1059E0000006000600060006000600060006000687
:1059F000000600060038003C000C000C000C000CF7
:105A0000000C000E00070007000E000C000C000C3C
:105A1000000C000C003C00380000000000000000FA
:105A20000000000000008038807F00470000000078
:105A30000000000000000000000000000000000066
:105A4000000000000102030406070809000000002E
:105A500001020304745A000800000020180000002E
:105A6000261D00088C5A000818000020800800003D
:105A7000361D00080B120000E04C00080100000079
:0C5A800010000000000000000024F400F2
:04000005080000ED02
:00000001FF
