:020000040800F2
:10000000980800200101000839100008E90D0008D7
:10001000371000086D010008F51C00080000000002
:10002000000000000000000000000000351900087A
:100030006F010008000000003B100008371900089D
:100040001B0100081B0100081B0100081B01000820
:100050001B0100081B0100081B0100081B01000810
:100060001B0100081B0100081B0100081B01000800
:100070001B0100081B0100081B0100081B010008F0
:100080001B0100081B0100081B0100081B010008E0
:100090001B0100081B0100081B0100081B010008D0
:1000A0001B0100081B0100081B0100081B010008C0
:1000B0001B0100081B0100081B0100081B010008B0
:1000C0001B0100081B0100081B0100081B010008A0
:1000D0001B0100081B0100081B0100081B01000890
:1000E0001B0100081B0100081B010008DFF80CD0F1
:1000F00000F02AF800480047351D00089808002045
:100100000648804706480047FEE7FEE7FEE7FEE7B1
:10011000FEE7FEE7FEE7FEE7FEE7FEE789190008D7
:10012000ED000008D2B201E000F8012B491EFBD21D
:1001300070470022F6E710B513460A4604461946F2
:10014000FFF7F0FF204610BD064C074D06E0E068C3
:1001500040F0010394E8070098471034AC42F6D30E
:10016000FFF7C8FF7458000894580008FEE770476E
:1001700070B5044600F0FEF80546601C02D0044845
:100180000078044400F0F6F8401BA042FAD370BD9A
:10019000080000202DE9F84FDFF8B891002409F19C
:1001A000040A0AF1040B23460F270BF1040EC9E0E1
:1001B0000125A5402A40AA427DD1674ED1F804C04E
:1001C000ACEB0608B44532D014DCBCF1030F3AD0D6
:1001D00009DCBCF1000F2AD0BCF1010F1CD0BCF12E
:1001E000020F31D11DE0BCF1110F17D0BCF1120F7D
:1001F0002AD119E0B8F5881F19D006DCB8F5803F80
:1002000015D0B8F5801F1FD111E0B8F5001F0ED032
:10021000B8F5041F18D10AE0CB6815E0CB681B1DA8
:1002200012E0CB6808330FE0CB680C330CE08B682E
:100230002BB1012B4FF0080303D0456104E00423E8
:1002400002E0056100E00023FF2A01D8064601E034
:1002500000F104064FEA840501D9A5F12005D6F87E
:10026000008007FA05FC28EA0C0803FA05F548EABD
:100270000508C6F800804D68ED0062D5374DAE69BF
:1002800046F00106AE61AD6924F0030605F00105F4
:100290000095334D06EB050CDCF80850A607360F29
:1002A00007FA06F825EA0805DFF8B880404503D1CB
:1002B0004FF0000817E044E0DFF8AC80404502D181
:1002C0004FF001080FE0DFF8A480404502D14FF065
:1002D000020808E0DFF89880404502D14FF003089B
:1002E00001E04FF0040808FA06F848EA0508CCF8DF
:1002F00008804D68D9F80060ED034D4601D51643DE
:1003000000E096432E604D68DAF80060AD03554674
:1003100001D5164300E096432E604D68DBF800607F
:10032000ED025D4601D5164300E096432E604D6810
:10033000DEF80060AD02754601D5164300E0964335
:100340002E60641C0D682A46E5407FF431AFBDE89D
:10035000F88F00000004014000001110001002405E
:100360000000014000080140000C01400010014065
:100370000014014001488068704700000800002018
:1003800070B504001BD094F83D00002520B984F816
:100390003C50204600F0F0F9242084F83D0020680D
:1003A000016821F00101016000F034FB4D4A6168F1
:1003B000914201D84C4900E04C49884201D20120C9
:1003C00070BD4B492368B0FBF1F15E6826F03F0633
:1003D0000E435E606368934206D94FF496735943A7
:1003E0004FF47A73B1FBF3F12368491C1E6A26F0BF
:1003F0003F06314319626168914210D84900401E9E
:10040000B0FBF1F2521CC2F30B02042A01D2042009
:1004100022E0B0FBF1F0401CC0F30B001CE0A3682D
:10042000F3B301EBC10202EB0116421EB2FBF6F27E
:10043000521C42F48042120549D093B301EBC10231
:1004400002EB0111401EB0FBF1F0401CC0F30B00A9
:1004500040F4804040F400402168CA694CF6FF73C4
:100460009A431043C861D4E90701084321680A6828
:1004700022F0C00210430860D4E903010143206860
:10048000826848F2FF339A4311438160D4E9050141
:1004900008432168CA6822F0FF021043C86001E0E7
:1004A0000EE016E02068016841F00101016025645A
:1004B000202084F83D00256384F83E50002070BD64
:1004C00001EB4106421EB2FBF6F2521CB3E70120DB
:1004D000C2E701EB4101401EB0FBF1F0401CC0F34C
:1004E0000B00B7E7A086010080841E0000093D00D4
:1004F00040420F002DE9FF4F81B089460446FFF7C7
:1005000039FF054694F83D004FF0010820287AD1C4
:10051000192301224B492046009500F0E7FC0028F2
:1005200071D194F83C0001286DD0012084F83C0082
:1005300020680168C90703D1016841F00101016029
:100540002068016821F400610160242084F83D00E6
:10055000002626643C48E0624FF0011B20272068FB
:10056000016841F4807101600095002259462046DF
:10057000049B00F0BBFC002856D1216809F0FE0066
:100580000861FFF7F7FE2168054648694969C0F32D
:100590004000C1F380214FF0A00A0FE0FFF7EAFE10
:1005A000411B0498814200D808B984F83DA0216815
:1005B00048694969C0F34000C1F3802194F83D20A7
:1005C000A02A02D008B90029E8D084F83D7020683C
:1005D0004169C943890717D4016841F4007101607A
:1005E0002068416980691923012216492046009537
:1005F00000F07CFCC0B984F83D7084F83C600020B9
:1006000005B0BDE8F08F1BE0016841F400710160A6
:1006100021686FF48060486119230122094920464E
:10062000009500F063FC08B10120E9E7039808F1A8
:100630000108804593D384F83D7084F83C60F3E76B
:100640000220DDE7020010000000FFFF2DE9F84F57
:100650001F4690468A460446DDF82890FFF78AFE3A
:10066000054694F83D0020287FD1192301224049F6
:100670002046009500F03AFC002876D194F83C0022
:10068000012872D0012084F83C0020680168C90765
:1006900003D1016841F0010101602068016821F483
:1006A00000610160212084F83D00102084F83E00A4
:1006B00000262664C4F824806785608D20852D4837
:1006C000E0622B464A465146204600F0A5FB90B911
:1006D000206841698069009036E02A4649462046F4
:1006E00000F083FC50B1206C042804D1206801681C
:1006F00041F4007101600120BDE8F88F606A216853
:1007000000780861606A401C6062618D491E6185E5
:10071000218D491E89B2218522685369DB435B071D
:100720000BD451B100781061606A401C6062608D2A
:10073000401E6085208D401E20852A464946204661
:1007400000F0AEFB0028CED1208D0028C5D154F892
:100750003D0B016841F400710160202004F81E097E
:10076000E67766770020C7E7FFE70220C4E70000CE
:10077000020010000000FFFF10B586B000210091BC
:1007800001910291039100680F4988421AD10F4CE0
:10079000A06940F00800A061A069694600F0080067
:1007A0000490C0200090122001900320039008487C
:1007B000FFF7F0FCE06940F40010E061E06900F44C
:1007C0000010049006B010BD00540040001002401C
:1007D000000C014002488168027811448160704732
:1007E00008000020074810B5016841F010010160C1
:1007F000032000F067F8002000F006F800F024F86D
:10080000002010BD0020024070B50D4D04464FF48D
:100810007A712878B1FBF0F00A490968B1FBF0F071
:1008200000F0CEFA48B9102C07D200222146501E03
:1008300000F028F800206C6070BD012070BD000041
:1008400008000020140000200C4808B5816941F020
:1008500001018161816901F001010091C16941F0EB
:100860008051C161C06900F0805000900448416827
:1008700021F0E06141F00071416008BD00100240CC
:1008800000000140F0B40E4B1B680C46C3F302237A
:10089000C3F10705042D00D90425191D072901D22C
:1008A000002300E0DB1E012606FA05F1491E214067
:1008B00099409E40761E16403143F0BC01F01BBAB1
:1008C0000CED00E0064900F0070208684FF6FF0350
:1008D000184040EA0220034A1043086070470000B5
:1008E0000CED00E00000FA052DE9F0470F46050089
:1008F00061D0434E306800F00700B84209D230683A
:1009000020F0070038433060306800F00700B8423C
:1009100051D128683B4C810712D5400703D5606848
:1009200040F4E06060602878000703D5606840F418
:10093000605060606068A96820F0F0000843606063
:100940002878C00728D06868012810D021680228BC
:1009500010D0890700292EDA616821F003010143D4
:100960006160FFF707FD804641F288390DE021689C
:100970008903EFE78901EDE7FFF7FCFCA0EB080135
:10098000494502D90320BDE8F0876068696800F036
:100990000C00B0EB810FEFD1306800F00700B842D7
:1009A0000BD9306820F0070038433060306800F021
:1009B0000700B84201D00120E5E72878400705D5B7
:1009C0006068E96820F4E060084360602878000708
:1009D00006D56068296920F4605040EAC100606073
:1009E00000F028F86168084AC1F30311515CC8405F
:1009F0000649086006480068FFF706FF0020C2E7C6
:100A000000200240001002405C5800081400002042
:100A10000C0000200448054900684968044AC1F3F5
:100A20000221515CC84070471400002000100240B1
:100A30006C58000812A185B00FC98DE80F0014A0F2
:100A4000144A006804905168134801F00C03042B09
:100A500010D0082B0ED1C1F38343C9031DF8030046
:100A60000AD5516804AAC1F34041515C0A4A504377
:100A7000B0FBF1F005B0704708494843FAE70000C1
:100A800002030405060708090A0B0C0D0E0F1010CF
:100A9000010200000010024000127A0000093D002F
:100AA0002DE9F84F040070D02078C04DC00749D020
:100AB0006868C0F38100012807D06868C0F381002E
:100AC000022809D16868C00306D52868800339D593
:100AD00060680028E7D035E06068B0F5803F0BD053
:100AE00010B1B0F5A02F11D0286820F48030286014
:100AF000286820F4802002E0286840F480302860D4
:100B0000606890B1FFF736FC06460AE0286840F4BA
:100B100080202860F0E700BFFFF72CFC801B6428D2
:100B200073D828688003F7D50CE0FFF723FC06464E
:100B300005E000BFFFF71EFC801B6428F0D8286882
:100B40008003F7D420789A4E80074FF001094FF0C8
:100B5000000839D5686810F00C0F07D06868C0F33A
:100B60008100022809D16868C00306D4286880077C
:100B700014D52069012808D110E02069B0B1C6F869
:100B80000090FFF7F7FB074605E00AE1FFF7F2FBED
:100B9000C01B0228C4D828688007F7D52868616977
:100BA00020F0F80040EAC10028600DE0C6F800809F
:100BB000FFF7E0FB074604E0FFF7DCFBC01B022861
:100BC00023D828688007F7D4207800072CD57948E7
:100BD000A169D9B1C0F80090FFF7CCFB074604E04B
:100BE000FFF7C8FBC01B02280FD8686A8007F7D53B
:100BF00071484FF4FA510068B0FBF1F0009000BF6B
:100C00000098411E0091FAD20EE080E0C0F800800A
:100C1000FFF7B0FB074604E0FFF7ACFBC01B022860
:100C200075D8686A8007F7D42078400760D5E869EE
:100C30000027C00008D4E86940F08050E861E86906
:100C4000012700F0805000905C480168C90513D46A
:100C50000168834641F480710160FFF78BFB824697
:100C600006E000BFFFF786FBA0EB0A0064284ED821
:100C7000DBF80000C005F5D5E06801280AD008B10E
:100C8000052813D0286A20F001002862286A20F085
:100C9000040002E0286A40F001002862E06841F2A6
:100CA000883B98B1FFF766FB82460BE0286A40F06C
:100CB00004002862EEE700BFFFF75CFBA0EB0A012F
:100CC00059455AD8286A8007F6D50CE0FFF752FB41
:100CD000824605E0FFF74EFBA0EB0A0159454CD8D0
:100CE000286A8007F6D41FB1E86920F08050E861D7
:100CF000E06988B36968C1F38101022944D0022800
:100D0000C6F8608004D0FFF735FB044638E034E0D5
:100D1000FFF730FB074604E0FFF72CFBC01B02285F
:100D20002BD828688001F7D4206AB0F5803F05D120
:100D30006868A16820F4003008436860D4E90801BD
:100D40000843696821F4741108436860C6F860902C
:100D5000FFF710FB044606E025E000BFFFF70AFBA3
:100D6000001B022809D828688001F7D51BE000BFC6
:100D7000FFF700FB001B022802D90320BDE8F88F13
:100D800028688001F4D40EE00128F7D06868226A50
:100D900000F48031914204D1616A00F470108842FD
:100DA00001D00120EAE70020E8E70000001002403F
:100DB00000004242800442421400002000700040C3
:100DC00010B5401EB0F1807F01D3012010BD4FF05F
:100DD000E02460610F21601700F08DFF0020A0610A
:100DE00007202061002010BDFEE701684A69D24358
:100DF00052050FD46FF480624A61002140F8301F21
:100E0000202242738173026942F00402026101737D
:100E10000120704700207047F8B50446C06A1E469E
:100E20000D461746082807D0012805D010F5803F49
:100E300002D0206B122804D12068016841F480712F
:100E40000160134600224FF001112046009600F089
:100E50004DF808BB2069B0F5804F0ED00620216800
:100E600000EAD51040F0F000086133463A460B49DD
:100E7000204600F06FF878B902E005F0FE0000E0CF
:100E8000E8B221680861054933463A46891F204681
:100E900000F060F8002800D00120F8BD0800010033
:100EA00070B516460D4604460DE02046FFF79DFF3F
:100EB00008B1012070BD681C05D0FFF75BFA801BEC
:100EC000A84207D835B120684069C0434007ECD438
:100ED000002070BD002044F8300F20216173A07302
:100EE000216941F0200121612073E2E72DE9F047FB
:100EF0001E4690460D460446C1F30747DDF8209094
:100F000008E0701C06D0FFF735FAA0EB0900B042EC
:100F10000FD876B12068012F18D0806925EA00002B
:100F20000004000C14D000214145EAD00020BDE8A7
:100F3000F087002044F8300F20216173A0732169ED
:100F400041F02001216120730120F0E74069E5E7CD
:100F50000121E9E72DE9F0479A4691460E460446FD
:100F600000254FF02008C1F3074725E020684069BD
:100F7000C043400514D42068016841F40071016049
:100F800021686FF480604861256384F83D8084F8AF
:100F90003E50206C40F00400206484F83C501FE078
:100FA000B9F1FF3F08D0FFF7E5F9A0EB0A01494589
:100FB0000CD8B9F1000F09D02068012F13D0806937
:100FC00026EA00000004000C0BD0CFE744F8305FA5
:100FD00084F80D80A573206940F0200020612573FE
:100FE0000120BDE8F0874069EAE770B516460D4676
:100FF00004460DE02046FFF7F8FE08B1012070BD61
:10100000681C05D0FFF7B6F9801BA84207D835B198
:1010100020684069C0430006ECD4002070BD002069
:1010200044F8300F20216173A073216941F0200141
:1010300021612073E2E7FEE77047704710B5044670
:10104000002100F07FFA2046BDE8104000F024BCEB
:101050002DE9FF4F8B46DDE90D68F01DC11700EB50
:1010600051700027914640F3CF0A3D4624E000240A
:101070001AE0600702D07806070E08E0E01704EBDC
:101080005071039800EBE10105FB0A100778380660
:1010900008D50BEB040081B21FFA89F20F9B009870
:1010A00000F0D5F9641C24B2B442E2DB6D1C09F1F6
:1010B00001002DB20FFA80F94545D8DBBDE8FF8F5E
:1010C0002DE9FF4FC3F101001C460FFA80F8C3EB76
:1010D000C430400082B00FFA80FA164610190F464D
:1010E00082B24FF00109002589B20F9B029800F0EF
:1010F000AEF9301B82B2B9B20F9B029800F0A7F98B
:10110000381981B2B2B20F9B029800F0A0F9B2B2C6
:10111000381B5DE0B8F1000F09DB0AF102000FFA9D
:1011200080FA641E08EB0A0024B20FFA80F809F175
:1011300002000FFA80F96D1C08EB09002DB20FFABE
:1011400080F8781906EB040B81B201901FFA8BF23C
:101150000F9B029800F07BF9781B009081B21FFA78
:101160008BF20F9B029800F072F90198A6EB040B2A
:1011700081B21FFA8BF20F9B029800F068F9009879
:101180001FFA8BF281B20F9B029800F060F93819B8
:1011900006EB050B81B201901FFA8BF20F9B0298B0
:1011A00000F055F9381B009081B21FFA8BF20F9BAB
:1011B000029800F04CF90198A6EB050B81B21FFADA
:1011C0008BF20F9B029800F042F900981FFA8BF205
:1011D00081B20F9B029800F03AF9A5429ADB06B063
:1011E000BDE8F08F2DE9FF4FC3F101001C460FFA57
:1011F00080F8C3EBC43084B040000FFA80FB154682
:101200001019DDF844900F4682B24FF0010A002613
:1012100089B24B46049800F01AF9281B82B2B9B281
:101220004B46049800F013F9381981B20390AAB222
:101230004B46049800F00BF9381B81B20290AAB219
:101240004B46049800F003F9AAB23DE0B8F1000F54
:1012500009DB0BF102000FFA80FB641E08EB0B00A8
:1012600024B20FFA80F80AF102000FFA80FA761C15
:1012700008EB0A0036B20FFA80F8B81929198AB2B9
:1012800083B20390B81B0092CDE9019081B204981B
:1012900000F053F8291B02988AB283B20398CDE973
:1012A000002981B2049800F048F8381BA9198AB2C5
:1012B00083B2039038190092CDE9019081B204986D
:1012C00000F03BF8A91B8AB20398CDE9002983B24C
:1012D000029881B2049800F030F8A642B6DB08B05C
:1012E000BDE8F08F2DE9FC471546DDE90A790E4689
:1012F000824684291FD2402D1DD2F018842802D3A3
:10130000C6F1840083B2E819402802D3C5F1400039
:1013100087B2002406EB03080BE029198AB2CDE955
:1013200000291FFA88F33146504600F006F8641C85
:10133000E4B2BC42F1D9BDE8FC872DE9FF4F82B091
:101340001C460F9D16460F46842900D38327842C04
:1013500000D38324402E00D33F26402D00D33F25C9
:10136000A74201D2E01B00E0381B0FFA80F9AE4221
:1013700001D2A81B00E0701B0FFA80FA4FF0FF307B
:10138000A74201D2012100E001460191AE4200D204
:10139000012083464846D14501DCCAF1000000EB3C
:1013A000D07040F34F08B9F1000F24D0BAF1000F0C
:1013B00038D0C9F10000009032463946109B02989F
:1013C00000F045F8A74201D1AE4228D0009940462E
:1013D000884506DDA8EB0A010FFA81F80199394426
:1013E0008FB25045E8DA08EB09000FFA80F806EBF7
:1013F0000B0086B2E0E7B54202D22846354686B2F7
:10140000BC4200D2A7B234B207E0A2B23946109B68
:10141000029800F01CF8641C24B2AC42F5DD06B062
:10142000BDE8F08FB54200D2AEB2BC4202D2204637
:101430003C4687B23DB207E0A9B23246109B029803
:1014400000F005F86D1C2DB2A542F5DDE7E770B59B
:10145000842914D2402A12D2012402F00705AC409C
:10146000D20802EB4212067A01EB820108440EB167
:1014700033B101E0012B03D0817AA143817270BDA9
:10148000817A2143FAE72DE9FC431446DDE9098717
:101490000D468146842933D2402C31D2E818842865
:1014A00002D3C5F1840083B204EB0800402803D3C3
:1014B000C4F140001FFA80F8CDE90047EE18B3B23E
:1014C00022464846FFF739FF04EB08001FFA80F870
:1014D000CDE90087B3B2424629464846FFF72DFFC3
:1014E000CDE900872B46224619464846FFF725FFDF
:1014F000CDE90087B3B2B1B222464846FFF71DFFDF
:10150000BDE8FC832DE9FC4F9B46DDE90D54DDE988
:101510000B67CDE90064904689468246FFF70DFFD0
:10152000CDE900543B46324659465046FFF705FF89
:10153000CDE900844B462A4639465046FFF7FDFE6A
:10154000BDE8FC8F29B1FF224FF484610A30FEF719
:10155000E9BD0022F8E7891C8180C280704710B580
:1015600004460160084644F6206301227821FEF714
:10157000C1FF08B1002010BD40F6C210401EFDD1D1
:10158000AE21204600F0C6F92021204600F0C2F925
:101590001021204600F0BEF9B021204600F0BAF933
:1015A000C821204600F0B6F90021204600F0B2F92B
:1015B0001021204600F0AEF94021204600F0AAF9A3
:1015C0008121204600F0A6F9FF21204600F0A2F973
:1015D000A121204600F09EF9A621204600F09AF9AC
:1015E000A821204600F096F93F21204600F092F90C
:1015F000A421204600F08EF9D321204600F08AF97C
:101600000021204600F086F9D521204600F082F91D
:10161000F021204600F07EF9D921204600F07AF929
:101620002221204600F076F9DA21204600F072F9F6
:101630001221204600F06EF9DB21204600F06AF905
:101640002021204600F066F98D21204600F062F945
:101650001421204600F05EF9AF21204600F05AF92F
:101660002E21204600F056F900212046FFF76AFFA0
:10167000204600F011F90020A080E0800120607277
:1016800010BD09B1A72100E0A62100F043B9000078
:101690002DE9F04789460446808811789A46084427
:1016A0001646842804D2E08871780844402802D382
:1016B0000020BDE8F087002728E000BFA9F1200145
:1016C00001FB00707268002532F810801AE000BF3C
:1016D00008FA05F0000407D5E0885346384482B282
:1016E000A088284481B209E0BAF1000F17D0002386
:1016F000E088384482B2A088284481B22046FFF7AF
:10170000A6FE6D1C3078A842E2D87F1C7078B842E3
:10171000D4D8A08831780844A0804846C9E701237E
:10172000E6E7F0B51D4616460C46074608E02B4690
:1017300032463846FFF7ACFF2178884203D1641C5B
:1017400021780029F3D1C8B2F0BD70B50C46164619
:101750000546272100F0DEF80021284600F0DAF8DF
:101760002146284600F0D6F80021284600F0D2F89D
:101770003146284600F0CEF80021284600F0CAF88D
:10178000FF21284600F0C6F82846BDE870402F210A
:1017900000F0C0B870B50C4616460546262100F08C
:1017A000B9F80021284600F0B5F82146284600F097
:1017B000B1F80021284600F0ADF83146284600F087
:1017C000A9F80021284600F0A5F8FF21284600F0DE
:1017D000A1F82846BDE870402F2100F09BB870B5F5
:1017E0000C4616460546A32100F094F80021284631
:1017F00000F090F84021284600F08CF82A21284675
:1018000000F088F80021284600F084F82146284698
:1018100000F080F80021284600F07CF83146284688
:1018200000F078F80121284600F074F82846BDE859
:1018300070402F2100F06EB870B50C461646054674
:10184000A32100F067F80021284600F063F840214A
:10185000284600F05FF82921284600F05BF80021B7
:10186000284600F057F82146284600F053F800219A
:10187000284600F04FF83146284600F04BF8012189
:10188000284600F047F82846BDE870402F2100F0B8
:1018900041B82E2100F03EB82DE9F04FC3B081468B
:1018A00000250DF1040A4FF00A0B00BF05F1B0004E
:1018B000C1B2484600F02EF80021484600F02AF850
:1018C0001021484600F026F878204190402005EB92
:1018D000451209EB82018427002601F10A088DF8E0
:1018E00004007C1C0AEB060018F806104170CDF8C5
:1018F00000B0234601AAD9F800004199FEF7A6FEE0
:10190000761CBE42EEDB6D1CEDB2082DCED343B08B
:10191000BDE8F08F1CB500228DF804208DF805106D
:101920000A21009178240068022301AA2146FEF7CB
:101930008DFE1CBD7047FEF74DBF30B58FB028211E
:101940006846FEF7F6FB14210AA8FEF7F2FB012118
:101950000804CDE900100024029402250491CDE989
:1019600007504FF4E01009906846FFF799F80F20F0
:10197000CDE90A056802CDE90C4002210AA80E94BF
:10198000FEF7B2FF0FB030BD0D48016841F0010114
:10199000016041680B4A1140416001680A4A1140E8
:1019A0000160016821F480210160416821F4FE0199
:1019B00041604FF41F0181600449C0030860704713
:1019C000001002400000FFF8FFFFF6FE08ED00E007
:1019D0002DE9F84F04460D461548FFF72FFB60062A
:1019E0004FEA106804F1840000F0FF094438C7B2E0
:1019F000002605F0FF0A17E0002510E023462A46DE
:101A000031460B48CDF800A0FFF75AFB0848FFF716
:101A100043FF0A20FEF7ACFB05EB0800C5B2BD4250
:101A2000ECD306EB0800C6B24E45E5D3BDE8F88F0F
:101A30006C0000202DE9F84F044640064FEA10687C
:101A40000D464FF0840940271148FFF7F7FA264664
:101A500005F0FF0A17E0254610E023462A463146E6
:101A60000B48CDF800A0FFF7BDFB0948FFF714FFB6
:101A70000A20FEF77DFB05EB0800C5B2BD42ECD3A2
:101A800006EB0800C6B24E45E5D3BDE8F88F00006E
:101A90006C0000202DE9FC41074641261F250D481A
:101AA000FFF7CCFA40246008291A8AB2301ACDE92F
:101AB000004781B223460748FFF714FC0548FFF7AB
:101AC000EBFE0A20FEF754FBA41F14F0FF04EAD13A
:101AD000BDE8FC816C0000202DE9FC410446604813
:101AE000FFF7ACFA00263F273546CDE900743246B1
:101AF0002B4611465A48FFF720FC0120FEF738FB21
:101B00005748FFF7C9FEAD1DEDB2842DEDD38327F5
:101B10000025CDE9005432463B4611465048FFF7B8
:101B20000CFC0120FEF724FB4D48FFF7B5FEAD1D70
:101B3000EDB2402DEDD30A20FEF71AFB4848FFF71F
:101B40007DFA00264FF083083F273546CDE9007423
:101B50002B46324641464248FFF7EFFB4048FFF72D
:101B60009BFE0120FEF704FBAD1DEDB2842DEDD3ED
:101B700000273D46CDE900543B46324641463848B1
:101B8000FFF7DBFB3648FFF787FE0120FEF7F0FA90
:101B9000AD1DEDB2402DEDD30A20FEF7E9FA304835
:101BA000FFF74CFA4FF000083F2647464546CDE97F
:101BB00000742B46324641462948FFF7BEFB012000
:101BC000FEF7D6FA2648FFF767FEAD1DEDB2842D6D
:101BD000EDD383270025CDE900543B4632464146EC
:101BE0001F48FFF7AAFB0120FEF7C2FA1C48FFF7C7
:101BF00053FEAD1DEDB2402DEDD30A20FEF7B8FA2D
:101C00001748FFF71BFA3F2600274FF083083D4691
:101C1000CDE900742B46324641461148FFF78DFB53
:101C20000120FEF7A5FA0E48FFF736FEAD1DEDB216
:101C3000842DEDD300273D46CDE900543B46324686
:101C400041460748FFF779FB0120FEF791FA044867
:101C5000FFF722FEAD1DEDB2402DEDD3BDE8FC81B6
:101C60006C0000207CB506460E48FFF7E7F94025DA
:101C700002246108C1F1200082B2C1F14200CDE925
:101C8000004681B223460748FFF7FDFB0548FFF7F2
:101C900003FE0A20FEF76CFAA41DE4B2AC42E8D3BE
:101CA0007CBD00006C0000202DE9FF410746412665
:101CB0001F250F48FFF7C2F9002428193119CDE973
:101CC0000207CDE90001301B83B2281B82B23146E6
:101CD0000748FFF717FC0648FFF7DEFD0A20FEF76E
:101CE00047FA641DE4B2AC42E7D3BDE8FF810000CF
:101CF0006C000020FEE70907090E002804DB00F154
:101D0000E02080F80014704700F00F0000F1E020A0
:101D100080F8141D704702E008C8121F08C1002A8D
:101D2000FAD170477047002001E001C1121F002A5C
:101D3000FBD170470EB5FEF755FDFFF7FEFDBB4822
:101D4000816941F020018161816901F020010091E8
:101D5000816941F004018161816901F00401009110
:101D6000816941F0080181618069B14900F0080092
:101D70000090B0484FF480420160AF4941600021BB
:101D80008160C0E9031241618161C1610162FEF7B6
:101D9000F7FAA84901F15400FFF7E1FB01244025BF
:101DA0004FF47A784FF4FA6941F2883A8426012098
:101DB000FFF792FE47464046FEF7DAF90120FFF7AB
:101DC00051FF3846FEF7D4F90120FFF763FE38468D
:101DD000FEF7CEF901210620FFF7FAFD3846FEF79F
:101DE000C7F901210620FFF725FE0120FFF75CFF60
:101DF0003846FEF7BDF98F485430FFF71FF98D487C
:101E0000012211465430FFF7A6FB8A4801238B4A72
:101E10008BA15430FFF785FC86481E220A215430DE
:101E2000FFF799FB83480123844A88A15430FFF7C8
:101E300078FC80485430FFF72FFD4F464846FEF7A8
:101E400097F97C485430FFF7F9F800967948CDE9C6
:101E500001540022804B11465430FFF7F9F87548C1
:101E60005430FFF719FD5046FEF782F971480F22F2
:101E700000215430FFF78EFC3846FEF779F96D48A3
:101E80000F2200215430FFF760FC3846FEF770F94E
:101E900068480F2200215430FFF7CEFC3846FEF789
:101EA00067F964480F2200215430FFF798FC384648
:101EB000FEF75EF95F485430FFF7EBFC5D48012107
:101EC0005430FFF7DEFB3846FEF752F9594800213F
:101ED0005430FFF7D6FB3846FEF74AF90427554839
:101EE0005430FFF7ABF800965248CDE90154002278
:101EF0005A4B11465430FFF7ABF84E485430FFF7B9
:101F0000CBFC4C485430FFF799F800964948CDE98E
:101F100001540022524B11465430FFF799F84548BE
:101F20005430FFF7B9FC43485430FFF787F8009668
:101F30004048CDE9015400224A4B11465430FFF786
:101F400087F83C485430FFF7A7FC3A485430FFF775
:101F500075F800963748CDE901540022424B1146EE
:101F60005430FFF775F833485430FFF795FC31488B
:101F70005430FFF763F800962E48CDE90154002253
:101F80003A4B11465430FFF763F82A485430FFF7B4
:101F900083FC28485430FFF751F800962548CDE9D6
:101FA00001540022324B11465430FFF751F82148BA
:101FB0005430FFF771FC1F485430FFF73FF800968C
:101FC0001C48CDE9015400222A4B11465430FFF73A
:101FD0003FF818485430FFF75FFC16485430FFF7BD
:101FE0002DF800961348CDE901540022224B1146EA
:101FF0005430FFF72DF80F485430FFF74DFC0D48D3
:102000005430FFF71BF800960A48CDE9015400222E
:102010001A4B11465430FFF71BF806485430FFF7AF
:102020003BFC7F1EFFB2BFF45AAFC0E60010024077
:102030000054004018000020801A06000000002014
:102040004B485545204E475559454E002020435298
:102050004541544F5200000080200008C024000871
:1020600000290008402D000880310008C035000814
:10207000003A0008403E000880420008C0460008C0
:102080000000000000000000000000000000000050
:102090000000000000000000000000000000000040
:1020A0000000000000000000000000000000000030
:1020B0000000000000000000000000000000000020
:1020C0000000000000000000000000000000000010
:1020D0000000000000000000000000000000000000
:1020E00000000000000000000000000000000000F0
:1020F00000000000000000000000000000000000E0
:1021000000000000000000000000000000000000CF
:1021100000000000000000000000000000000000BF
:1021200000000000000000000000000000000000AF
:10213000000000000000000000000000000000009F
:1021400007878787879FF0000000000000000000DD
:10215000000FC7878F8F1FF00000000000000000F5
:1021600000000FC78F8F1E3FF0000000000000002E
:102170000000000F8F8F0F1E3FE0000000000000E6
:10218000000000001F8F0F1F3C3C000000000000FB
:1021900000000000001F8F1F1F783C00000000009F
:1021A0000000000000001F9F1F1E787C0000000040
:1021B000000000000000003F9F1E1FF0780000009C
:1021C00000000000000000003F9E3E3FE07800005D
:1021D0000000000000000000003F9E3E3FE0F800CD
:1021E000000000000000000000003FBE3C3FC0FFB8
:1021F00080000000000000000000007FFC3C7FC069
:10220000FF80000000000000000000007FFC7C7FD9
:10221000C0FF80000000000000000000007BFC7C8C
:102220007FC1FF0000000000000000000000FBF87C
:10223000787FC1E00000000000000000000000FB0B
:10224000F8F8FBC1E0000000000000000000000002
:10225000F3F8F8F3C3E00000000000000000000005
:1022600000F3F8F0F3C3C00000C00000000000005D
:102270000011F3F0F1F3C3C000078000000000007C
:10228000000031E3F1F1E3C3C0003E0000000000B4
:1022900000000061E3F1E1E3C7C001F800000000C5
:1022A0000000000063E3E1E3E3C7FE0FC0000000AD
:1022B0000000000000E3E3E3E3E3C7FEFF000000EB
:1022C000000000000001E3C3E3E3C3CFFFFC000014
:1022D00000000000000003C7C3E3C3C3CFFFF0004A
:1022E0000000000000000007C00000000003FFC065
:1022F000000000000000000007C0000000001FFFF9
:102300000000000000000000000FC000000000FFFF
:10231000FC0000000000000000000FC00000000FE3
:10232000FFF00000000000000000001FC0000000DF
:102330007FFFC00000000000000000001FE0000060
:1023400003FFFF000000000000000000003FE0006D
:10235000003FFFFC000000000000000000003FE024
:102360000001FFFFF0000000000000000000007FFF
:10237000F0000FFFFFC000000000000000000000A0
:102380007FF800FFFFFF00000000000000000000D9
:10239000007FFE07FFFFFC000000000000000000BF
:1023A00000007FFFFFFFFFF00000000000000000C2
:1023B000000000FFFFFFFFFFC00000000000000062
:1023C00000000000FFFFFFFFFF0000000000000012
:1023D0000000000000FFFFFFFFFC00000000000005
:1023E000000000000000FFFFFFFFF0000000000001
:1023F000000000000000007FFFFFFFC000000000A1
:1024000000000000000000007FFFFFFF0000000050
:102410000000000000000000007FFFFFFC00000043
:10242000000000000000000000003FFFFFF000007F
:1024300000000000000000000000003FFFFFC0009F
:102440000000000000000000000000001FFFFF006F
:10245000000000000000000000000000000FFFF876
:10246000000000000000000000000000000003FF6A
:10247000C00000000000000000000000000000009C
:10248000000000000000000000000000000000004C
:10249000000000000000000000000000000000003C
:1024A000000000000000000000000000000000002C
:1024B000000000000000000000000000000000001C
:1024C000000000000000000000000000000000000C
:1024D00000000000000000000000000000000000FC
:1024E00000000000000000000000000000000000EC
:1024F00000000000000000000000000000000000DC
:1025000000000000000000000000000000000000CB
:1025100000000000000000000000000000FFC000FC
:10252000000000000000000000000000001FC0705C
:102530000000000000000000000000000000780023
:10254000180000000000000000000000000001C0B2
:102550000006000000000000000000000000000372
:102560000000030000000000000000000000000068
:102570000C000001800000000000000000000000CE
:1025800000180000008000000000000000000000B3
:1025900000001000000040000000000000000000EB
:1025A00000000020000000600000000000000000AB
:1025B000000000004000C3003000000000000000E8
:1025C0000000000000400180C0100000000000007A
:1025D0000000000000008201006018000000000000
:1025E00000000000000000B1020030080000000000
:1025F00000000000000000012082E0100800000040
:102600000000000000000000014084E0080C000011
:10261000000000000000000000018044E008040009
:1026200000000000000000000000013004E004048D
:1026300000000000000000000000000130444004E1
:10264000040000000000000000000000033044000F
:10265000040400000000000000000000000320044B
:10266000000404000000000000000000000003005F
:102670000000000400000000000000000000000353
:1026800000420008040000000000000000000000FC
:102690000300020018040000000000000000000019
:1026A0000003000100100400000000000000000012
:1026B0000000030000806004000000000000000033
:1026C00000000001008043800400000000000000C2
:1026D0000000000001018010000C0000000000005C
:1026E000000000000000830000000800000000005F
:1026F000000000000000014E000000080000000083
:102700000000000000000001300000000800000090
:1027100000000000000000000100000000180000A0
:102720000000000000000000000180000000100018
:1027300000000000000000000000008000000030E9
:10274000000000000000000000000000C0000300C6
:10275000200000000000000000000000004003C056
:102760000040000000000000000000000000601CAD
:102770000000C00000000000000000000000003069
:102780006000018000000000000000000000000068
:102790001000000700000000000000000000000022
:1027A000000C00000E00000000000000000000000F
:1027B00000000600003800000000000000000000DB
:1027C000000000018001E0000000000000000000A7
:1027D0000000000000F81F80000000000000000062
:1027E0000000000000001FFBC0000000000000000F
:1027F000000000000000000003E0000000000000F6
:102800000000000000000000000290000000000036
:102810000000000000000000000006D800000000DA
:102820000000000000000000000000044C00000058
:10283000000000000000000000000000044600004E
:10284000000000000000000000000000000C62001A
:10285000000000000000000000000000000008214F
:102860000000000000000000000000000000000860
:1028700020800000000000000000000000000000B8
:102880001820800000000000000000000000000090
:1028900000103040000000000000000000000000B8
:1028A00000001030200000000000000000000000C8
:1028B0000000003030200000000000000000000098
:1028C00000000000201010000000000000000000C8
:1028D00000000000002010100000000000000000B8
:1028E00000000000000020100800000000000000B0
:1028F0000000000000000060100800000000000060
:1029000000000000000000000000000000000000C7
:1029100000000000000000000000000000000000B7
:1029200000000000000000000000000000000000A7
:102930000000000000000000000000000000000097
:102940000000000000000000000000000000000087
:1029500000000000000000000000000000FFC000B8
:10296000000000000000000000000000001FC07018
:1029700000000000000000000000000000007800DF
:10298000180000000000000000000000000001C06E
:10299000000600000000000000000000000000032E
:1029A0000000030000000000000000000000000024
:1029B0000C0000018000000000000000000000008A
:1029C000001800000080000000000000000000006F
:1029D00000001000000040000000000000000000A7
:1029E0000000002000000060000000000000000067
:1029F0000000000040003B0030000000000000002C
:102A000000000000004000E0C010000000000000D6
:102A1000000000000000800180601800000000003D
:102A2000000000000000008F0200300800000000DD
:102A300000000000000000012082E01008000000FB
:102A40000000000000000000014084E0080C0000CD
:102A5000000000000000000000018044E0080400C5
:102A600000000000000000000000013004E0040449
:102A7000000000000000000000000001304440049D
:102A800004000000000000000000000003304400CB
:102A900000040000000000000000000000032044CB
:102AA000000404000000000000000000000003001B
:102AB000000000040000000000000000000000030F
:102AC00000420008040000000000000000000000B8
:102AD00003000200380400000000000000000000B5
:102AE0000003000101E004000000000000000000FD
:102AF00000000300008C0004000000000000000043
:102B000000000001008070000400000000000000D0
:102B100000000000010F0000000C00000000000099
:102B2000000000000000F0000000080000000000AD
:102B3000000000000000014000000008000000004C
:102B4000000000000000000100000000080000007C
:102B5000000000000000000001000000001800005C
:102B600000000000000000000001800000001000D4
:102B700000000000000000000000008000000030A5
:102B8000000000000000000000000000C000000085
:102B9000200000000000000000000000004001C014
:102BA0000040000000000000000000000000601C69
:102BB0000000C00000000000000000000000003025
:102BC0006000018000000000000000000000000024
:102BD00010000007000000000000000000000000DE
:102BE000000800000E0000000000000000000000CF
:102BF0000000060000380000000000000000000097
:102C0000000000018001E000000000000000000062
:102C10000000000000F81F8000000000000000001D
:102C20000000000000001FFBC000000000000000CA
:102C3000000000000000000003E0000000000000B1
:102C400000000000000000000002900000000000F2
:102C50000000000000000000000006D80000000096
:102C60000000000000000000000000044C00000014
:102C7000000000000000000000000000044600000A
:102C8000000000000000000000000000000C6200D6
:102C9000000000000000000000000000000008210B
:102CA000000000000000000000000000000000081C
:102CB0002080000000000000000000000000000074
:102CC000182080000000000000000000000000004C
:102CD0000010304000000000000000000000000074
:102CE0000000103020000000000000000000000084
:102CF0000000003030200000000000000000000054
:102D00000000000020101000000000000000000083
:102D10000000000000201010000000000000000073
:102D2000000000000000201008000000000000006B
:102D3000000000000000006010080000000000001B
:102D40000000000000000000000000000000000083
:102D50000000000000000000000000000000000073
:102D60000000000000000000000000000000000063
:102D70000000000000000000000000000000000053
:102D80000000000000000000000000000000000043
:102D900000000000000000000000000000FFC00074
:102DA000000000000000000000000000001FC070D4
:102DB000000000000000000000000000000078009B
:102DC000180000000000000000000000000001C02A
:102DD00000060000000000000000000000000003EA
:102DE00000000300000000000000000000000000E0
:102DF0000C00000180000000000000000000000046
:102E0000001800000080000000000000000000002A
:102E10000000100000004000000000000000000062
:102E20000000002000000060000000000000000022
:102E30000000000040000000300000000000000022
:102E40000000000000400000C01000000000000072
:102E500000000000000080000E601800000000006C
:102E6000000000000000008000601008000000006A
:102E700000000000000000010003E0100800000056
:102E80000000000000000000010E06E0080C000039
:102E9000000000000000000000017044E008040091
:102EA00000000000000000000000013044E00404C5
:102EB0000000000000000000000000033044400457
:102EC00004000000000000000000000003300400C7
:102ED00004040000000000000000000000032004C3
:102EE000000C0400000000000000000000000300CF
:102EF0000003E004000000000000000000000003E8
:102F000000021C000400000000000000000000009F
:102F10000300426000040000000000000000000008
:102F200000033FC18000040000000000000000001A
:102F3000000003C0000000040000000000000000CA
:102F4000000000010000000004000000000000007C
:102F50000000000002000000000C00000000000063
:102F60000000000000010000000008000000000058
:102F70000000000000000100000000080000000048
:102F80000000000000000001000000000800000038
:102F90000000000000000000010000000018000018
:102FA0000000000000000000000180000000100090
:102FB0000000000000000000000000800000003061
:102FC000000000000000000000000000C00003003E
:102FD000200000000000000000000000004003800E
:102FE0000040000000000000000000000000601829
:102FF0000000C000000000000000000000000030E1
:1030000060000180000000000000000000000000DF
:103010001000000700000000000000000000000099
:10302000000800000E00000000000000000000008A
:103030000000060000380000000000000000000052
:10304000000000018001E00000000000000000001E
:103050000000000000F81F800000000000000000D9
:103060000000000000001FFBC00000000000000086
:10307000000000000000000003E00000000000006D
:1030800000000000000000000002900000000000AE
:103090000000000000000000000006D80000000052
:1030A0000000000000000000000000044C000000D0
:1030B00000000000000000000000000004460000C6
:1030C000000000000000000000000000000C620092
:1030D00000000000000000000000000000000821C7
:1030E00000000000000000000000000000000008D8
:1030F0002080000000000000000000000000000030
:103100001820800000000000000000000000000007
:10311000001030400000000000000000000000002F
:10312000000010302000000000000000000000003F
:10313000000000303020000000000000000000000F
:10314000000000002010100000000000000000003F
:10315000000000000020101000000000000000002F
:103160000000000000002010080000000000000027
:1031700000000000000000601008000000000000D7
:10318000000000000000000000000000000000003F
:10319000000000000000000000000000000000002F
:1031A000000000000000000000000000000000001F
:1031B000000000000000000000000000000000000F
:1031C00000000000000000000000000000000000FF
:1031D00000000000000000000000000000FFC00030
:1031E000000000000000000000000000001FC07090
:1031F0000000000000000000000000000000780057
:10320000180000000000000000000000000001C0E5
:1032100000060000000000000000000000000003A5
:10322000000003000000000000000000000000009B
:103230000C00000180000000000000000000000001
:1032400000180000008000000000000000000000E6
:10325000000010000000400000000000000000001E
:1032600000000020000000600000000000000000DE
:1032700000000000400000003000000000000000DE
:1032800000000000004000000010000000000000EE
:103290000000000000008000000018000000000096
:1032A00000000000000000800001F00800000000A5
:1032B000000000000000000100001E1808000000CF
:1032C0000000000000000000010000F0080C0000F9
:1032D000000000000000000000010003E0080400FE
:1032E0000000000000000000000001FFC4E0040432
:1032F0000000000000000000000000033044403CDB
:10330000040000000000000000000000033004077B
:10331000E0040000000000000000000000030004C2
:10332000380004000000000000000000000003035B
:1033300043800004000000000000000000000003C3
:10334000FC0200000400000000000000000000007B
:103350000300000000040000000000000000000066
:103360000002000000000400000000000000000057
:103370000000020000000004000000000000000047
:103380000000000200000000040000000000000037
:103390000000000002000000000C0000000000001F
:1033A0000000000000010000000008000000000014
:1033B0000000000000000100000000080000000004
:1033C00000000000000000010000000008000000F4
:1033D00000000000000000000100000000180000D4
:1033E000000000000000000000018000000010004C
:1033F000000000000000000000000080000000301D
:10340000000000000000000000000000C0000300F9
:10341000200000000000000000000000004003C089
:103420000040000000000000000000000000601CE0
:103430000000C0000000000000000000000000309C
:10344000600001800000000000000000000000009B
:103450001000000700000000000000000000000055
:10346000000800000E000000000000000000000046
:10347000000006000038000000000000000000000E
:10348000000000018001E0000000000000000000DA
:103490000000000000F81F80000000000000000095
:1034A0000000000000001FFBC00000000000000042
:1034B000000000000000000003E000000000000029
:1034C000000000000000000000029000000000006A
:1034D0000000000000000000000006D8000000000E
:1034E0000000000000000000000000044C0000008C
:1034F0000000000000000000000000000446000082
:10350000000000000000000000000000000C62004D
:103510000000000000000000000000000000082182
:103520000000000000000000000000000000000893
:1035300020800000000000000000000000000000EB
:1035400018208000000000000000000000000000C3
:1035500000103040000000000000000000000000EB
:1035600000001030200000000000000000000000FB
:1035700000000030302000000000000000000000CB
:1035800000000000201010000000000000000000FB
:1035900000000000002010100000000000000000EB
:1035A00000000000000020100800000000000000E3
:1035B0000000000000000060100800000000000093
:1035C00000000000000000000000000000000000FB
:1035D00000000000000000000000000000000000EB
:1035E00000000000000000000000000000000000DB
:1035F00000000000000000000000000000000000CB
:1036000000000000000000000000000000000000BA
:1036100000000000000000000000000000FFC000EB
:10362000000000000000000000000000001FC0704B
:103630000000000000000000000000000000780012
:10364000180000000000000000000000000001C0A1
:103650000006000000000000000000000000000361
:103660000000030000000000000000000000000057
:103670000C000001800000000000000000000000BD
:1036800000180000008000000000000000000000A2
:1036900000001000000040000000000000000000DA
:1036A000000000200000006000000000000000009A
:1036B000000000004000000030000000000000009A
:1036C00000000000004000000010000000000000AA
:1036D0000000000000008000000018000000000052
:1036E0000000000000000080000000080000000052
:1036F00000000000000000010000000008000000C1
:10370000000000000000000001000000300C00007C
:10371000000000000000000000010000060004009E
:103720000000000000000000000003000060000432
:103730000000000000000000000000020001800006
:10374000040000000000000000000000037FC6002D
:103750000004000000000000000000000003000062
:103760000000040000000000000000000000020053
:103770000000000400000000000000000000000243
:103780000000000004000000000000000000000035
:103790000200000000040000000000000000000023
:1037A0000002000000000400000000000000000013
:1037B0000000020000000004000000000000000003
:1037C00000000002000000000400000000000000F3
:1037D0000000000002000000000C000000000000DB
:1037E00000000000000100000000080000000000D0
:1037F00000000000000001000000000800000000C0
:1038000000000000000000010000000008000000AF
:10381000000000000000000001000000001800008F
:103820000000000000000000000180000000100007
:1038300000000000000000000000008000000030D8
:10384000000000000000000000000000C0000F00A9
:103850002000000000000000000000000040038085
:1038600000400000000000000000000000006018A0
:103870000000C00000000000000000000000003058
:103880006000018000000000000000000000000057
:103890001000000700000000000000000000000011
:1038A000000800000E000000000000000000000002
:1038B00000000600003800000000000000000000CA
:1038C000000000018001E000000000000000000096
:1038D0000000000000F81F80000000000000000051
:1038E0000000000000001FFBC000000000000000FE
:1038F000000000000000000003E0000000000000E5
:103900000000000000000000000290000000000025
:103910000000000000000000000006D800000000C9
:103920000000000000000000000000044C00000047
:10393000000000000000000000000000044600003D
:10394000000000000000000000000000000C620009
:10395000000000000000000000000000000008213E
:10396000000000000000000000000000000000084F
:1039700020800000000000000000000000000000A7
:10398000182080000000000000000000000000007F
:1039900000103040000000000000000000000000A7
:1039A00000001030200000000000000000000000B7
:1039B0000000003030200000000000000000000087
:1039C00000000000201010000000000000000000B7
:1039D00000000000002010100000000000000000A7
:1039E000000000000000201008000000000000009F
:1039F000000000000000006010080000000000004F
:103A000000000000000000000000000000000000B6
:103A100000000000000000000000000000000000A6
:103A20000000000000000000000000000000000096
:103A30000000000000000000000000000000000086
:103A40000000000000000000000000000000000076
:103A500000000000000000000000000000FFC000A7
:103A6000000000000000000000000000001FC07007
:103A700000000000000000000000000000007800CE
:103A8000180000000000000000000000000001C05D
:103A9000000600000000000000000000000000031D
:103AA0000000030000000000000000000000000013
:103AB0000C00000180000000000000000000000079
:103AC000001800000080000000000000000000005E
:103AD0000000100000004000000000000000000096
:103AE0000000002000000060000000000000000056
:103AF0000000000040000000300000000000000056
:103B00000000000000400000001000000000000065
:103B1000000000000000800000001800000000000D
:103B200000000000000000800001F008000000001C
:103B3000000000000000000100001E180800000046
:103B40000000000000000000010000F0080C000070
:103B5000000000000000000000010003E008040075
:103B60000000000000000000000001FFC4E00404A9
:103B70000000000000000000000000033044403C52
:103B800004000000000000000000000003300407F3
:103B9000E00400000000000000000000000300043A
:103BA00038000400000000000000000000000303D3
:103BB000438000040000000000000000000000033B
:103BC000FC020000040000000000000000000000F3
:103BD00003000000000400000000000000000000DE
:103BE00000020000000004000000000000000000CF
:103BF00000000200000000040000000000000000BF
:103C000000000002000000000400000000000000AE
:103C10000000000002000000000C00000000000096
:103C2000000000000001000000000800000000008B
:103C3000000000000000010000000008000000007B
:103C4000000000000000000100000000080000006B
:103C5000000000000000000001000000001800004B
:103C600000000000000000000001800000001000C3
:103C70000000000000000000000000800000003094
:103C8000000000000000000000000000C000030071
:103C9000200000000000000000000000004003C001
:103CA0000040000000000000000000000000601C58
:103CB0000000C00000000000000000000000003014
:103CC0006000018000000000000000000000000013
:103CD00010000007000000000000000000000000CD
:103CE000000800000E0000000000000000000000BE
:103CF0000000060000380000000000000000000086
:103D0000000000018001E000000000000000000051
:103D10000000000000F81F8000000000000000000C
:103D20000000000000001FFBC000000000000000B9
:103D3000000000000000000003E0000000000000A0
:103D400000000000000000000002900000000000E1
:103D50000000000000000000000006D80000000085
:103D60000000000000000000000000044C00000003
:103D700000000000000000000000000004460000F9
:103D8000000000000000000000000000000C6200C5
:103D900000000000000000000000000000000821FA
:103DA000000000000000000000000000000000080B
:103DB0002080000000000000000000000000000063
:103DC000182080000000000000000000000000003B
:103DD0000010304000000000000000000000000063
:103DE0000000103020000000000000000000000073
:103DF0000000003030200000000000000000000043
:103E00000000000020101000000000000000000072
:103E10000000000000201010000000000000000062
:103E2000000000000000201008000000000000005A
:103E3000000000000000006010080000000000000A
:103E40000000000000000000000000000000000072
:103E50000000000000000000000000000000000062
:103E60000000000000000000000000000000000052
:103E70000000000000000000000000000000000042
:103E80000000000000000000000000000000000032
:103E900000000000000000000000000000FFC00063
:103EA000000000000000000000000000001FC070C3
:103EB000000000000000000000000000000078008A
:103EC000180000000000000000000000000001C019
:103ED00000060000000000000000000000000003D9
:103EE00000000300000000000000000000000000CF
:103EF0000C00000180000000000000000000000035
:103F00000018000000800000000000000000000019
:103F10000000100000004000000000000000000051
:103F20000000002000000060000000000000000011
:103F30000000000040000000300000000000000011
:103F40000000000000400000C01000000000000061
:103F500000000000000080000E601800000000005B
:103F60000000000000000080006010080000000059
:103F700000000000000000010003E0100800000045
:103F80000000000000000000010E06E0080C000028
:103F9000000000000000000000017044E008040080
:103FA00000000000000000000000013044E00404B4
:103FB0000000000000000000000000033044400446
:103FC00004000000000000000000000003300400B6
:103FD00004040000000000000000000000032004B2
:103FE000000C0400000000000000000000000300BE
:103FF0000003E004000000000000000000000003D7
:1040000000021C000400000000000000000000008E
:1040100003004260000400000000000000000000F7
:1040200000033FC180000400000000000000000009
:10403000000003C0000000040000000000000000B9
:10404000000000010000000004000000000000006B
:104050000000000002000000000C00000000000052
:104060000000000000010000000008000000000047
:104070000000000000000100000000080000000037
:104080000000000000000001000000000800000027
:104090000000000000000000010000000018000007
:1040A000000000000000000000018000000010007F
:1040B0000000000000000000000000800000003050
:1040C000000000000000000000000000C00003002D
:1040D00020000000000000000000000000400380FD
:1040E0000040000000000000000000000000601818
:1040F0000000C000000000000000000000000030D0
:1041000060000180000000000000000000000000CE
:104110001000000700000000000000000000000088
:10412000000800000E000000000000000000000079
:104130000000060000380000000000000000000041
:10414000000000018001E00000000000000000000D
:104150000000000000F81F800000000000000000C8
:104160000000000000001FFBC00000000000000075
:10417000000000000000000003E00000000000005C
:10418000000000000000000000029000000000009D
:104190000000000000000000000006D80000000041
:1041A0000000000000000000000000044C000000BF
:1041B00000000000000000000000000004460000B5
:1041C000000000000000000000000000000C620081
:1041D00000000000000000000000000000000821B6
:1041E00000000000000000000000000000000008C7
:1041F000208000000000000000000000000000001F
:1042000018208000000000000000000000000000F6
:10421000001030400000000000000000000000001E
:10422000000010302000000000000000000000002E
:1042300000000030302000000000000000000000FE
:10424000000000002010100000000000000000002E
:10425000000000000020101000000000000000001E
:104260000000000000002010080000000000000016
:1042700000000000000000601008000000000000C6
:10428000000000000000000000000000000000002E
:10429000000000000000000000000000000000001E
:1042A000000000000000000000000000000000000E
:1042B00000000000000000000000000000000000FE
:1042C00000000000000000000000000000000000EE
:1042D00000000000000000000000000000FFC0001F
:1042E000000000000000000000000000001FC0707F
:1042F0000000000000000000000000000000780046
:10430000180000000000000000000000000001C0D4
:104310000006000000000000000000000000000394
:10432000000003000000000000000000000000008A
:104330000C000001800000000000000000000000F0
:1043400000180000008000000000000000000000D5
:10435000000010000000400000000000000000000D
:1043600000000020000000600000000000000000CD
:104370000000000040003F0030000000000000008E
:1043800000000000004000E0C0100000000000003D
:1043900000000000000080018060180000000000A4
:1043A000000000000000008F020010080000000064
:1043B00000000000000000012082E0100800000062
:1043C0000000000000000000014044E0080C000074
:1043D000000000000000000000010044E0080400AC
:1043E00000000000000000000000013044E0040470
:1043F00000000000000000000000000330446004E2
:104400000400000000000000000000000330040071
:10441000040400000000000000000000000320046D
:104420000004040000000000000000000000030081
:10443000020004040000000000000000000000036F
:10444000000200080400000000000000000000005E
:10445000030000001804000000000000000000003D
:104460000003000101E00400000000000000000063
:1044700000000300408E0004000000000000000067
:104480000000000100807000040000000000000037
:1044900000000000010F0000000C00000000000000
:1044A0000000000000007000000008000000000094
:1044B00000000000000001400000000800000000B3
:1044C00000000000000000010000000008000000E3
:1044D00000000000000000000100000000180000C3
:1044E000000000000000000000018000000010003B
:1044F000000000000000000000000080000000300C
:10450000000000000000000000000000C0000000EB
:10451000200000000000000000000000004001C07A
:104520000040000000000000000000000000601CCF
:104530000000C0000000000000000000000000308B
:10454000600001800000000000000000000000008A
:104550001000000700000000000000000000000044
:10456000000800000E000000000000000000000035
:1045700000000600003800000000000000000000FD
:10458000000000018001E0000000000000000000C9
:104590000000000000F81F80000000000000000084
:1045A0000000000000001FFBC00000000000000031
:1045B000000000000000000003E000000000000018
:1045C0000000000000000000000290000000000059
:1045D0000000000000000000000006D800000000FD
:1045E0000000000000000000000000044C0000007B
:1045F0000000000000000000000000000446000071
:10460000000000000000000000000000000C62003C
:104610000000000000000000000000000000082171
:104620000000000000000000000000000000000882
:1046300020800000000000000000000000000000DA
:1046400018208000000000000000000000000000B2
:1046500000103040000000000000000000000000DA
:1046600000001030200000000000000000000000EA
:1046700000000030302000000000000000000000BA
:1046800000000000201010000000000000000000EA
:1046900000000000002010100000000000000000DA
:1046A00000000000000020100800000000000000D2
:1046B0000000000000000060100800000000000082
:1046C00000000000000000000000000000000000EA
:1046D00000000000000000000000000000000000DA
:1046E00000000000000000000000000000000000CA
:1046F00000000000000000000000000000000000BA
:1047000000000000000000000000000000000000A9
:1047100000000000000000000000000000FFC000DA
:10472000000000000000000000000000001FC0703A
:104730000000000000000000000000000000780001
:10474000180000000000000000000000000001C090
:104750000006000000000000000000000000000350
:104760000000030000000000000000000000000046
:104770000C000001800000000000000000000000AC
:104780000018000000800000000000000000000091
:1047900000001000000040000000000000000000C9
:1047A0000000002000000060000000000000000089
:1047B000000000004000C3003000000000000000C6
:1047C0000000000000400180C01000000000000058
:1047D00000000000000082010060180000000000DE
:1047E00000000000000000B10200300800000000DE
:1047F00000000000000000012082E010080000001E
:104800000000000000000000014084E0080C0000EF
:10481000000000000000000000018044E0080400E7
:1048200000000000000000000000013004E004046B
:1048300000000000000000000000000130444004BF
:1048400004000000000000000000000003304400ED
:104850000404000000000000000000000003200429
:10486000000404000000000000000000000003003D
:104870000000000400000000000000000000000331
:1048800000420008040000000000000000000000DA
:1048900003000200180400000000000000000000F7
:1048A00000030001001004000000000000000000F0
:1048B0000000030000806004000000000000000011
:1048C00000000001008043800400000000000000A0
:1048D0000000000001018010000C0000000000003A
:1048E000000000000000830000000800000000003D
:1048F000000000000000014E000000080000000061
:10490000000000000000000130000000080000006E
:10491000000000000000000001000000001800007E
:1049200000000000000000000001800000001000F6
:1049300000000000000000000000008000000030C7
:10494000000000000000000000000000C0000300A4
:10495000200000000000000000000000004001C036
:104960000040000000000000000000000000601C8B
:104970000000C00000000000000000000000003047
:104980006000018000000000000000000000000046
:104990001000000700000000000000000000000000
:1049A000000C00000E0000000000000000000000ED
:1049B00000000600003800000000000000000000B9
:1049C000000000018001E000000000000000000085
:1049D0000000000000F81F80000000000000000040
:1049E0000000000000001FFBC000000000000000ED
:1049F000000000000000000003E0000000000000D4
:104A00000000000000000000000290000000000014
:104A10000000000000000000000006D800000000B8
:104A20000000000000000000000000044C00000036
:104A3000000000000000000000000000044600002C
:104A4000000000000000000000000000000C6200F8
:104A5000000000000000000000000000000008212D
:104A6000000000000000000000000000000000083E
:104A70002080000000000000000000000000000096
:104A8000182080000000000000000000000000006E
:104A90000010304000000000000000000000000096
:104AA00000001030200000000000000000000000A6
:104AB0000000003030200000000000000000000076
:104AC00000000000201010000000000000000000A6
:104AD0000000000000201010000000000000000096
:104AE000000000000000201008000000000000008E
:104AF000000000000000006010080000000000003E
:104B000000000000000000000000000000000000A5
:104B10000000000000000000000000000000000095
:104B2000000000000000000C000C000C000C000C49
:104B3000000C000C000C000C000C000C0000000C21
:104B4000000C0000000000000000001B001B001B08
:104B5000001B001B0000000000000000000000001F
:104B600000000000000000000000000000008019AC
:104B7000801980198019C07FC07F80190033C07FE1
:104B8000C07F00330033003300330000000000001A
:104B90000000001E003F807580650074003C001E10
:104BA00000078005806580658075003F001E000459
:104BB000000400000000007000D840D8C0D880D9A0
:104BC00000730006000C801BC036C066C046C006DD
:104BD00080030000000000000000001E003F0033C2
:104BE00000330033001E000CC03CC066806380614F
:104BF0008063C03E801C0000000000000000000C2C
:104C0000000C000C000C000C000000000000000074
:104C10000000000000000000000000000000000094
:104C2000800000010003000600060004000C000CD8
:104C3000000C000C000C000C000400060006000331
:104C400000018000002000100018000C000C00047F
:104C50000006000600060006000600060004000C20
:104C6000000C0018001000200000000C002D003F78
:104C7000001E0033000000000000000000000000E3
:104C80000000000000000000000000000000000024
:104C90000000000C000C000C000CC0FFC0FF000C5A
:104CA000000C000C000C00000000000000000000E0
:104CB00000000000000000000000000000000000F4
:104CC00000000000000000000000000C000C0004C8
:104CD00000040008000000000000000000000000C8
:104CE000000000000000001E001E00000000000088
:104CF00000000000000000000000000000000000B4
:104D000000000000000000000000000000000000A3
:104D10000000000C000C0000000000000000000378
:104D2000000300030006000600060006000C000C4D
:104D3000000C000C00180018001800000000000013
:104D40000000001E003F0033806180618061806D43
:104D5000806D8061806180610033003F001E000033
:104D60000000000000000006000E001E00360026B5
:104D70000006000600060006000600060006000603
:104D800000060000000000000000001E003F8073CD
:104D900080618061800100030006000C0018003073
:104DA0000060807F807F0000000000000000001C89
:104DB000003E006300630003000E000E000380014C
:104DC000800180618073003F001E00000000000031
:104DD00000000006000E000E001E001E0016003629
:104DE00000360066807F807F000600060006000017
:104DF000000000000000007F007F00600060006095
:104E0000006E007F80638001800180618073003FBD
:104E1000001E0000000000000000001E003F803364
:104E200080610060006E007F8073806180618061BE
:104E30008033003F001E0000000000000000807F63
:104E4000807F80010003000300060006000C000CB8
:104E5000000C0008001800180018000000000000F6
:104E60000000001E003F8063806180610021001E01
:104E7000003F8061806180618061003F001E000012
:104E8000000000000000001E003F00738061806190
:104E900080618073803F801D800180610073003FCE
:104EA000001E0000000000000000000000000000E4
:104EB0000000000C000C00000000000000000000DA
:104EC0000000000C000C00000000000000000000CA
:104ED0000000000000000000000C000C00000000BA
:104EE000000000000000000C000C0004000400089A
:104EF000000000000000000080008003000E003869
:104F000000600038000E80038000000000000000F8
:104F10000000000000000000000000000000807F92
:104F2000807F00000000807F807F00000000000084
:104F30000000000000000000000000000000000071
:104F400000400070001C000780010007001C00707A
:104F50000040000000000000000000000000001FF2
:104F6000803FC071C060C000C00180030007000E18
:104F7000000C000C0000000C000C00000000000001
:104F80000000001E003F803180718063806F806D63
:104F9000806D806F806700600032003E001C000062
:104FA000000000000000000E000E001B001B001B94
:104FB000001B80318031803F803F8031C060C06005
:104FC000C0600000000000000000007C007E006364
:104FD000006300630063007E007E00638061806187
:104FE0008063007F007E0000000000000000001EC3
:104FF000003F803180610060006000600060006000
:10500000006080618031003F001E00000000000051
:105010000000007C007F00638063806180618061AC
:1050200080618061806100630063007E007C00001D
:10503000000000000000807F807F00600060006052
:105040000060007F007F0060006000600060807F83
:10505000807F0000000000000000807F807F0060F3
:10506000006000600060007F007F00600060006002
:105070000060006000600000000000000000001EF2
:10508000003F803180610060006000608063806369
:10509000806180618031803F001E000000000000C0
:1050A0000000806180618061806180618061807FBB
:1050B000807F8061806180618061806180610000AB
:1050C000000000000000003F003F000C000C000C3E
:1050D000000C000C000C000C000C000C000C003F3D
:1050E000003F0000000000000000800180018001FE
:1050F00080018001800180018001800180618061E8
:105100008073003F001E0000000000000000C0602F
:105110008061006300660066006C0078007C0066B9
:105120000066006380618061C060000000000000D4
:1051300000000060006000600060006000600060CF
:1051400000600060006000600060807F807F000081
:10515000000000000000C071C071C07BC07AC06A4E
:10516000C06AC06EC064C060C060C060C060C06023
:10517000C060000000000000000080718071807934
:1051800080798079806D806D806D806580678067B3
:105190008067806380630000000000000000001E44
:1051A000003F003380618061806180618061806147
:1051B000806180610033003F001E0000000000009D
:1051C0000000007E007F8063806180618061806379
:1051D000007F007E006000600060006000600000F2
:1051E000000000000000001E003F0033806180616D
:1051F0008061806180618061806580670033803F6D
:10520000401E0000000000000000007E007F806360
:10521000806180618063007F007E006600630063C0
:1052200080618061C0600000000000000000000E8E
:10523000001F8031803100300038001E00078003DD
:10524000806180618031003F001E0000000000008E
:105250000000C0FFC0FF000C000C000C000C000C94
:10526000000C000C000C000C000C000C000C0000EA
:1052700000000000000080618061806180618061C9
:105280008061806180618061806180618073003FA6
:10529000001E0000000000000000C060C060C06090
:1052A000803180318031001B001B001B001B000E71
:1052B000000E000E00040000000000000000C0C04E
:1052C000C0C0C0C0C0C0C0C0C0CC804C804C805EDC
:1052D0008052805280738061806100000000000075
:1052E0000000C0C0806080610033003B001E000CE5
:1052F000000C001E001F003B80718061C0C00000D8
:10530000000000000000C0C08061806100330033F5
:10531000001E001E000C000C000C000C000C000C09
:10532000000C0000000000000000803F803F800172
:10533000000300030006000C000C001800180030E9
:105340000060807F807F000000000000000F000FE1
:10535000000C000C000C000C000C000C000C000CED
:10536000000C000C000C000C000C000C000F000FD7
:105370000000001800180018000C000C000C000CB5
:1053800000060006000600060003000300030000FC
:1053900000000000001E001E0006000600060006B9
:1053A00000060006000600060006000600060006CD
:1053B00000060006001E001E0000000C000C001E6F
:1053C00000120033003380618061000000000000A3
:1053D00000000000000000000000000000000000CD
:1053E00000000000000000000000000000000000BD
:1053F000000000000000000000000000E0FF0000CE
:10540000000000380018000C000000000000000040
:10541000000000000000000000000000000000008C
:105420000000000000000000000000000000001F5D
:10543000803F80618001801F803F80618063807F2A
:10544000C038000000000000000000600060006044
:105450000060006E007F8073806180618061806188
:105460008073007F006E000000000000000000005C
:10547000000000000000001E003F8073806100609B
:10548000006080618073003F001E0000000000008B
:1054900000008001800180018001801D803F8073B9
:1054A00080618061806180618073803F801D000029
:1054B0000000000000000000000000000000001ECE
:1054C000003F00738061807F807F00608071003FBB
:1054D000001E0000000000000000C007C00F000C0C
:1054E000000C807F807F000C000C000C000C000C76
:1054F000000C000C000C0000000000000000000088
:1055000000000000801D803F8073806180618061A9
:1055100080618073803F801D80018063007F003E3A
:1055200000000060006000600060006F807F80719C
:105530008061806180618061806180618061000044
:105540000000000000000006000600000000003E11
:10555000003E0006000600060006000600060006E3
:105560000006000000000000000600060000000029
:10557000003E003E0006000600060006000600068B
:105580000006000600060046007E003C00000060A9
:10559000006000600060806100630066006C007C59
:1055A0000076006300638061C060000000000000BE
:1055B0000000003E003E0006000600060006000651
:1055C00000060006000600060006000600060000B1
:1055D000000000000000000000000000000080DD6E
:1055E000C0FFC0CEC0CCC0CCC0CCC0CCC0CCC0CC26
:1055F000C0CC00000000000000000000000000001F
:105600000000006F807F80718061806180618061B7
:1056100080618061806100000000000000000000E7
:10562000000000000000001E003F80738061806168
:10563000806180618073003F001E00000000000058
:105640000000000000000000006E007F8073806199
:105650008061806180618073007F006E0060006007
:10566000006000600000000000000000801D803F1E
:10567000807380618061806180618073803F801D64
:105680008001800180018001000000000000000016
:1056900000000067803F00390030003000300030EB
:1056A000003000300030000000000000000000006A
:1056B000000000000000001E803F80610060007F4D
:1056C000803F80018061007F001E0000000000001C
:1056D00000000000000800180018007F007F00187C
:1056E00000180018001800180018801F800F000014
:1056F00000000000000000000000000000008061C9
:105700008061806180618061806180618063807F71
:10571000803D0000000000000000000000000000CC
:105720000000C060803180318031001B001B001BF5
:10573000000E000E00060000000000000000000047
:1057400000000000000080DD80DD80DD0055005598
:1057500000550077007700220022000000000000C2
:1057600000000000000000000000806100330033F2
:10577000001E000C000C001E00330033806100008E
:105780000000000000000000000000008061806157
:10579000803100330033001B001B001B000E000E85
:1057A000000E001C007C00700000000000000000E3
:1057B0000000C07FC07F800100030006000C0018BD
:1057C0000030C07FC07F0000000000008003800721
:1057D00000060006000600060006000E001C001C65
:1057E000000E000600060006000600068007800383
:1057F0000006000600060006000600060006000679
:105800000006000600060006000600060006000668
:10581000000600060038003C000C000C000C000CD8
:10582000000C000E00070007000E000C000C000C1E
:10583000000C000C003C00380000000000000000DC
:105840000000000000008038807F0047000000005A
:105850000000000000000000000000000000000048
:105860000000000001020304060708090000000010
:1058700001020304945800080000002018000000F2
:10588000161D0008AC580008180000208008000011
:10589000261D00080B120000004B0008010000004C
:0C58A00010000000000000000024F400D4
:04000005080000ED02
:00000001FF
