:020000040800F2
:100000000805002001010008870F0008DD0E000828
:10001000850F00086D01000865150008000000004C
:10002000000000000000000000000000151400089F
:100030007D01000800000000890F00081714000867
:100040001B0100081B0100081B0100081B01000820
:100050001B0100081B0100081B0100081B01000810
:100060001B0100081B0100081B0100081B01000800
:100070001B010008710100081B0100081B0100089A
:100080001B0100081B0100081B0100081B010008E0
:100090001B0100081B0100081B0100081B010008D0
:1000A0001B0100081B0100081B0100081B010008C0
:1000B0001B0100081B0100081B0100081B010008B0
:1000C0001B0100081B0100081B0100081B010008A0
:1000D0001B0100081B0100081B0100081B01000890
:1000E0001B0100081B0100081B010008DFF80CD0F1
:1000F00000F02AF800480047A51500080805002070
:100100000648804706480047FEE7FEE7FEE7FEE7B1
:10011000FEE7FEE7FEE7FEE7FEE7FEE76514000800
:10012000ED000008D2B201E000F8012B491EFBD21D
:1001300070470022F6E710B513460A4604461946F2
:10014000FFF7F0FF204610BD064C074D06E0E068C3
:1001500040F0010394E8070098471034AC42F6D30E
:10016000FFF7C8FF5CE100087CE10008FEE7000043
:10017000014800F005B80000C0000020704770473B
:100180002DE9F05FC16B0C6801680B68D0F840C0C6
:10019000042202FA0CF2494DDFF824A1494E4A4FDD
:1001A000DFF828B1DFF828E122422CD05A072AD5FF
:1001B0000A68920603D40A6822F004020A60016801
:1001C000A94201D1042219E0514501D1402215E094
:1001D000B14202D14FF4806210E0B94202D14FF433
:1001E00080420BE0594502D14FF4802206E0714570
:1001F00002D14FF4800201E04FF080622F490839AC
:100200004A60C16A3BE04FF0020808FA0CF818EAAD
:10021000040F4FF000094FF0010235D05FEA8378F8
:1002200032D50B689B0605D40B6823F00A030B60DC
:1002300080F821200168A94201D1022219E051452C
:1002400001D1202215E0B14202D14FF4007210E03A
:10025000B94202D14FF400520BE0594502D14FF49C
:10026000003206E0714502D14FF4001201E04FF078
:100270000072124908394A6080F82090816A00298A
:100280001AD0BDE8F05F0847082505FA0CF52542AD
:1002900012D01B0710D50B6823F00E030B6090F8EB
:1002A0004010C36B02FA01F15960826380F821208B
:1002B00080F82090016BE2E7BDE8F09F0800024063
:1002C0001C0002403000024044000240580002403E
:1002D0006C00024030B528B308C8134914221944F1
:1002E000B1FBF2F18900C1631049816302214177BA
:1002F0001A6843F6F0718A43D0E900142143D0E92B
:1003000002452C4321430469214344692143846904
:100310002143114319600021416301224277017793
:10032000084630BD012030BDF8FFFDBF000002408F
:1003300070B5044600F004F90546601C02D004487C
:100340000078044400F0FCF8401BA042FAD370BDD2
:10035000180000202DE9F84FDFF8B891002409F1CA
:10036000040A0AF1040B23460F270BF1040EC9E01F
:100370000125A5402A40AA427DD1674ED1F804C08C
:10038000ACEB0608B44532D014DCBCF1030F3AD014
:1003900009DCBCF1000F2AD0BCF1010F1CD0BCF16C
:1003A000020F31D11DE0BCF1110F17D0BCF1120FBB
:1003B0002AD119E0B8F5881F19D006DCB8F5803FBE
:1003C00015D0B8F5801F1FD111E0B8F5001F0ED071
:1003D000B8F5041F18D10AE0CB6815E0CB681B1DE7
:1003E00012E0CB6808330FE0CB680C330CE08B686D
:1003F0002BB1012B4FF0080303D0456104E0042327
:1004000002E0056100E00023FF2A01D8064601E072
:1004100000F104064FEA840501D9A5F12005D6F8BC
:10042000008007FA05FC28EA0C0803FA05F548EAFB
:100430000508C6F800804D68ED0062D5374DAE69FD
:1004400046F00106AE61AD6924F0030605F0010532
:100450000095334D06EB050CDCF80850A607360F67
:1004600007FA06F825EA0805DFF8B880404503D109
:100470004FF0000817E044E0DFF8AC80404502D1BF
:100480004FF001080FE0DFF8A480404502D14FF0A3
:10049000020808E0DFF89880404502D14FF00308D9
:1004A00001E04FF0040808FA06F848EA0508CCF81D
:1004B00008804D68D9F80060ED034D4601D516431C
:1004C00000E096432E604D68DAF80060AD035546B3
:1004D00001D5164300E096432E604D68DBF80060BE
:1004E000ED025D4601D5164300E096432E604D684F
:1004F000DEF80060AD02754601D5164300E0964374
:100500002E60641C0D682A46E5407FF431AFBDE8DB
:10051000F88F00000004014000001110001002409C
:100520000000014000080140000C014000100140A3
:10053000001401400AB1016170470904FBE70000A3
:100540000148806870470000180000200248816858
:10055000027811448160704718000020074810B5E8
:10056000016841F010010160032000F075F80020DF
:1005700000F006F800F024F8002010BD0020024032
:1005800070B50D4D04464FF47A712878B1FBF0F048
:100590000A490968B1FBF0F000F022FC48B9102CC0
:1005A00007D200222146501E00F036F800206C6071
:1005B00070BD012070BD0000180000202400002044
:1005C0000C4808B5816941F001018161816901F040
:1005D00001010091C16941F08051C161C06900F021
:1005E000805000900448416821F0E06141F00071C2
:1005F000416008BD0010024000000140002809DBF6
:1006000000F01F02012191404009800000F1E0202C
:10061000C0F8001170470000F0B40E4B1B680C4688
:10062000C3F30223C3F10705042D00D90425191DC6
:10063000072901D2002300E0DB1E012606FA05F19E
:10064000491E214099409E40761E16403143F0BC21
:1006500000F089BF0CED00E0064900F007020868D1
:100660004FF6FF03184040EA0220034A1043086097
:10067000704700000CED00E00000FA052DE9F0479E
:100680000F46050061D0434E306800F00700B842C5
:1006900009D2306820F0070038433060306800F03D
:1006A0000700B84251D128683B4C810712D540075A
:1006B00003D5606840F4E06060602878000703D5E7
:1006C000606840F4605060606068A96820F0F000E5
:1006D000084360602878C00728D06868012810D0D7
:1006E0002168022810D0890700292EDA616821F0DC
:1006F000030101436160FFF723FF804641F288391F
:100700000DE021688903EFE78901EDE7FFF718FFA6
:10071000A0EB0801494502D90320BDE8F0876068D5
:10072000696800F00C00B0EB810FEFD1306800F089
:100730000700B8420BD9306820F00700384330601A
:10074000306800F00700B84201D00120E5E72878C2
:10075000400705D56068E96820F4E0600843606000
:100760002878000706D56068296920F4605040EABF
:10077000C100606000F038F86168084AC1F30311F5
:10078000515CC8400649086006480068FFF7F8FE5B
:100790000020C2E7002002400010024044E10008AF
:1007A000240000201C000020044805490068496816
:1007B000044AC1F30221515CC84070472400002064
:1007C0000010024054E100080448054900684968E7
:1007D000044AC1F3C221515CC84070472400002084
:1007E0000010024054E1000812A185B00FC98DE845
:1007F0000F0014A0144A006804905168134801F0D7
:100800000C03042B10D0082B0ED1C1F38343C90372
:100810001DF803000AD5516804AAC1F34041515C98
:100820000A4A5043B0FBF1F005B07047084948430D
:10083000FAE7000002030405060708090A0B0C0D7D
:100840000E0F1010010200000010024000127A008A
:1008500000093D002DE9F84F040070D02078C04D0C
:10086000C00749D06868C0F38100012807D06868D4
:10087000C0F38100022809D16868C00306D5286842
:10088000800339D560680028E7D035E06068B0F5AE
:10089000803F0BD010B1B0F5A02F11D0286820F404
:1008A00080302860286820F4802002E0286840F426
:1008B00080302860606890B1FFF742FE06460AE08B
:1008C000286840F480202860F0E700BFFFF738FE7A
:1008D000801B642873D828688003F7D50CE0FFF7E5
:1008E0002FFE064605E000BFFFF72AFE801B6428A6
:1008F000F0D828688003F7D420789A4E80074FF00C
:1009000001094FF0000839D5686810F00C0F07D0C6
:100910006868C0F38100022809D16868C00306D462
:100920002868800714D52069012808D110E02069C3
:10093000B0B1C6F80090FFF703FE074605E00AE1F4
:10094000FFF7FEFDC01B0228C4D828688007F7D532
:100950002868616920F0F80040EAC10028600DE0D5
:10096000C6F80080FFF7ECFD074604E0FFF7E8FD5E
:10097000C01B022823D828688007F7D420780007F6
:100980002CD57948A169D9B1C0F80090FFF7D8FDFE
:10099000074604E0FFF7D4FDC01B02280FD8686AA1
:1009A0008007F7D571484FF4FA510068B0FBF1F0B9
:1009B000009000BF0098411E0091FAD20EE080E046
:1009C000C0F80080FFF7BCFD074604E0FFF7B8FD64
:1009D000C01B022875D8686A8007F7D420784007C2
:1009E00060D5E8690027C00008D4E86940F080506D
:1009F000E861E869012700F0805000905C480168D8
:100A0000C90513D40168834641F480710160FFF782
:100A100097FD824606E000BFFFF792FDA0EB0A00BB
:100A200064284ED8DBF80000C005F5D5E068012841
:100A30000AD008B1052813D0286A20F001002862E6
:100A4000286A20F0040002E0286A40F001002862D1
:100A5000E06841F2883B98B1FFF772FD82460BE0F7
:100A6000286A40F004002862EEE700BFFFF768FD47
:100A7000A0EB0A0159455AD8286A8007F6D50CE040
:100A8000FFF75EFD824605E0FFF75AFDA0EB0A0185
:100A900059454CD8286A8007F6D41FB1E86920F080
:100AA0008050E861E06988B36968C1F38101022977
:100AB00044D00228C6F8608004D0FFF741FD044608
:100AC00038E034E0FFF73CFD074604E0FFF738FD6F
:100AD000C01B02282BD828688001F7D4206AB0F503
:100AE000803F05D16868A16820F400300843686041
:100AF000D4E908010843696821F474110843686067
:100B0000C6F86090FFF71CFD044606E025E000BF34
:100B1000FFF716FD001B022809D828688001F7D5C9
:100B20001BE000BFFFF70CFD001B022802D90320C9
:100B3000BDE8F88F28688001F4D40EE00128F7D0D2
:100B40006868226A00F48031914204D1616A00F43D
:100B50007010884201D00120EAE70020E8E7000099
:100B60000010024000004242800442422400002063
:100B70000070004070B5040005D00025A56294F80F
:100B8000510010B106E0012070BD84F8505020469D
:100B900000F02EF8022084F851002068016821F04E
:100BA00040010160D4E901010843D4E90312114373
:100BB000084361690843218B01F400710843E1692E
:100BC0000843216A0843A16A084321680860A069B4
:100BD000042101EA1040216848602068C16921F4BD
:100BE0000061C1616565012084F85100002070BD7D
:100BF00070B586B0002506460095019502950395CF
:100C000000681B49884230D11A49886940F48050F5
:100C10008861886900F480500490886940F004007D
:100C200088618869694600F004000490A020009063
:100C300002200190032003900F48FFF78BFB104C1C
:100C40000E4820601020C4E901058020E0604000CB
:100C500020618000C4E905052046E561FFF73AFB05
:100C600008B1FFF78CFAB464666206B070BD00008C
:100C700000300140001002400008014030000240F6
:100C8000C00000202DE9F84F044690F850000027DE
:100C90001D461646894601280DD04FF0010B84F8F9
:100CA00050B0FFF74DFC804694F85100BA46012839
:100CB00004D002278EE00220BDE8F88FB9F1000FC2
:100CC0007DD0002E7BD0032084F85100C4F854A0BE
:100CD000C4F83090A686E686C4F838A0A4F83CA0F4
:100CE000A4F83EA0C4F844A0C4F840A0A068B0F5A1
:100CF000004F04D12068016841F480410160206800
:100D00000168490603D4016841F040010160E068D0
:100D1000B0F5006F606803D030B3012E24D040E0FE
:100D200008B1012E1CD1206B21680088C86006E044
:100D300020688168890709D5216B0988C160206B0B
:100D4000801C2063E08E401EE08609E0FFF7F8FB80
:100D5000A0EB0800A84202D3681C01D031E07DB3AB
:100D6000E08E0028E4D11FE0206B21680078087332
:100D700006E020688168890709D5216B097801732D
:100D8000206B401C2063E08E401EE08609E0FFF7E8
:100D9000D7FBA0EB0800A84202D3681C01D010E0EA
:100DA00075B1E08E0028E4D142462946204600F085
:100DB000ECF808B120206065A06820B107E008E0E9
:100DC000FFE7032706E02068C16880680090606D37
:100DD00000B1012784F851B084F850A038466BE781
:100DE00010B5401EB0F1807F01D3012010BD4FF03F
:100DF000E02460610F21601700F0B5FB0020A061C6
:100E000007202061002010BD70B5040004D094F8C4
:100E10003900002510B106E0012070BD84F838507B
:100E2000204600F023F8242084F839002068C168A7
:100E300021F40051C160204600F038FB20680169B0
:100E400021F4904101612068416921F02A0141614A
:100E50002068C16841F40051C160E563202084F836
:100E6000390084F83A00002070BD000030B585B02C
:100E70000024009401940294039400681449884269
:100E800023D11448C16941F40031C161C16901F441
:100E900000310491816941F00401816180690E4D46
:100EA00000F0040004900420009002200190032030
:100EB000039069462846FFF74DFA0820CDE9000463
:100EC000694628460294FFF745FA05B030BD000098
:100ED000004400400010024000080140FEE700000E
:100EE00070B586B0002418480094019402940394CD
:100EF000816941F020018161816901F02001049143
:100F0000816941F004018161816901F0040104916A
:100F1000816941F00801816180690C4E00F0080090
:100F20004FF4E0750490002229463046FFF702FB9B
:100F300001200095CDE90104022003906946304666
:100F4000FFF708FA06B070BD00100240000C014027
:100F50000B480A494FF4007201604FF482714160FE
:100F600000218160C1600161C0E90512C1610162B7
:100F7000416281620A21C162FFF7FCBD003001407D
:100F800028000020FEE77047704738B50B460092F6
:100F900004460022802100F008F8002804D0606D8B
:100FA00040F020006065032038BD2DE9F0411D466A
:100FB00017460E460446DDF8188008E0681C06D087
:100FC000FFF7BEFAA0EB0800A8420BD255B120688B
:100FD000806836EA000030D00020B842EED1002010
:100FE000BDE8F0812068416821F0E001416060685F
:100FF000B0F5827F0BD1A068B0F5004F02D0B0F5FC
:10100000806F04D12068016821F040010160A06A6E
:10101000B0F5005F09D12068016821F4005101603A
:101020002068016841F400510160012084F85100FA
:10103000002084F850000320D2E70120CDE7000013
:101040002DE9F05F9846DDF828A091460C4605464C
:1010500080282DD2A02C2BD205EB0907781E8028E2
:1010600026DA04EB0806701EA02821DADFF844B067
:10107000002240215846FFF75DFAF3B2FAB2E1B21E
:10108000E8B200F0F7F84FEA4905002405FB08F53F
:1010900005E000BF1AF8040000F074F9641CA542D2
:1010A000F8DC5846BDE8F05F01224021FFF742BA64
:1010B000BDE8F09F000C0140F8B516460C46054609
:1010C00080281DD2A02C1BD20E4F00224021384672
:1010D000FFF730FA601CC3B2681CC2B2E1B2E8B2DA
:1010E00000F0C8F8300A8DF800008DF80160022188
:1010F000684600F037F9012240213846FFF71AFA16
:10110000F8BD0000000C01402DE9F04110F8015B32
:10111000044617E0207800F017F96078A41C00F06E
:10112000800730F0800604D03146204600F01AF9DE
:1011300034443FB114F8010BFF2801D14FF4FA7089
:10114000FFF7F6F86D1EEDB2E4D2BDE8F0810000C5
:101150002DE9F8431C46DDF8208015460E4607466B
:1011600080283BD2A02E39D27819401E802802DB7D
:10117000C7F1800085B23019401EA02802DBC6F1FD
:10118000A00084B2DFF85890002240214846FFF7C3
:10119000D1F93019401EC3B27819401EC2B2F1B263
:1011A000F8B200F067F84FEA18208DF800008DF8CB
:1011B000018026460BE02C4605E00221684600F03F
:1011C000D1F8641EA4B2002CF7D1761EB6B2002E60
:1011D000F1D1012240214846FFF7ACF9BDE8F88380
:1011E000000C014008B500210090A0238022084691
:1011F000FFF7AEFF08BD000010B50D4C00224021E6
:101200002046FFF797F900F017F80A48FFF77CFF30
:1012100008483B30FFF778FF06484830FFF774FF77
:1012200020460122BDE810404021FFF783B90000AD
:10123000000C0140BCB8000810B5084C0022802109
:101240002046FFF777F90520FFF772F820460122C4
:10125000BDE810408021FFF76DB90000000C01408F
:101260000A4601464FF0FF330148FFF70BBD00006F
:1012700028000020F8B507461C4615460E462A20D1
:1012800000F062F8002000908DF801708DF8035096
:101290000421684600F066F82B2000F055F88DF820
:1012A00001608DF803400421684600F05BF82C20B3
:1012B00000F04AF8F8BD00000FB42DE9FF5F4A1EA8
:1012C000C3F307263244D4B2DFB2421EDDE913A9CC
:1012D0003A44D2B2C9B2C0B22346FFF7CBFF0025D1
:1012E0002CE010981299203800FB0650002431F8A9
:1012F00010804FEA1A2002900AF0FF0001904FEA96
:10130000192009F0FF0B009015E000BF08FA04F067
:10131000000406D502988DF80C0001988DF80D0098
:1013200004E000988DF80C008DF80DB0022103A8A0
:1013300000F018F8641CA742E8D86D1CAE42D0D863
:10134000BDE8FF1F5DF814FB01B500224FF480716A
:101350000348FFF7EFF801216846FFF781FF08BD5A
:10136000000C014070B50C460546012211020448EC
:10137000FFF7E0F8A1B22846BDE87040FFF770BF64
:10138000000C014038B50446012211020448FFF761
:10139000D1F88DF8004001216846FFF761FF38BDA4
:1013A000000C01402DE9FE4FDFF86490DDE90DBA35
:1013B00014460E4605469846002240214846FFF74F
:1013C000B9F808F0FF0718E07819802809D3C8F3A6
:1013D000072081198EB200253044A02810D2202A7F
:1013E0000AD0CDE901BA0C98009043463146284610
:1013F000FFF762FF781985B2641C2278002AE3D1D6
:1014000003B04846BDE8F04F01224021FFF792B8F3
:10141000000C01407047FFF799B830B58FB0282114
:101420006846FEF786FE14210AA8FEF782FE012117
:101430000804CDE900100024029402250491CDE9AE
:101440000750800009906846FFF704FA0F200A90C1
:10145000CDE90B540D9400210AA80E94FFF70EF964
:101460000FB030BD0D48016841F0010101604168D5
:101470000B4A1140416001680A4A1140016001684D
:1014800021F480210160416821F4FE0141604FF4A4
:101490001F0181600449C0030860704700100240CA
:1014A0000000FFF8FFFFF6FE08ED00E02DE9F04137
:1014B000044600680169E26821F44051114301616A
:1014C0002169A0680843616908432168CA6841F23C
:1014D0000C639A430243CA6020684169A26921F4FF
:1014E0004071114341611E492068642532268842BB
:1014F00002D1FFF769F901E0FFF756F900EBC001EF
:1015000001EB001160686FF018078000B1FBF0F28A
:10151000B2FBF5F2B1FBF0F37A4303EB8202B1FBCD
:10152000F0F306EB0212B2FBF5F2B3FBF5F302F0B7
:10153000F00202EB0312B1FBF0F3B1FBF0F0B0FBF1
:10154000F5F0784303EB800006EB0010B0FBF5F0FC
:10155000216800F00F0010448860BDE8F0810000B1
:1015600000380140FEE70907090E002804DB00F1FE
:10157000E02080F80014704700F00F0000F1E02038
:1015800080F8141D704702E008C8121F08C1002A25
:10159000FAD170477047002001E001C1121F002AF4
:1015A000FBD1704708B5FEF7D9FFFFF736FFFFF70D
:1015B00097FC1448416941F00101416140690022F2
:1015C00000F00100009011460D20FFF725F80D20D6
:1015D000FFF714F8FFF7BCFC0C480B490C22016024
:1015E0004FF4E131416000218160C160C0E9041223
:1015F0008161C161FFF708FCFFF7FEFD00F008F80C
:10160000FCE7000000100240004400408000002081
:101610002DE9FE4F7B4800210090A0238022084640
:10162000FFF70EFD40F6B8352846FEF781FE4FF66F
:10163000FF794FF47846744CCDE9016960680090F9
:1016400072A2642114202368FFF7ACFE2846FEF73F
:101650006FFE0020FFF7C6FD0025A8B2324600212C
:10166000FFF72AFDA8B232469F21FFF725FD6D1C2A
:10167000802DF2DB0025A9B232460020FFF71CFDC9
:10168000A9B232467F20FFF717FD6D1CA02DF2DBBB
:101690004FF47A70FEF74CFE0020FFF7A3FD002503
:1016A0005D48CDE901654168009103685BA2294668
:1016B0002846FFF777FE4FF4FC68CDE901856068A6
:1016C000009063A21E2100202368FFF76BFE1F27F6
:1016D0006748CDE9017541680091036865A254210E
:1016E0000020FFF75FFE4FF4FA60FEF721FE0020B6
:1016F000FFF778FDCDE9019560680090002160A2B8
:1017000008462368FFF74EFE4FF4FA7A5046FEF77C
:101710000FFE1F20FFF766FDCDE9015760680090BE
:10172000002159A208462368FFF73CFE5046FEF709
:10173000FFFD3046FFF756FDCDE901566068009089
:10174000002153A208462368FFF72CFE5046FEF7FF
:10175000EFFD4046FFF746FDCDE901586068009077
:1017600000214CA208462368FFF71CFE5046FEF7F6
:10177000DFFD40F2FF763046FFF734FDCDE901563C
:1017800060680090002145A208462368FFF70AFE22
:101790005046FEF7CDFD4FF61F063046FFF722FDFF
:1017A000CDE901566068009000213EA208462368FA
:1017B000FFF7F8FD5046FEF7BBFD4FF6E0763046EA
:1017C000FFF710FDCDE9015660680090002137A2B7
:1017D00008462368FFF7E6FD5046FEF7A9FD484698
:1017E000FFF700FDCDE9015760680090002131A2AC
:1017F00008462368FFF7D6FD5046BDE8FE4FFEF7CA
:1018000097BD0000BC1800080800002043656E73F7
:101810006F7265640000000000000020466F6E7467
:101820005F377831302C20726564206F6E20626CD7
:1018300061636B2C206C6F72656D20697073756DC0
:1018400020646F6C6F722073697420616D65740021
:10185000466F6E745F31317831382C206772656560
:101860006E2C206C6F72656D20697073756D000051
:1018700010000020466F6E745F31367832360000FB
:10188000424C41434B000000424C554500000000D3
:1018900052454400475245454E0000004359414ED1
:1018A000000000004D4147454E54410059454C4C05
:1018B0004F5700005748495445000000D67AD67A61
:1018C000D67AD69AD69AD699D69AD679D69AD69ADA
:1018D000D699D69AD69AD69AD69AD69AD69AD69A89
:1018E000D69AD69AD69AD69AD69AD69AD69ADE9A70
:1018F000D69ADE9AD69ADE9AD69AD6BAE6FBE657FA
:10190000C4F1BC6FABEEAC0FBCD1ABEEABAEC4F26E
:10191000CD54CD53C512A42FAC50B4B09BEE8BD098
:101920009412A451AD77BE5CC69CBE5BD71EB57742
:10193000A450B4D3BCF3CDB6E6B9F75CF77DEF1B8A
:10194000E6BAC659CE59CE59CE59C619C639C619A6
:10195000C618C638C618C618C618C618C618BE187F
:10196000BE18BE18BE18BDF8BDF8BDF8BDF8BDF86C
:10197000BDF8BDF8BDF8BDF8BDD8BDD7BDD8BDD741
:10198000BDD7BDD7BDD7BDD7BDD7BDD7B5D7BDD7BF
:10199000B5D7B5D7B5B7B5B7B5D7B5B7B5B7B5B787
:1019A000B5B7B5B7B5B7B5B7B5B7B5B7B5B7B5B7D7
:1019B000B5B7B5B7B5B7B597B597B597D679D67A60
:1019C000D67AD69AD69AD679D699D699D699D699DC
:1019D000D699D69AD69AD69AD69AD69AD69AD69A88
:1019E000D69AD69AD69AD69AD69AD69ADEBAD69A4F
:1019F000D69ADE9AD69AD69AD69AE6BADDD5BC4F52
:101A0000AC0EAC0EAC50BCD2AC2FAC2FC4F2C51295
:101A1000C4D2BCB1AC70BCB1B4508B2B7AAB834D8B
:101A2000A4109C10A4D4A5378BF1A556CEBCCEBC77
:101A3000B4F5B555B5359C309C0FC575EEFAFF9DD4
:101A4000EF3CDE9ACE18C639C639C639C618C61854
:101A5000C618C619C618C618C618C618C618BE189D
:101A6000BE18BDF8BDF8BDF8BDF8BDF8BDF8BDF8AD
:101A7000BDF8BDF8BDF8BDD7BDD7BDD8BDD7BDD762
:101A8000BDD7BDD7BDD7BDD7BDD7B5B7B5B7B5D70E
:101A9000B5D7B5D7B5B7B5B7B5B7B5B7B5B7B5B7A6
:101AA000B5B7B5B7B5B7B5B7B5B7B5B7B5B7B5B7D6
:101AB000B5B7B5B7B5B7B5B7B597B597D679D67940
:101AC000D67AD67AD67AD67AD67AD699D699D69939
:101AD000D699D69AD69AD69AD69AD69AD69AD69A87
:101AE000D69AD69AD69AD69AD69AD69AD69ADEBA4E
:101AF000DEBAD679D69AD69ADEB9C572ABEEAC0EFE
:101B0000A3ADAC2FBD12AC2EAC2FC4F1BCB1BC90B8
:101B1000BC90B450BCB1AC0E7A8972498B2C9BCE70
:101B200093AE93CE938E9C118BF09C32A4B4C61AC4
:101B3000C5F9BD56BD3693CF832C7AEB9BEFD616F5
:101B4000F75CEF1BD699CE59C639C619C619C61906
:101B5000C638C618C618BE18BE18BE18BE18BE189D
:101B6000BDF8BDF8BDF8BDF8BDF8BDF8BDF8BDF8CD
:101B7000BDF8BDF8BDD7BDD7BDD7BDD7BDD7BDD783
:101B8000BDD7BDD7B5D7BDD7BDD7B5B7B5B7B5D715
:101B9000B5B7B5B7B5B7B5B7B5B7B5B7B5B7B5B7E5
:101BA000B5B7B5B7B5B7B597B5B7B597B597B5B735
:101BB000B597B597B597B597B596B596CE79D679C9
:101BC000D67AD679D679D67AD67AD69AD699D69A38
:101BD000D69AD69AD69AD69AD69AD69AD69AD69A85
:101BE000D69AD69AD69AD69AD69AD69AD67AD69A95
:101BF000DEBAD69AD69ADE99CD53A3EDAC2E9BAD24
:101C00009BCEBCD2B4B1AC50B491AC4FB470BCB0AC
:101C1000B470BCB1A3CE7AA97AA97AAA936D9BAD10
:101C2000938D936C934C8B4D8B6D8B6E9BCFAC7265
:101C3000B5979C32A4119C30832D72AA6A4982EB1D
:101C4000C554F71AEF3BD679C639C618C618C61858
:101C5000C638C618C618BE18BE18C618BE18BDF8B5
:101C6000BDF8BDF8BDF8BDF8BDF8BDD8BDF8BDF8EC
:101C7000BDD7BDD7BDD7BDD7BDD7BDD7BDD7BDD7C4
:101C8000BDD7BDD7B5D7B5B7B5B7B5B7B5B7B5B784
:101C9000B5B7B5B7B5B7B597B5B7B597B597B59764
:101CA000B5B7B5B7B597B597B5B7B597B596B59775
:101CB000B596B596B596B596B596B596CE59CE79F4
:101CC000D679D679D679D679D679D679D67AD67A9A
:101CD000D67AD67AD69AD69AD69AD69AD67AD67905
:101CE000D69AD69AD69AD69AD69AD69AD69AD69975
:101CF000D69AD6DADE98D594ABEE9BCE9BCD936D7B
:101D0000B4B1AC70AC70B4B1AC30AC70B490B47071
:101D1000B490A3EE8B2C82CB7248830B93AD936C63
:101D20008B6C8B2B8B6C830B7ACA830B938E93AE4D
:101D30008B8D8BAE8B8E940F830B7ACA7ACB59C85E
:101D400059C8A450EED9EF1ACE39C619C618C6180C
:101D5000C618C618C618BE18C5F8BDF8BDF8BDF837
:101D6000BDF8BDF8BDF8BDF8BDF8BDF8BDD7BDD70D
:101D7000BDD7BDD7BDD7BDD7BDD7BDD7B5D7B5D7D3
:101D8000B5D7B5D7B5B7B5B7B5B7B5B7B5B7B5B7B3
:101D9000B597B597B597B596B596B596B596B596E8
:101DA000B597B597B597B596B596B596B596B596D8
:101DB000B596B596B596B596B596B596CE79CE79D3
:101DC000CE79CE79CE79CE79D679D679D67AD67AB9
:101DD000D679D67AD67AD69AD67AD69AD67AD67945
:101DE000D69AD69AD69AD69AD67AD69AD69AD69A93
:101DF000D6BAD679CD74AC4F9BCE93AD8B0CAC508C
:101E0000B491A42FA44FA42FAC70AC70B450B47094
:101E10009BEE93CE8B4C72497AAA938D936C8B6C0C
:101E20008B6C8B4C8B0B82CA7AAA82EA836C8B4CAC
:101E300082EA832B834C8B8E8B6D7A8A8B2C82CBA0
:101E400051A84946836CDE37EEFBCE79BE19C61821
:101E5000C618C5F8BE18BE18BE18BDF8BDF8BDF846
:101E6000BDF8BDF8BDF8BDF8BDD7BDD7BDD7BDD74E
:101E7000BDD7BDD7B5D7B5D7B5D7B5D7B5B7B5B732
:101E8000B5B7B5B7B5B7B5B7B5B7B5B7B597B59732
:101E9000B596B597B597B596B596B596B596B596E8
:101EA000B596B596B596B596B596B596B596B596DA
:101EB000B596B596B596B596AD76AD76CE79CE5942
:101EC000CE59CE59CE79CE79D679CE79CE79CE7912
:101ED000D679D69AD69AD69AD67AD67AD67AD69A03
:101EE000D69ACE79D69AD69AD69AD69AD679D69ABC
:101EF000D679CD54B45093AE9BCE832C9BCEB4B147
:101F0000A42F9C0FA40FA42FAC70AC50AC50A40E07
:101F10009BEE93AE724969E88B6C938C8B2B8B6C28
:101F2000938D830B82EB82EB7AEA830B8B8C8B2C69
:101F300082EB830B82EA832C93AE7ACB82CB938D98
:101F4000938D6249412672CACDD5EF1BC639BDF8C3
:101F5000BDF8BDF8BDF8BDF8BDF8BDF7BDF8BDF8DA
:101F6000BDF8BDF8BDF8BDD7BDD7BDD7BDD7BDD76E
:101F7000B5D7B5D7B5B7B5B7B5B7B5B7B5B7B5B7C1
:101F8000B5B7B5B7B5B7B5B7B597B596B5B6B59753
:101F9000B596B596B596B596B596B596AD76AD9619
:101FA000B596B596B596AD76AD76AD76AD76AD76A1
:101FB000AD76AD76AD76AD76AD75AD76CE59CE5902
:101FC000CE59CE59CE59CE59CE79CE79CE79CE7959
:101FD000CE79CE79CE79CE79CE79CE79CE79D69AA0
:101FE000D69ACE79CE79CE79CE99CE7ACE7AD6BB24
:101FF000CDB5B45093CD9BCE8B4C8B2DB4B1A42FCB
:102000009C0F9BCEA42FAC70AC30A4509BEEA42FA1
:1020100093AE72696A087AEA93AD8B4B834C938CCA
:102020008B4C82EA832B8B4C82EB8B4C93AD8B8C4D
:10203000830B830B8B2B8B4C8B4C8B2C7A8A8B6D6D
:102040008B8C93AE6A4A41666ACACDB5E6D9BDF8B3
:10205000B5D8BDF8BDF8BDF8BDF8BDF8BDF8BDD721
:10206000BDD7BDD7BDD7BDD7BDD7B5D7B5D7B5D7E8
:10207000B5B7B5B7B5B7B5B6B5B6B596B596B59665
:10208000B596B596B596B596B596B596B596B596F8
:10209000B596B596B596B596B596B596AD96B596F0
:1020A000B596AD96B596B596B596B596AD96B596E8
:1020B000B596B596B596B596B596B596CE59CE5910
:1020C000CE59CE59CE59CE59CE59CE59CE79CE59B8
:1020D000CE59CE79CE79CE79CE79CE79CE79CE7AE7
:1020E000CE79CE79CE79CE7ACE79CE79D6BACE17D0
:1020F000B4919BEE93AD93CE8B4CAC50AC719BEEF8
:1021000093ADA40FAC90A42FA430A42FA4308B8D3A
:10211000628A72AA72698B8D8BAD8B6C938D9BCD0D
:102120008B4C832B832B936C8B4B936C93AD9BCEFF
:102130008B6C832C936D8B2C830B938D8B4C8B0B27
:10214000938D934C9BCF624A51868B6DD5D4D677B5
:10215000C619B5D8BDD7BDD7BDD7BDD7BDD7BDD79B
:10216000B5D7BDB7BDD7BDB7B5B7B5B7B5B7B5B7B7
:10217000B5B7B5B7B5B7B5B7B5B7B5B7B5B7B5D7DF
:10218000B5B7B5D7B5D7B5B7B5D7B5D7B5B7B5B76F
:10219000B5B7B5D7B5B7B5B7B5B7B5B7B5B7B5B7BF
:1021A000B5B6B5B6B5B7B5B7B5B7B5B6ADB6B5B7DB
:1021B000B5B6B596B596B596B596B596CE59CE59EF
:1021C000CE59CE59CE59CE59CE59CE59CE59CE59D7
:1021D000CE59CE59CE79CE79CE79CE79CE79CE7907
:1021E000CE7ACE79CE79CE79CE79CE79D699BCF326
:1021F000A3EE938D9BEE832B93ADAC919BCF8B6D18
:1022000093ADAC70A4309BEFA40FAC708B8D626A61
:102210006ACB6AAA7B0B93AD8B8C938DA3EE9BEE5E
:102220008B4C8B4B8B6C93AD8B8C938D9BCE9BEEA1
:102230009BCE8B4C938D936C936C936C938D934D41
:1022400093AE8B6D93AE93EF518751A79BEECDB4B8
:10225000D5F6C5F8BDF8BDF8BDF8BE18BE18BE1855
:10226000BDF8BDF8BDF8BDF8BDF8BDF8BDF7BDF7C8
:10227000BDF7BDD8BDD8B5D7B5D7B5D7B5F8B5D7A3
:10228000B5D7BDD8BDD8B5D7B5D7B5D7B5D7B5B7FC
:10229000B5B7B5B7B5B7B5B7B5B7ADB6AD96AD9639
:1022A000AD96B5B6B5B6B5B6B5B6AD96AD96AD9676
:1022B000B5B6B5B6B596B596B596B596CE58CE58D0
:1022C000CE58CE59CE59CE59CE59CE59CE59CE59D7
:1022D000CE59CE59CE59CE59CE59CE59CE59CE59C6
:1022E000CE59CE59CE59CE59CE59D69AC595A3EED0
:1022F00093AD93AE8B8C7B0BA4309BCE936D8B4CAC
:10230000A450A4509BEF9BEFA4508B8D62496AEBC5
:102310006ACA6ACA9BEF9BCE93AD9BEEAC2F9BEE35
:10232000938D8B6C936C9BEE9BAD9BAD9BEE9C0E4B
:102330009C0E93AD9B8D9BCD938D938D938D938EA2
:102340008B6D9C0F8B8D93CE8B8E414659E8AC4F95
:10235000CDB3CDD6C639BE39BE18BE18BE18BE180C
:10236000BE18BE18BDF8BDF8BDF8BDF8BDF8BDF883
:10237000B5F8B5D7B5D7B5D7B5D7B5D8B5D7B5D7DB
:10238000B5D7B5D7B5D7B5D7B5D7B5D7B5B7B5B72D
:10239000B5B7B5B7B5B7B5B7B5B7B5B7B5B7B5B7DD
:1023A000B5B7B5B7B5B7B5B7B5B7B5B7B5B7B5B7CD
:1023B000B5B7B5B7B5B6B5B6B5B6AD96C638CE38BD
:1023C000CE38CE38CE38CE58CE58CE58CE59CE593B
:1023D000CE59CE59CE59CE59CE79CE59CE59CE7985
:1023E000CE79CE79CE79CE59CE7ACE79B4919BAED4
:1023F0008B6D93CE7AEA938DA3EF8B4C830B9BCEA0
:10240000AC3093AD93AEA40F8B8D626972AB72EB5F
:10241000628993AEA42F9BEE9BEEA450A42F9BCE7B
:1024200093AD938C938D9BEF9BAE9BCE9C0FA40F93
:10243000A42F9BCE93ADA3EF93AD9BCE9BEE9BEED3
:1024400093AE938E93CF8B2CA4516ACB38E482EB5E
:10245000BCF2C593BDD6BE39BDF8BE18BE18BE18B5
:10246000BE18BE18BE18BDF8BDF8BDF8BDF8BDF861
:10247000BDF8BDF8BDF8BDF8BDF8BDF8B5D7B5F8E5
:10248000B5F8BDD8BDD8B5D7B5D7B5D7B5D7B5D7B9
:10249000B5D7B5D7B5D7B5D7B5D7B5D7B5D7B5D7DC
:1024A000B5D7B5D7B5D7B5D7B5D7B5D7B5D7B5D7CC
:1024B000B5D7B5B7B5B7B5B7B5B7B5B7C638CE3870
:1024C000CE39CE58CE59CE59CE59CE59CE59CE59F5
:1024D000CE59CE79CE79CE79CE79CE79CE79CE7AE3
:1024E000CE79CE79CE7ACE79D6DBBDB59BCE93AE02
:1024F00093AD8B6C82EB9C0F9BAE7B0A832BA42F3E
:10250000938D936D9BCE93AD6A696A6A72EB628913
:102510008B6DA40FA42F9C0FA42FB491A42F9BEE1E
:102520009BCD9BAD9BCEA42F9BEE9C0FA40FA42F05
:10253000A450A40F9BCEA3EF9BEE9BCEA40F9BEECB
:102540009C0F8B8D93CF938E8B6D93EF51A76A2940
:10255000A3EEC553C594C5F7BE39BE18BE38BE3804
:10256000BE38BE18BE18BE18BE18BE18BE18BE189B
:10257000BE18BDF8BDF8BDF8BDF8BDF8BDF8BDF892
:10258000BDF8BDF8BDF8BDF8BDF8BDF8B5F8B5F8B3
:10259000B5F8BDF8B5F8B5F8B5F8B5F7B5D7B5D70E
:1025A000B5D7B5D7B5D7B5D7B5D7B5D7B5D7B5D7CB
:1025B000B5D7B5D7B5D7B5D7B5D7B5D7C639C638D6
:1025C000CE59CE58CE58CE58CE59CE59CE59CE59D6
:1025D000CE59CE59CE79CE79CE59CE59CE79CE7A42
:1025E000CE79CE79CE59CE9ACE9AACB1938D8B6CF2
:1025F00093AD830B8B6D93CE7AC972A99BEE9BAD85
:102600008B4B93AD8B8D72CA6A4A72AA624A7B0C5D
:102610009BEFA42FA450A42FB491B491A4509C0F6D
:10262000A3EF9BCE9BEEAC50A42FA430AC50AC508B
:10263000AC70A42F9BEEA40FA40E9BCEA430A40FCD
:102640009BEE9BEF938E93CF8B6E93CF7ACB598774
:102650009B8DB490C594C595BE59BE39BE39BE395F
:10266000BE39BE39BE39BE38BE38BE38BE38BE18D7
:10267000BE18BE18BE18BE18BE18BE18BE18BE18AA
:10268000BE18BE18BE18BE18BE18BDF8BDF8BDF8FD
:10269000BDF8BDF8BDF8BDF8B5F8BDF8BDF8BDF89A
:1026A000BDF8B5F7B5F7BDF8B5F7BDF8B5F7B5D7CF
:1026B000B5D7B5D7B5D7B5D7B5D7B5D7C638C638D6
:1026C000C638CE58CE58CE58CE59CE59CE59CE59FE
:1026D000CE59CE79CE79CE79CE79CE79CE79CE7AE1
:1026E000CE7ACE79CE7AD6DBBDB69BEE9BEF8B6DE4
:1026F000938D7B0B93CE830B6A277B0B9BEE830B17
:102700008B4C93AD7AEB6A6972AA6A6972AA93AE2E
:102710009C0FAC70AC50AC70B4D2AC91AC509BEE92
:10272000A4309BEEA42FAC70AC50AC30AC70AC704D
:10273000AC70AC50A42FAC2FA40FA3EEA450A40FE8
:102740009BCEA42F93AE93AE93CF832C8BAE61E838
:1027500082CBA3EDC533C595BDB6C67AC639C63999
:10276000BE39BE39BE39BE39BE39BE39BE39BE39B1
:10277000BE39BE38BE38BE38BE38BE38BE18BE18E8
:10278000BE18BE18BE18BE18BE18BE18BE18BE1899
:10279000BE18BE18BDF8BE18BE18B618BDF8BDF8F4
:1027A000BDF8BDF8BDF8BDF8BDF8BDF8BDF8BDF881
:1027B000BDF8BDF8BDF8BDF7B5D7B5D7CE38CE5802
:1027C000CE39CE59CE59CE59CE59CE59CE59CE59F1
:1027D000CE79CE79CE79CE7ACE79CE7ACE7ACE7ABD
:1027E000CE7ACE7ACE9AD6BBB4D293AD836C8BAE72
:1027F000832C832B8B6C72687269938D832B82EA96
:10280000936C7ACB6A4972AA6A6962498B6D9BEEB6
:10281000A430B491AC71B4B2B4F2B491AC50A40F82
:10282000AC50A40FAC50AC70AC50AC50AC71AC918F
:10283000AC91AC70AC2FA450A450A40FA430A45001
:102840009BEE9C0F9BEF938E93AE832C93AE7AEC12
:10285000724AA40EB470C575C595C659C659C659F5
:10286000C659C659C659C659C659BE39BE39BE39E8
:10287000BE39BE39BE39BE39BE39BE39BE38BE38A2
:10288000BE18BE18BE38BE38BE18BE18BE18BE1858
:10289000BE18BE18BE18BE18BE18BE18BDF8BDF8CA
:1028A000BE18BE18BDF8BDF8BDF8BDF8BDF8BDF83E
:1028B000BDF8BDF8BDF8BDF8BDF8BDF8C638CE59B5
:1028C000CE59CE59CE59CE59CE59CE79CE79CE7970
:1028D000CE79CE7ACE7ACE7ACE7ACE7ACE7ACE7AB9
:1028E000CE7ACE79D6DBC5F6A40F93EE834C8B6CF3
:1028F0007AEA832B7AEA6A48830A93AC82CA830B0A
:10290000832B72896A6972AA61C7728A938E93CE89
:10291000B491B4B2B491BCD2BCF2AC91AC70AC7016
:10292000AC71A40FAC91AC70AC50AC71B4B2B4B299
:10293000B491B491AC70A450AC70A450A470AC71BC
:10294000A42F9BEEA42F93AE936D8B4D830C8B6DB8
:102950007A8B93ADAC2EC574C575BDF8C67AC659D1
:10296000C679C679C679C659C659C659C659C6590F
:10297000BE39BE39BE39BE39C639C639BE39BE398F
:10298000BE39BE39BE39BE39BE38BE38BE38BE3893
:10299000BE38BE38BE38BE38BE38BE38BE18BE18C7
:1029A000BE18BE18BE18BE18BE18BE18BE18BE1877
:1029B000BE18BE18BDF8BDF8BDF8BDF8CE59CE5949
:1029C000CE59CE59CE59CE59CE79CE79CE79CE794F
:1029D000CE7ACE9ACE7ACE7ACE7ACE9ACE9AD69A2F
:1029E000CE7AD69AD6DBBD33A3CE834C834C8B4CA8
:1029F00072A97ACA72687AA98B4B7AC97ACA830B90
:102A000072A96A4972AA6A0869C7830C938DAC508F
:102A1000B4D2B4B1B4B2BD13B4D2AC91AC71AC9178
:102A2000AC71AC71B4D2AC50B471B492B4D2B4D273
:102A3000B4B2B4B1AC70AC50AC70AC50AC71AC7161
:102A4000A4309C0FA42F9BCE8B6D830C82EB93AE96
:102A5000830C8B2BA40EB4F2BD54BDB6CEBBC67A8C
:102A6000C679C67AC67AC679C679C65AC67AC65AA9
:102A7000C659C659C659C659BE59C659C659C65966
:102A8000BE39BE39BE39BE39BE39BE39BE39BE398E
:102A9000BE39BE39BE39BE38BE38BE39BE39BE3980
:102AA000BE38BE38C619BE18BE18BE18BE18C61924
:102AB000BE18BE18BE18BE18BE18BE18CE59CE59C4
:102AC000CE59CE79CE79CE79CE79CE79CE7ACE7AEC
:102AD000CE9ACE9ACE7ACE7ACE9ACE9AD69ACE7A0E
:102AE000D69ADEDBCE59AC909C0F72CA834C7ACB5F
:102AF000724972686A477AE982EA72487AA97AA9C1
:102B00006A286A696AA961A77AAA834CA3EEBCD233
:102B1000B4D2B4B2BCF2C533B4D2B491AC91B4B1B6
:102B2000AC91B4B2B4D3AC50B4B2B4B2BCF3B4D27E
:102B3000BCF2BCD2AC90AC70B491AC71AC71AC9145
:102B4000AC50A42FA42F9BEF8B6D830B82EB8B2CAF
:102B5000832C8B0C9BEEAC4FBD34BD75CE7ACE9AD8
:102B6000C67AC67AC67AC67AC67AC67AC67AC67966
:102B7000C67AC67AC67AC65AC65AC65AC659C659F7
:102B8000C65AC65ABE59C639C639C639C659BE39DB
:102B9000BE39BE39BE39BE39BE39C639BE39C6396D
:102BA000BE39BE38C619C619BE18C638BE18BE18FA
:102BB000BE18BE18BE18BE18BE18BE18CE59CE59C3
:102BC000CE79CE79CE79CE79CE7ACE7ACE7ACE7AC9
:102BD000CE7ACE7ACE7ACE9AD69AD69AD67AD69A15
:102BE000D6BADEFCC5B6AC2F8B6D72CA8B8C7269FF
:102BF0006A086A0772287ACA7A897A8A72896A4860
:102C00006A0872896A486A287ACA938DBCF2BCF352
:102C1000B4B2B4B1C533C533B4D2B4B2B4B2BCD219
:102C2000AC91B4D2B4D3AC91B4D3B4F2C534B4F350
:102C3000BD13BCF3B491AC70B4B2AC91AC71AC91B7
:102C4000AC71A430A4309BEF8BAD832C7A8A7A6967
:102C50007AEB834C93ADA40EB4F2B575C659CE9AF7
:102C6000C69AC69AC69AC69AC67AC67AC67AC67AE4
:102C7000C67AC67AC67AC65AC67AC67AC67AC67A74
:102C8000C67AC67AC65AC65AC65AC65AC659C65906
:102C9000C65AC65AC65AC659C659C639C639C63999
:102CA000C639C639C639C639BE39C639C639C61954
:102CB000BE39BE39C619BE18BE18BE18CE59CE5977
:102CC000CE79CE79CE79CE79CE7ACE7ACE9ACE9A88
:102CD000CE9AD69AD69AD69AD69AD69AD69AD69A7C
:102CE000D6BADEDABD13AC0F7AEB832C8B6B69E7B7
:102CF00069E76A076A077A687AC97AA972486A280E
:102D00006A086A2869E87A89830BAC91BD34BCF201
:102D1000AC91B4D2C554BD13AC91B4B2B4D3B4D257
:102D2000AC91BD13B4B1B4B2BD34BCF2C534B4D2AD
:102D3000BD13BD13B4B2AC91B4B2AC71AC91AC9153
:102D4000AC71A430AC509BEF93AE830B7A696A48A8
:102D50007AAA832B8B6CA3EEB4D1BD54C659CE9BFB
:102D6000CE9ACE9AC67AC69ACE9ACE7AC67AC67AC3
:102D7000C67AC67AC67AC67AC67AC69AC67AC67A33
:102D8000C67AC67AC67AC67AC65AC65AC67AC67A83
:102D9000C67AC67AC67AC65AC659C659C659C659D7
:102DA000C659C659C639C639C639C639C639C639EB
:102DB000C639C639C639C639C639C638CE59CE79AC
:102DC000CE79CE79CE7ACE7ACE9AD67ACE9ACE9A5D
:102DD000D69AD69AD69AD6BAD6BAD6BAD69AD6BAF3
:102DE000DEDBCE58B4B1A3EF7ACB93CD7AC961A61E
:102DF00069E761C76A077A687288726872286A0729
:102E00006A2861E86A287AAA9BEFC534BD34B4B158
:102E1000AC91BD13C554BCF3AC70B4B2BCF3B4B147
:102E2000B4B2BD54AC70B4D2BD14BD13C554B4B269
:102E3000BD13BD34B491B4B2B4B1A430B492B49162
:102E4000AC71A40FAC719BEF93CE8B2C72696A2886
:102E5000726A7ACA8B4BA3EEAC90B4F3CE5ACE9B77
:102E6000CE9BCE9BCE9BCE9BCE9BCE9BCE9BCE9B1A
:102E7000C69ACE7ACE9AC69AC69AC69AC69AC67A82
:102E8000C67AC67AC67AC67AC67AC67AC67AC67A42
:102E9000C67AC67AC67AC679C659C659C65AC659B6
:102EA000C659C659C659C659C659C639C639C6398A
:102EB000C639C639C639C639C639C639CE79CE798A
:102EC000CE7ACE7ACE7ACE7ACE9AD69AD69AD69A2A
:102ED000D69AD6BAD6BAD6BAD69AD6BAD6BAD6BAB2
:102EE000DF1BC5D6AC4F8B4C832C93ED69E759663D
:102EF00061C759A66A077A6972486A076A076A2829
:102F00006A276A076A488B6CB4B2C575BD13AC50AA
:102F1000B4B1C533C554B491AC71B4B2BD13AC9166
:102F2000BD13BD13A450B4F3BCF3BD34BD34B471B0
:102F3000BD13BD13B491B4D2AC91A42FB4B2B4916B
:102F4000A450A3EFB4B29C0F93AE8B4C726972285D
:102F500072697269830B9BEEAC2FB4D2CE7ACEBB72
:102F6000CEBBCEBBCEBBCEBBCE9BCE9BCE9BCE9B99
:102F7000CE9BCE9BCE9BCE9BCE9ACE9ACE9ACE9A0D
:102F8000CE9ACE9AC69AC69AC69AC69AC67ACE7A69
:102F9000C69AC69AC69AC69AC67AC67AC67AC67AB1
:102FA000C67AC679C659CE5AC659CE59C659C659D7
:102FB000C659C659C659C639C639C639CE79CE7929
:102FC000CE7ACE7ACE9ACE9ACE9AD69AD69AD6BAC9
:102FD000D6BAD6BAD6BAD6BAD6BAD6BAD6BAD6DB50
:102FE000DEFBBD34A3EE830B93AD8B6C5185514555
:102FF0005165598672287248722869E769E761E766
:1030000061E76A487AEAA40FBD13C575B490A42F8E
:10301000BD12C554BCF3AC50AC71B4D2B4B2AC91D7
:10302000C575AC50A40FBD14BCF2C575BD14AC5031
:10303000C534BCD2AC91B4B2A40FA40FB4D2B49135
:10304000A40FA3EFBCF3AC7193CE832C722869E775
:103050006A286A287A8993ACA40EACD1CEBBCEDBA9
:10306000CEBCCEBBCEBBCEBBCEBBCEBBCEBBCEBB17
:10307000CEBBCEBBCE9BCE9BCE9BCE9BCE9BCE9BC8
:10308000CE9BCE9BCE9BCE9BCE9BCE9BCE7BCE7A39
:10309000CE7ACE7ACE9ACE9ACE7AC67AC67ACE9AA0
:1030A000C67AC67ACE7ACE7AC67AC67ACE7AC65929
:1030B000C659C659C659C659C659C659CE7ACE7AC6
:1030C000D69ACE9ACE9ACE9ACE9AD69AD69AD69AA0
:1030D000D6BAD6BAD6BAD6BAD6BAD6BBD6BADEDB46
:1030E000D6BABCD19BAD8B4CA40F82CA518651A6D7
:1030F0004945596669E76A0772276A0769E759A669
:1031000061E77A88934CB4B2C575BD33A3EEAC7059
:10311000BD33C595AC719B8DA40FAC91A3EFAC9161
:10312000B4B2936DAC91BD34BCD2CD96B4B2AC50B8
:10313000C534B471AC50B4B2A3EEAC50B4D2B4B197
:103140009BAEA430C513B4B293CE834D6A2861C739
:103150006A0869E87269934BA3CDACB1D6FCD6DCA2
:10316000CEBBCEBCCEBBCEBBCEBBCEBBCEBBCEBB16
:10317000CEBBCEBBCEBBCEBBCEBBCEBBCEBBCEBB07
:10318000CEBBCE9BCE9BCE9BCE9BCE9BCE9BCE9BD7
:10319000CE9BCE9BCE9ACE7ACE7ACE7ACE7ACE7A8D
:1031A000C67ACE7ACE7ACE7ACE7ACE7ACE7ACE7AE7
:1031B000C67AC659CE5AC659C659C659CE7ACE7A9B
:1031C000CE7ACE9ACE9ACE9AD69AD69AD69AD6BA9F
:1031D000D6BAD6BBD6BBD6BBD6BBD6BBDEBADEFC18
:1031E000CE58AC70936C8B6CA42F7A6949254945F5
:1031F0003925494561C669E769E7620759A65986D5
:103200007A89830A9BCEBD13C5B5AC70A3EEBD13FE
:10321000C554B491936C938C9BCE938D8B6C9BEE29
:103220008B4C8B0BA430AC70B4F3CDB6A40FAC5068
:10323000BCF3A430B491A42F938DB4B2BCD2A40F2C
:10324000938DB4F3BD34BD13A4508B4D6A6961C630
:1032500061A769E772488B4B93CCA4B1D6DCD6FC4E
:10326000D6DBCEDBCEDBCEDBCEBBCEBBCEBBCEBC8D
:10327000CEDBCEDBCEDBCEDBCEBBCEBCCEBBCEBB85
:10328000CEBBCEBBCEBBCEBBCEBBCE9BCE9BCE9B56
:10329000CE9BCEBBCE9BCE9BCE9BCE9BCE9BCE9AC7
:1032A000C69ACE9ACE9ACE9ACE9ACE7ACE7ACE9A26
:1032B000CE7ACE7ACE7ACE7ACE7ACE7ACE7ACE7ACE
:1032C000CE7ACE9AD69AD69AD69AD69AD6BAD6BA6E
:1032D000D6BBD6BBDEDBDEDBDEDBDEDBDEDBDF1C34
:1032E000C5B5A40F9BAD9BCE9BCE6A48410538E483
:1032F0003905494561C659C659A659A659866A284D
:103300007A898B2BACB1C554C575A3EEAC2FB4B183
:10331000B470936C82EA938D938D8B2B936C8B0B93
:103320007AA88B2B936C934CB491AC919B8DB4B2D7
:10333000AC70AC2FA450936CA40FBCF3AC70936C26
:10334000A3EEB4B2A4509C509C2F8B8D6A48598632
:1033500059A66A086A28830A93ACA491CE9BD6FD2D
:10336000D6DCCEDCD6DBCEDCCEDCCEDCCEDCCEDCFE
:10337000CEDBCEDBCEDBCEDBCEBCCEBCCEBCCEBB82
:10338000CEBCCEBCCEBBCEBBCEBBCEBBCEBBCEBBF3
:10339000CEBBCEBBCEBBCE9BCE9BCE9BCE9BCE9B85
:1033A000CE9ACE9ACE9ACE9BCE9ACE9ACE9ACE9ADC
:1033B000CE9ACE9ACE9ACE7ACE7ACE7ACE9ACE7A4D
:1033C000CE9AD69AD69AD69AD6BAD6BAD6BAD6BB04
:1033D000D6BBDEDBDEDBDEDBDEDBDEDBDEFCDEFB0C
:1033E000B4D29BAD93AE9BEE934C6228390431046A
:1033F0003904496659865985598659A66A077A89D2
:103400007A89A40EC534CDD6BD139BCDB491AC0F33
:103410008AEB82898B0B936C830B8B4C8B0B82A971
:103420008B2B9BAD9B8D936C9BAD8B0B9BCEB491EB
:10343000A3EE9BAD938CA40EB4B2AC50936C832BD3
:1034400093CD8B6C832B72C972A97B0B61E75145BD
:10345000598661E76A4882EA9BADA450CE7AD71DAF
:10346000D6DCD6DCD6FCD6DCD6DCD6DCCEDCCEDCBC
:10347000CEDCCEDCCEDBCEDBCEDCCEDCCEDCCEBC1E
:10348000CEBCCEDCCEBCCEBBCEBBCEBBCEBBCEBBD1
:10349000CEBBCEBBCEBBCEBBCE9BCE9BCE9BCE9B64
:1034A000CE9BCE9BCE9BCE9BCE9BCE9ACE9ACE9AD7
:1034B000CE9ACE9ACE9ACE9ACE9ACE9ACE9ACE9ACC
:1034C000D69AD69AD69AD6BAD6BAD6BAD6BAD6BBDB
:1034D000DEDBDEDBDEDBDEDBDEDBDEDBDF3CCE5855
:1034E000AC2F9BEE9BEE9BEE830B59E73124290416
:1034F000394549655145516651656207722769C66C
:10350000936CBD34C5B5CDB6A40F936CA3CE8AEB36
:103510007A698289930B8AEB8B0B8B0B8B0B9B8DC0
:10352000A42F9C0F93AD8B4C82EA932B936D938DBC
:103530009B8D9BADA40EAC50A40F936C8B2B8B6C0E
:103540008B4C936C8B6B8B4B7ACA6A075145494500
:1035500059866A086A48830A93ACA3EEC618D73D19
:10356000D6FCD6FCD6FCD6DCD6FCD6FCD6FCD6FCEB
:10357000D6DCD6DCCEDCCEDCD6DBD6DBD6DBCEDBD7
:10358000CEDBCEDBCEDBCEDBCEBBCEBBCEBBCEBB73
:10359000CEBBCEBBCEBBCEBBCEBBCEBBCEBBCEBBE3
:1035A000CE9BCEBBCEBBCEBBD6BBD6BBD69BCE9A1C
:1035B000D69BD69BD69BD69AD69AD69AD69AD69A88
:1035C000D69AD69AD69AD6BAD6BAD6BAD6BBDEDBB1
:1035D000DEDBDEDBDEDBDEDBDEDBDEFCE73DC5B6D5
:1035E000A3EEA40FA42F9BCE7AAA59E7312428E397
:1035F0003925494539243904518661C751657A898D
:10360000B4F2CD75CDD6BCD39B8C9BEE8ACA8269B1
:10361000828982CA8AEA8AEA8B0B932C9BEFAC5090
:10362000A4309BEE938C8B2B938D9BAD936C9BADB9
:10363000B450BCD2B471A40F9BCE9BAD9BEFA40F32
:103640009C0FA42FA430AC50A450832B5145494566
:1036500051A662286227832B938C93ADBDD7D73DAB
:10366000D6FCD6FCD6FCD6FCD6FCD6FCD6FCD6FCCA
:10367000D6DCD6DCD6DCCEDCCEDCCEDCD6DCCEDCDA
:10368000D6DCCEDBCEDBCEDCCEDCCEBCCEBBCEBB46
:10369000CEBBCEBBCEBBCEBBCEBBCEBBCEBBCEBBE2
:1036A000D6BBD6BBD6BBD6BBD6BBD6BBD6BBD6BB92
:1036B000D6BBD6BBD69BD69BD6BBD69AD69AD69A25
:1036C000D6BAD6BAD6BAD6BAD6BBD6BBDEDBDEDB26
:1036D000DEDBDEDBDEFBDEFBDEDBDF1CDEFCC5145F
:1036E000A3EFA40FA40F938D722861E73125310455
:1036F0003925392531044125518641044925A40F36
:10370000CD95CD75CDB5B450A40EBCF2AC2F9BAD0C
:10371000A3AD938D934C8B4C936D9B8EA3CF9BAE9F
:10372000A410A40F9BCEA3EFAC30AC4FB470B4B2D6
:10373000C534C534BCF3B471AC30AC50A471A471C1
:10374000A471AC91AC71AC71ACB2ACB2622840E483
:103750005186622872A98B6C8B4B8B6BBD96DF3EBA
:10376000D71DD6FDD6FCD6FCD6FCD6FCD6FCD6FCA6
:10377000D6FCD6FCD6FCCEFCCEFCCEDCD6DCD6DC31
:10378000D6DCCEDCCEDCD6DCD6DCD6DCCEDBCEDBCB
:10379000D6DCD6DCCEDBCEBBCEBBCEBBCEBBCEBB6F
:1037A000D6BBD6BBD6DBD6BBD6DBD6BBD6BBD6BB51
:1037B000D6BBD6BBD6BBD6BBD6BBD6BBD69AD69AC3
:1037C000D6BAD6BAD6BAD6BAD6BBDEDBDEDBDEDBFD
:1037D000DEDBDEFBDEFBDEFBDEFCE73DD69AB47112
:1037E000A40F9C0FA42F82EB720872283904188250
:1037F000206230A339053925412541047289BD1362
:10380000CD75C575CD55A42EB4D2C4F3BCD2BD13AD
:10381000BCF3B4B193AD7AEB72EA7AAA72AA726A77
:1038200082EBAC50AC92AC71AC71B4B2BCF3C534A9
:10383000CD75CD96C554BCD2AC91AC71A471AC71B0
:10384000ACB2AC71AC71A430AC71B4B26A6930A3E3
:1038500051A7722982CA830B82EA936CBD95DF5E01
:10386000D71DD6FCD71CD6FDD6FCD6FCD6FCD6FC84
:10387000D6FCD6FCD6FCD6FCCEFCCEFCD6FCD6DCE8
:10388000D6FCD6FCD6FCD6FCD6FCD6DCD6DCD6DC08
:10389000D6DCD6DCD6DCD6BBD6BBD6BBD6DCD6BC1B
:1038A000D6BBD6BBD6BBD6DBD6DBD6BBD6BBD6BB50
:1038B000D6BBD6BBD6BBD6BBD6BBD6BBD6BAD6BA82
:1038C000D6BAD6BBD6BBD6BBD6BBDEDBDEDBDEDBF9
:1038D000DEFBDEFBDEFBDF1CDEFBE75DCDF6AC30A6
:1038E000A40FA40F9BEF7A8972287268414551C7D3
:1038F00072AA59E728C320E43104516593ADC55439
:10390000CD75CDB5BCD2B491CD74C513BD13CD3436
:10391000C534A40F7ACB62285A48734E52277B4D88
:103920008B8F8B0BACB2BCD3B4D2BCF3C554CDB629
:10393000D5F7D5F7CDB6BD13B471AC71B4B2B4F34D
:103940009C0F938E82EB7ACB9BEFAC516A8A30C48A
:1039500059A772287AAA7A8A72888B2ABD34DF5EC8
:10396000D71DD6FDD71DD71DD71DD71DD6FCD6FC1C
:10397000D6FCD6FCD6FCD6FCD6FCD6FCD6FCD6FCB7
:10398000D6FCD6FCD6FCD6FCD6FCD6FCD6FCD6DCC7
:10399000D6DCD6DCD6DCD6DCD6DCD6DCD6DBD6DB99
:1039A000D6DBD6DBD6DBD6DBD6DBD6DBD6BBD6DBAF
:1039B000D6BBD6BBD6BBD6BBD6BBD6BBD6BBD6BB7F
:1039C000D6BBD6BBD6BBD6BBDEDBDEDBDEDCDEFBAE
:1039D000DEFBDEFCDEFCDEFCE73CE73CBD34A40F96
:1039E000AC30A42F936D72086A4872A9934CCCD363
:1039F000EE58C5544945188230E351E7A450C554E8
:103A0000CD95C574BCF2CD74CD75CD75C575C4F3B7
:103A1000A3CF72299BEF8BAD5A285AAC5A0794500A
:103A2000C65A8B0C9B6CBD34BD14C575CDB7D6186A
:103A3000DE79DE59D5F7BD33AC91AC91B4F2832C6D
:103A40005A076269834D6A296A288B8E626930E45D
:103A500059C772287AAA72896A688B0AB513DF5E21
:103A6000D71DD71DD71DD71DD71DD71DD71DD71DB6
:103A7000D6FCD71DD6FCD6FCD6FCD6FCD6FCD6FC94
:103A8000D6FCD6FCD6FCD6FCD6FCD6FCD6FCD6FCA6
:103A9000D6DCD6DCD6DCD6DCD6DCD6DBD6DCD6DB98
:103AA000D6DBD6DBD6DBD6DBD6DBD6DBDEDBDEDB7E
:103AB000D6DBDEBBDEBBD6BBD6BBD6BBD6BBD6BB4E
:103AC000D6BBDEDBDEDBDEDBDEDBDEDBDEFCDEFC14
:103AD000DEFCE71CE71CEF1CEF5DDEDAB491AC30D6
:103AE000A450A45082EB61E7724882CAB40EB40FAE
:103AF000ABEFB4109B2D598641046A6AAC91C53472
:103B0000CD95C534C554CDB5CD95D5D6D5F7C554CD
:103B1000A3EF9B6EC5149BF059A6620661C6945133
:103B2000D6FDBCF49B2CBCB2CDF7D5F7D618DE5928
:103B3000E6BADE79D617B513AC91BD347AEB3965A8
:103B40005A6B59E7A575AD3559A6620851E72904A6
:103B500059C77A497ACA62076A488B0AACF2DF5EB3
:103B6000DF3DDF1DDF1DDF1DDF1DDF1DD71DD71D65
:103B7000D71DD71DD71DD71DD6FDD71DD6FCD6FD09
:103B8000D6FDD6FDD6FCD6FCD6FCD6FCD6FCD6FCA3
:103B9000D6FCD6FCD6FCD6FCD6FCDEDCD6DCD6DBEE
:103BA000D6FCDEDCDEDCDEDCD6DBD6DBDEDBDEDB41
:103BB000D6DBD6DBDEDBD6DBD6DBD6BBD6BADEDBAE
:103BC000DEDBDEDBDEDBDEDBDEFBDEFBDEFCDF1C8A
:103BD000E71CE71CE73CEF1CEF7DD637AC50AC7020
:103BE000A4509BEE7A696A077AA9832BA38DA32D33
:103BF000ABCEA3CE92EB826A69E872ABAC91C554AE
:103C0000CD54C534CD75D5B6D5F7DE18DE58DE38BF
:103C1000CDB6C514C514B4F493AE7AC97AEAB534F6
:103C2000C534BC51B472C534DE7ADE79DE38DE5973
:103C3000E69ADE79D5F7BD13C554A471492451C75E
:103C4000522951A694B2BDD769E7518649A728E405
:103C500061C7724872A962286A4882C9A491DF3D8F
:103C6000DF3EDF1DDF1DDF1DD71DDF1DDF1DDF1D5B
:103C7000D71DD71DD71DD71DD71DD71DD6FDD6FDE6
:103C8000D71DD71DD71DD71DD6FCD6FCD6FCD6FD1B
:103C9000D6FDD6FDD6FCDEFCD6FCDEFCD6FCD6FC82
:103CA000DEFCDEFCDEDCDEFCDEDCD6DBDEDCDEDBEE
:103CB000DEDBDEDBDEDBDEDBD6DBD6DBDEDBDEDB4C
:103CC000DEDBDEFBDEFBDEFBDEFCDF1CE71CE71CD5
:103CD000E71CE71CE73CE73CEF7DC554A42FAC7024
:103CE000AC30936D72077A69830B830BA34DA32CC1
:103CF000B491A4309B6E936E7A498B0CAC91C53411
:103D0000CD54CD54D595DDF7DE18E659E679E67940
:103D1000DE59DE38CD95CD95CDD7C576C575C53480
:103D2000C4D3BD33CDB6DE59DE9AE679DE59E679E5
:103D3000DE9AE69AD618BD34C575ACD272AB62284D
:103D400059E66268A4D4B4F4728A6A4949C728E47F
:103D500059A66A486A88624862487A88A491DF3E18
:103D6000DF3DDF1DDF1DDF1DDF1DDF1DDF1DDF1D53
:103D7000DF1DDF1DD71DD71DD71DD71DD71DD71D93
:103D8000D71DDF1DDF1DDF1DDF1DD71CD6FCD71C97
:103D9000DF1DD6FDD6FCD6FCDEFCD6FDD6FCDEFC57
:103DA000DEFCDEFCDEDCDEFCDEFCDEFCDEDCDEDCA3
:103DB000DEDCDEDBDEDBDEDBDEDBDEDBDEDBDEFB1A
:103DC000DEFBDEFCDEFCDEFCDEFCDF1CE71CE71CB1
:103DD000E71CE71CE71CEF7DDEDAAC70AC30AC30E2
:103DE0009C0F82EB720782AA830B7ACAA38DABAEBB
:103DF0009B4DAC51A40F7A6A82AA93ADAC91C534A5
:103E0000CD74CD75D5B6DE17DE38E659E679E69A7B
:103E1000E67ADE7ADE59DDD7CDB6CD95CD95CD7576
:103E2000CD96CDD7D618DE9ADEBAE679DE59DE59C0
:103E3000E69AE69AD618C575BD34C575C575B4F34E
:103E400093AD9BEFACB29BEF834C836D49C730E3DE
:103E500061C66A4862276A696A497268A471DF5E4E
:103E6000DF3EDF3DDF3DDF3DDF1DDF1DDF1DDF1DF1
:103E7000DF1DDF1DDF1DDF1DDF1DDF1DDF1DDF1D62
:103E8000DF1DDF1DDF1DDF1DDF1DDF1DDF1DDF1D52
:103E9000DF1DD71DD71CD71CD71CD6FDD6FCD6FCE2
:103EA000DEFCDEFCDEFCDEFCDEFCDEFCDEFCDEDC62
:103EB000DEDCDEDCDEDBDEDBDEDBDEDBDEDBDEFB18
:103EC000DEFBDEFBDEFCDEFCDF1CDF1CE71CE71C90
:103ED000E71CE71CE73CF79EC595A40FA470A40F50
:103EE000938D7A497A488B2B82EA72489B8DB43045
:103EF0009B6D936D722892EB9BAE8B6DA450C55455
:103F0000CD54CD95D5D6DE17E638E658E679E69A53
:103F1000E6BAEE9AE67AE659DE18D5F7D5D7D5D7C0
:103F2000D5F8DE38E69ADE9AE6BADE9AE679E679E0
:103F3000E69AE69ADE38C595BD75C575C554C53493
:103F4000C4F4B491A40FA3EF9BEF9C3049C730C3D6
:103F50006A086A2759866A896A697248A470DF3DCF
:103F6000DF5EDF1DDF3DDF3DDF3DDF1DDF3DDF1DB0
:103F7000DF1DDF1DDF1DDF1DDF1DDF1DDF1DDF1D61
:103F8000DF1DDF1DDF1DDF1DDF1DDF1DDF1DDF1D51
:103F9000DF1DDF1DDF1DDF1DDF1DDEFCDEFCD6FCAF
:103FA000DEFCDEFCDEFCDEFCDEFCDEFCDEFCDEDC61
:103FB000DEFCDEDCDEDCDEDCDEDBDEDBDEDBDEFBF5
:103FC000DEFBDEFBDEFBDEFCE71CE71CE71CE71C80
:103FD000E71CE71CEF5DE73CAC71AC0FAC30A3EF26
:103FE0008B0C7A4882EA934C8AEB69E77AAAA3CED3
:103FF0008AEB7A499B6EC4F3AC50936DA410C53420
:10400000CD54CD95D5D6DDF7E638E658E679E69A73
:10401000E6BAEE9AEE9AE67AE65AE659E639E659B3
:10402000E679E69AE6BAE69BE69AE6BAE69AE67A90
:10403000DE9AE6BADE38CDB6C575C595C575C555E7
:10404000BD14BCD3B4D2B491AC71B49151C739048E
:104050006A2761C7516572AA6A897247A450D6FD62
:10406000E75EDF3DDF3DDF3EDF3DDF3DDF3DDF3D46
:10407000DF3DDF3DDF3DDF1DDF1DDF1DDF1DDF1D00
:10408000DF1DDF1DDF1DDF1DDF1DDF1DD71DDF1D58
:10409000DF1DDF1DDF1DDF1DDF1DDEFCDF1DDEFC84
:1040A000DEFCDEFCDEFCDEFCDEFCDEFCDEFCDEFC40
:1040B000DEFCDEFCDEFCDEFCDEDBDEDBDEFBDEFC73
:1040C000DEFBDEFBE71CE6FCDF1CE71CE71CE71B56
:1040D000E71CE73DF7BED6389BADAC30A3EF93AD00
:1040E00082897A898B4C936C7AA969E772278AEA6C
:1040F0007A89A3AEC4F4C596B4D2A3EFA40FBCF2E0
:10410000C554CD74D5B5DDD7E617E638E658E6795F
:10411000EE7AEE7AEE9AEE7AE67AE67AE679E67A60
:10412000E6BAE6BBE6BBE6BAE69AE69ADE79E67A56
:10413000DE9AE69AE659CDB5C595C595CD95CD954E
:10414000CD75C534C514C4F3BCD3BCF35A2841247F
:10415000724859C6598672CA728972279BEED6FC7C
:10416000DF7FDF3DDF3EDF3DDF3DDF5EDF3EDF3D0A
:10417000DF3DDF3DDF3DDF1DDF3DD73DDF3DDF1DA7
:10418000DF1DDF1DDF3DDF1DDF1EDF1DDF1DDF1D2E
:10419000DF1DDF1DDF1DDF1DDF1DDF1DDF1DDF1D3F
:1041A000DF1DDF1DDEFDDEFCDEFCDEFCDEFCDEFCFA
:1041B000DEFCDEFCDEFCDEDCDEDBDEDBDEFBDEFB93
:1041C000DF1CDF1CDF1CE71CE73DE73DE73CE73C6D
:1041D000E71CEF3CF7BEC5759BADA42F9BCE8B2B88
:1041E00082A98B0B938D934C6A076A0761C672088C
:1041F0008B0BBCB2C4F4CDB6BCD3B471A430B4B292
:10420000C534CD74D595DDD6DDF7E617E638E65929
:10421000E659EE7AEE7AEE7AEE7AEE7AEE7AEE9A67
:10422000EEBAEEBAE6BAE69AE69AE679E659DE79A9
:10423000E679E69AE679CDB6C595C575CD95D5B63C
:10424000D595CD75CD55CD34C514C4F362484924F8
:104250006A2859A661C772CA72A9724793EED6DC62
:10426000E79FDF5EDF5EDF3DDF3EDF5EDF3DDF5D80
:10427000DF3EDF3DDF3DDF3DDF1DDF3DDF3DDF3D7D
:10428000DF3DDF3DDF3DDF3DDF1DDF1DDF1DDF1DCE
:10429000DF1DDF3DDF3DDF3DDF3DDF1DDF1DDF1DBE
:1042A000DF1DDF1DDF1DDF1DDEFCDEFCDEFCDEFCB6
:1042B000DEFCDEFCDEFCDEDCDEDCDEDCDE36DE3719
:1042C000DE57DE57E677E698E698E699E6FBEF5D7F
:1042D000EF3DEF5DEF3DB491A3EE9BCE938D8AEA67
:1042E00082A98B2B93CD82EA61A66A28518661A6AA
:1042F0008289BC91C514BCF3BCD3B471A430B49111
:10430000C513C534CD95D5B6DDF7E5F7E618E63823
:10431000E639EE59EE5AEE7AEE7AEE7AEE7AEE9AC7
:10432000E69AE69AE67AE679E679E659DE59DE59C2
:10433000E679E6BAE699D5B6C554C575CD75D5B654
:10434000D595D575D555CD54CD34BCF36228598556
:1043500061E759A661E772AA72CA726893ADD6BBCB
:10436000E79FDF5EDF5EDF5EDF5EDF3DDF5EDF5E3D
:10437000DF3EDF3EDF3EDF3DDF3DDF3EDF3EDF3D58
:10438000DF3DDF3DDF3DDF1DDF3EDF1DDF3DDF1DAC
:10439000DF1DDF1DDF1DDF3DDF1DDF3DDF1DDF1DFD
:1043A000DF3DDF1DDF1DDF1DDF1DDEFCDEFCDEFC73
:1043B000DEFCDEFCDEDCDEDCDEDCDEDCE5D4E5F5CE
:1043C000E5F4E5F5E615E616DE15E636E677E6DA17
:1043D000EF3DF79FDE9AA3EEA3EE9B8D8B2B82EA37
:1043E0008B0B8B6C93AD6A0761C76A075186514589
:1043F0007A68BC71CD75C4F3C534B4B2A3EFB4719F
:10440000BCF2C534CD74D595DDD6DDF7E5F7E618F9
:10441000E638E659EE59EE59EE5AEE7AEE7AEE7A31
:10442000E67AE67AE679E679DE59DE38DE38DE3994
:10443000E659E6BAE69AD5B7C534C555D596D596A8
:10444000D596D576D555D534CD14BCB26208516514
:1044500059A661C662076A697B0A72A8832BD6DBFC
:10446000EFFFE79FEF9FE7BFE79FE79FE77FE77FCC
:10447000E77FDF7EDF7EDF5EDF5EDF3EDF3DDF5E2C
:10448000DF3DDF3EDF3EDF3DDF3EDF1DDF3EDF3D68
:10449000DF1DDF1DDF1DDF1DDF3DDF3DDF1DDF3DDC
:1044A000DF3DDF1DDF1DDF1DDF1DDF1DDEFCDEFC50
:1044B000DEFCDEFCDEFCDEFCDEDCDEDBE5F5E5F56D
:1044C000E5F5E615E636E636E636E677E636DE5715
:1044D000EF5CF7BFD6189BAD9BCD938C82EA8B0B1C
:1044E000934C9BEE830A61E661E76A07598649248B
:1044F0007207B42FD5B5CD95D5B6D5B6BCD2AC51D3
:10450000BCD2C513CD54CD95D5B6DDD7DDF7E617B2
:10451000E638E638EE59EE59EE5AEE5AEE7AEE7A71
:10452000E679E679E679E659DE38D5F7D5F7DE188B
:10453000DE59E6DBE6BBDDF7C514C555D5D7D5B6E4
:10454000D5B6D575D555D534CCF4B47161E75145A0
:10455000518561E76A696A69830B72A982CAC5B726
:10456000C67ABE38C618C618C618C618BE38BE18D1
:10457000BE18C5F8BDF8BDF8C659BE39B5D7BE39A5
:10458000DF5EDF3EDF3DDF3EDF3DDF3EDF3EDF3D26
:10459000DF3DDF1DDF1DDF1DDF1DDF1DDF1DDF3DFB
:1045A000DF3DDF1DDF1DDF1DDF1DDF1DDEFCDEFC4F
:1045B000DEFCDEFCDEFCDEFCDEFCDEDCDDF5DE153A
:1045C000E615E636E636E636E636E677E657E67789
:1045D000EF5DF7DFCDF6936C9BAD8B2B8B0B936C64
:1045E0009BAE9BCD7A8961E761C761C759865165EA
:1045F0006A077AC9CD54E658CD96CD95C574AC916D
:10460000B4B2BCF3C534CD75D596DDD6DDF7DE1773
:10461000E618E638E659EE59EE59EE59E679E679AC
:10462000E679E659E659DE38DE17DDF7DDF7DE1804
:10463000DE58E6FCEEFCDE18C554C575D5D7D5D7D7
:10464000D5B6D595D575CD34C514A3CF59A651652A
:1046500059A661E76A487ACA830B7AC97AA8CDF766
:10466000DEFCD6BBD69AD69BD69BD6BBD6BBD69BFA
:10467000D69BD67AD67AD659D679CE59D659C63956
:10468000D71DDF5EDF5EDF3EDF3EDF3EDF3EDF3E2B
:10469000DF3DDF3DDF3DDF1DDF1DDF1DDF1DDF3DBA
:1046A000DF3DDF3DDF1DDF1DDF1DDF1DDEFDDEFC2D
:1046B000DEFCDEFCDEFCDEFCDEFCDEFCDDF5E61511
:1046C000E5F5E615DE36E615E616E677E656E698F3
:1046D000EF3DFFBFCDD6938C936C8B0B8B4C9BCD5A
:1046E000A3EE934C61E759E759E751665965514587
:1046F0006A6972A9726AD5B6E618CD75CD75BD1412
:10470000B4B2BCD3BD13C554CD95D5B6DDD7DDF756
:10471000E617E638E638E659EE59E679E679E679BD
:10472000E679E659E638DE17D5F7DE18DE38DE38EA
:10473000E639EEDCE6DBDE18CD75CD95D5D7DDF7B5
:10474000D5D6D596D575CD34CD348B2C4924598604
:1047500059E762286A6972AA832B830A7AA9BD5431
:10476000CE38CDF7CDF7C5F8C5F7C5D6BDB6BD96E1
:10477000BD95BD75BD74B554B553AD33ACD2BDB6A2
:10478000DF7EDF5EDF3EDF3EDF3EDF3EDF3EDF3EE1
:10479000DF3EDF3EDF3EDF3DDF1DDF1DDF1DDF1DB6
:1047A000DF3DDF3DDF1DDF1DDF1DDF1DDF1DDF1DE9
:1047B000DEFCDEFCDEFCDEFCDEFCDEDCDDF5DE1538
:1047C000E615E615E636E616E616E677E656E699C7
:1047D000EF3DF7BECDB5936B934C8B2B9BCEA45086
:1047E000A40E620749856A2759A649855165412467
:1047F000620793CE61E761A69BEFCD75DDB6BCB2D3
:10480000AC91BCF3BCF3C534CD95D5B6D5D6DDF7A8
:10481000DDF7E618E638E659E679E679EE99E679C5
:10482000E679E658DE38D5F7D5D7DE17D617CDB6F8
:10483000DE18E639DE38CDD7BD14CD75DDF7DDF7EE
:10484000D5D6D5B6D595CD34C5136A49490459A6F0
:1048500061E76A2872CA72CA7AC9830A832AACD00D
:10486000B531ACF1B511ACF1ACF1ACF1B4F1ACF1E6
:10487000ACD1ACF1ACF0ACF1ACF1ACF1ACAFB57526
:10488000E77FDF5FDF3EDF5EE73EDF3EDF3EDF3EAE
:10489000DF3EDF3EDF3DDF1DDF1DDF1DDF1DDF1DD6
:1048A000DF3DDF3DDF1DDF1DDF1DDF1DDF1DDF1DE8
:1048B000D6FCDEFCDEFCDEFCDEFCDEDCDDF5DDF560
:1048C000E615E636E636E636E636E678E637DEB96B
:1048D000EF5DF7BFC575934B8B0A938DAC91AC71AF
:1048E0007AEA412359E661E65165516551854924CB
:1048F00051868B8E834C59E759E762486269396566
:1049000093CFCD54BCF3C533CD55D595D5B6DDD6B3
:10491000DDF7DE17E638E638E659E679E679E67936
:10492000E679E658DE38DE38D5B6D5757A8A69C7B5
:10493000C4F3CDB6CD96B491AC70CD95DE17DDF74E
:10494000D5D7D5B6CD75CD75AC304965494559C675
:104950006228622872AA72A9726882EA834BB4F153
:10496000C5D4BD73BD93BD73BD73BD73BD73BD535E
:10497000BD53BD53BD53B533B532B532B4F1BDB639
:10498000E77FE75EE75EE75EDF5EDF3EDF3EDF3E5E
:10499000DF3EDF3EDF3EDF3DDF3EDF3DDF1DDF1D73
:1049A000DF1DDF1DDF1DDF1DDF3DDF1DDF1DDEFD28
:1049B000DEFCDEFCDEFCDEFCDEFCD6FCDE15DE15FD
:1049C000DE15DE16E616E616E636E698E657E6BA91
:1049D000E73CF79EBD758B2A934BAC71B4D28B4CE0
:1049E000494559E66A68516649455166518651659F
:1049F00049456248938E7ACA7ACA59C7184100005D
:104A00006ACBCD75BCF3C534C554CD95D5B6D5D6D6
:104A1000DDF7DDF7DE17E638E638E659EE59E679D8
:104A2000E679E658E659E69ADDF7C4B29B0CA32C6A
:104A3000B42FBCD2AC50A36DB491CDD6D5F7DDF771
:104A4000D5D7D5B6CD74CD75830C38E3498551A63D
:104A50006A696A286A486A687AA982C9832BB4F1AC
:104A6000C594BD73BD73BD53BD73BD73BD53BD52FE
:104A7000BD52BD52B532B532B532B532B4F1BDB664
:104A8000E77FE77EE75EDF5EDF5EDF3EDF3EDF3E45
:104A9000DF3EDF3EDF3EDF3EDF3EDF3DDF1DDF1D71
:104AA000DF1DDF1DDF1DDF1DDF1DDF1DDF1DDF1D26
:104AB000DEFDD6FCDEFCDEFCD6FCD6FCDDF5DE152C
:104AC000DE15DE16E636DE16E636E698E677E6BA58
:104AD000E73CEF9EC5758AE9A40FB4F3A42F61E704
:104AE000494572896A2749655166518651A651C662
:104AF0004965496572AA7AEB7AEB7ACA620718A20D
:104B00002904A491C534C534C554CD75D595D5B601
:104B1000D5D6DDD7DDF7DE18E638E658E659E67972
:104B2000E658E679E699E6BAE69ADE38DE38DE3807
:104B3000C513B450AC10B491BD34CDB6D5F7D5F78C
:104B4000D5D6CDB5C574B4D259C749454945518666
:104B50007269620762286A487AA982C9830AB51213
:104B6000C594BD53BD53BD73BD73BD53BD53BD523D
:104B7000BD52BD52BD52B532B532B532B4F1BDB63B
:104B8000E77FE77EDF5EE75EE75EE75EDF5EDF3EF4
:104B9000DF3EDF3EDF3EDF3EDF3EDF1DDF3DDF1D70
:104BA000DF1DDF1DDF1DDF1DDF1DDF1DDF1DDF1D25
:104BB000DEFDD6FCD6FCDEFCD6DCD6FCDE15DE1631
:104BC000DE16DE16E636DE16E636E678DE37E6BABE
:104BD000E73DEF7EC554934BACB2AC9182CA518590
:104BE0006A4872685986516559A65186494559C621
:104BF0005985492551866A897B0B834C7A89498678
:104C000008217B2CC575BD13C554CD75CD95D5B682
:104C1000D5B6D5D6D5F7DE17E638E638E658E679C4
:104C2000E679E69AE6BAE69AE6BAE6BAE6BAE69A25
:104C3000CDB7C554BD34BD13C574CDB6D5D6D5D604
:104C4000CDB6C595CD95938E4104518641045186CC
:104C5000728961E759E772887A8982EA82EAACD080
:104C6000C5B4BD73BD73BD53BD73BD53BD53BD53FB
:104C7000BD52BD52BD52BD32B532B532B4F1BDB632
:104C8000E77FE77EDF5EE75EE75EE75EDF5EDF5ED3
:104C9000DF3EDF3EDF3EDF3EDF3EDF3DDF3DDF3D2F
:104CA000DF1DDF1DDF1DDF1DDF1DDF1DDF1DDF1D24
:104CB000DF1DD71CD6FCDEFCDEFCD6DCDDF5DE1508
:104CC000DE15E616E636DE36E657E678BD34DE99C2
:104CD000E75DEF5DC574A430AC928B4C72286A48D6
:104CE00072896A27598661A661C74925492559C72E
:104CF00059C65165410459E77289832C7AEB6208E1
:104D000020C349C7B4D2BD13C554CD75CD95CDB61A
:104D1000D5B6D5D6D5F7DDF7DE17DE38E658E65935
:104D2000E679E69AE6BAE6BAE69AE69AE6BAE6DA04
:104D3000DE38D638CE17C575C595CDD6D5D6D5B6FD
:104D4000CD95C534C5336A4840E451653104498680
:104D5000728961C659C672687AA982E97AC9ACD1EA
:104D6000C5D4BD73BD73BD73BD73BD73BD73BD735A
:104D7000BD53BD52BD52BD32BD32B532B4F1BDB628
:104D8000E77FE77EE75EE75EE75EE75EDF5EDF5ECA
:104D9000DF3EE75EDF3EDF3EDF3EDF3EDF3EDF3D04
:104DA000DF3DDF1DDF1DDF1DDF1DDF1DDF1DDF1D03
:104DB000DF1DD71CD6FCD6FCDEFCD6DCDE15DE15EE
:104DC000DE15E616E636DE36E677E677BD34DEDB60
:104DD000E73CEF7DCDF7AC5093AE72A97ACA7ACAA0
:104DE0007288620761C66A0759864905514561C7DD
:104DF00059C6516549454125622872CA7AEB72AAA3
:104E0000416520C3938EBCF3BD34C575CD95CDB639
:104E1000CDD6D5D6D5F7D5F7DE17DE17E638E65965
:104E2000E679E699E699E6BAE6DBE71CE69ADDF86C
:104E3000DDD8E618D596CDB6CDD6CDB6CDB6CD95C6
:104E4000C554C55493CE410451454965310451C6FA
:104E50006A4861C759A66A087ACA82C97AA9ACB0F9
:104E6000C5D4BD73BD73BD73BD73BD73BD73BD5379
:104E7000BD52BD52BD52BD32BD32B532B511BDB607
:104E8000E77FE77FE75EE75EE75EE75EE75EE75EB8
:104E9000DF3EE75EDF3EDF3EDF3EDF3EDF3EDF3D03
:104EA000DF3DDF3DDF1DDF1DDF1DDF1DDF1DDF1DE2
:104EB000DF1DD6FCD6FCD6FCD6FCD6FCDE15DE15F6
:104EC000DE15E616E636DE36E677E678DE57E6FCF1
:104ED000E73CEF7EC595936D830B834B7AEA7AAA04
:104EE0007AA96A276A2859865125492559866A0868
:104EF00051A6494541453924494572897B4C830B6C
:104F000051C628A372CBAC91BD13C554CD95CDB677
:104F1000CDD6D5D6D5D6D5F7DE17DE17DE17DE38D7
:104F2000DE58E679E6BAE6DBE6BADD96CC11D3D1F7
:104F3000D453CC32C36FBC31C595C5D6C5B5C555A4
:104F4000BD33BD33622838A351864145414561E7F1
:104F500069E759A659866A087AA982A97AA9A42E6E
:104F6000C5D4BD73BD73BD73BD73BD73BD73BD7358
:104F7000BD53BD53BD52BD52BD32BD32B511BDB6DC
:104F8000E77FE77FE77EE77EE75EE75EE75EE75E77
:104F9000DF5EDF5EDF5EDF5EDF3EDF3EDF3DDF3DAB
:104FA000DF3DDF1DDF1DDF1DDF1DDF1DDF1DDF1D01
:104FB000DF1DD71CD6FCD6FCD6FCD6FCDE15DE15D4
:104FC000DE16E616E636DE16EE77E678DE57DEFB10
:104FD000E79EDEDA9BCD8B2B938D8B4C72A9832BB6
:104FE0008B2B726959865965618661A669C769C745
:104FF000518649654145394541256208836D7AEB03
:10500000622838E4628A9C30AC71BD34C554CD95B9
:10501000D5B6CDD6D5D6D5D6D5F7D617D617D5F79A
:10502000CDD6C574CD75CCF4BB8FAA8BAA6BB2CC90
:10503000C34EBB2DAACBB32CBC91BD54BD54BD14E3
:10504000CD7493AD38C3516649864945518569C7CA
:1050500061E7514559866A277A8982AA82A9A42ED6
:10506000BD93C593BD73BD73BD73BD73BD73BD7378
:10507000BD53BD53BD52BD52BD32BD32B511BDB6DB
:10508000DF5FE77FE77EE77EDF7EE75EDF5EE75E8E
:10509000DF5EDF5EDF5EDF5EDF3EDF3EDF3EDF3EA8
:1050A000DF1DDF1DDF1DDF1DDF1DDF1DDF1DDF1D20
:1050B000DF1DD71CD6FCD6FCD6FCD6FCDE15DE16D2
:1050C000E616E616E636DE36E698E677DE58DF1CAC
:1050D000EFDFBD348B0AA3EE93AD7AA98B6C93CD31
:1050E0007A69598659C661E76A2869E769A661C77E
:1050F0005986516549653924416662277B0C832BAB
:105100006A69496559E89C3093EFB4B2BD34C5541F
:10511000CD95CDB6CDD6D5D6D5D6D5F7D5F6CDD677
:10512000C595AC109A6AAA6AAA4BA26BAAAB92095F
:1051300099E999C881A799E8A36DB4D2BCF3C55485
:10514000BCF24986492451A749254945598661E75A
:1051500061C7494559866A07726982A98AEAA42EFD
:10516000BD52C5B3BD93BD73BD73BD73BD73BD7378
:10517000BD53BD52BD53BD52BD52BD52B511BDB69A
:10518000E77FE77FE75EE75EE75EE75EE75EE75EB5
:10519000E75EDF5EDF5EDF5EDF3EDF3EDF3EDF3E9F
:1051A000DF3DDF3DDF1DDF1DDF1DD71DDF1DDF1DE7
:1051B000DF1DD71CD6FCD6FCD6FCD6FCDE15DE15D2
:1051C000E616E616E636DE36EE98E677DE78EF7E11
:1051D000D659938C9BCEAC91830B93AD9BEE7268AA
:1051E00059656A286A4862276A4861E66A486A48D7
:1051F00059C7412551864945392459E77AEB832C13
:1052000072AA496551869C1093EF9BEFB4D2BD34CE
:10521000C554CD95CDB6CDB6CDD6CDD6CDB6CD95E2
:10522000C5B6CD95BC31CBD0D433DCD6DC94D3B16C
:10523000C32EC2EDB2CC9A8BAC30B513BD13CD7476
:1052400072CA28A3620749454124496551866A27E5
:1052500059A6494559C759C672487A88830A9C0E8F
:10526000B532C5B4BD73BD73BD73BD73BD73BD73BE
:10527000BD73BD53BD52BD52BD52BD53B511BDB678
:10528000E77FE77FE75EE77EE75EE75EE75EE75E94
:10529000E75EDF5EDF5EDF5EDF3EDF3EDF3EDF3D9F
:1052A000DF3DDF3DDF1DDF1DDF1DDF1DDF1DDF1DDE
:1052B000DF1DDF1DD6FCD6FCD6FCD6FCDE15DE15C8
:1052C000DE16E636E636E636EE98E656DE99EF7EF0
:1052D000AC708AEAACB2B4D29BCDA40F82CA6A2762
:1052E000728972696A6872C972886A486A487268A3
:1052F0006207392451A64145390459C7830C7B0BF9
:105300006A694986416593AEAC719BCFA410B4D253
:10531000BD34C574CD95CD95CDB6CDB6CDB6CDD673
:10532000CDB6D5D6D5D6CCF3CC11D432DC53DC12E5
:10533000D3F1D3B0C38EBCB2BD13B4F3C5549C0F2C
:1053400028A3416661E749454124494551866A07DA
:1053500061A7516659C759A672287A88832A9BED9E
:10536000BD32C5B4BD73C594BD93BD73BD73BD736C
:10537000BD73BD73BD53BD53BD53BD53B532BDD613
:10538000DF5EE77FE75EE77EE77EE77EE75EE75E7C
:10539000DF5EDF5EDF5EDF3EDF5EDF3EDF3EDF3DA6
:1053A000DF3DDF3DDF1DDF1DDF1DDF1DDF1DDF1DDD
:1053B000DF1DDF1DD6FDD6FCD6FCD6FCDDF5DE15E7
:1053C000DE16E636E616E636EE98E657EEDBD69AB9
:1053D000936C93ADBD54B4D29C0E938C8B2B830BEA
:1053E00072897289834B832B72686A6872687268EB
:1053F00059A6412549854966312449857AAA82EB17
:10540000620751A641458B8DB4B2A45193AEA42F2F
:10541000BCF2BD34C575C595CDB5CDB6CDD6CDD60E
:10542000CDB5CD95CD95C534C491C3EFC3CFBBAE3B
:10543000BBAEBBCEBC51B4F2B4D2BD13BD136248F7
:10544000206251A6518649654945496559C661E7BB
:1054500061C759C661E661E661E77AA9832A9BEDD7
:10546000B511C5D4BD93C593BD93BD93BD73BD7335
:10547000BD73BD73BD73BD53BD53BD53B531BDD6F3
:10548000DF5EE77EE77EE77EE77EE75EE75EDF5E84
:10549000DF5EDF5EDF3EDF5EDF5EDF3EDF3EDF3EA4
:1054A000DF3DDF3DDF1DDF1DDF1DDF1DDF1DDF1DDC
:1054B000DF1DDF1DD6FDD6FCD6FCD6FCDDF5DE15E6
:1054C000DE16E636E636E637EE98E677E6FBB4F328
:1054D000936CB4D2C595AC7193EE93CD93AD7AA98C
:1054E0007AAA7B0B832B7ACA72486A487AEA6A27BF
:1054F0004965394551C651A628E44965728A7ACA78
:105500006A49518649868BAEACB2ACB2A4309BCE10
:10551000AC30BCF2BD34C575CDB6CDB6D5D6CDD682
:10552000CDD6CDB6CDB6CDB6C554BCF2BC71B47037
:10553000BC91B4D2B4F2B4F3BCF3BD13B4F172EACB
:1055400038E45185496551865166516559E759C717
:1055500059A661E76A2859A661C682C98B4A9C0D83
:10556000B511C594BD93C593BD93BD93BD73C5944B
:10557000C594BD73BD73BD73BD53BD53B531BDD6A9
:10558000DF5EE79EDF7EDF7EDF7EE77EE75EDF5E5B
:10559000DF5EDF5EDF5EDF5EDF5EDF5EDF3EDF3E63
:1055A000DF3DDF3DDF1DDF1DDF1DDF1DDF1DDF1DDB
:1055B000DF1DDF1DD71DD6FCD6FCD6FCDE15DE15A3
:1055C000E616E636E636E657E698E677DE99A3EF86
:1055D000A40FBD13BD54AC919C0F9C0E7B0A7AA9FD
:1055E000834B7AC97B0A7B0A6A487289830A6207FD
:1055F000416531655A28518528E449A67ACA7ACA94
:1056000072495186414593CEACD2B4D2B4B2AC719A
:105610009BEFAC30B4D2BD34C595CDD6D5F7D617F7
:10562000D617DE38DE38DE58DE79DE59D617CDF7EC
:10563000CDB6C575C534BD13CD7593CEA49093ED8D
:1056400040E34965494559665145518659C759E76F
:105650006207620759C749656A0782E98B0A9C0E8F
:10566000B532C5B4BD93C593C573BD73BD73BD736A
:10567000BD73BD73BD53BD53BD52BD53B511BDD632
:10568000DF5EE79FDF7EE77EDF7EDF7EDF5EE75E59
:10569000DF5EDF5EDF5EDF5EDF5EDF3EDF3EDF3E82
:1056A000DF3DDF3DDF1DDF1DDF1DDF1DDF1DDF1DDA
:1056B000DF1DDF1DDF1DD6FDD6FCD6FCDDF5DE15BA
:1056C000E616E636E636E657E698E698CDF79B8D81
:1056D000AC50BD13C595A450A4508B8D72A993CD29
:1056E0007AEA82EA8B8C7B0A72898B4C830A59A6F0
:1056F0004125418662274985310451E77ACA7AAA51
:1057000072694165312493CEB4F3B513B4F3B4B2E6
:10571000AC719BEEAC2FB492C534CDB5D5F7D6376E
:10572000DE38DE38DE59E679E69AE6BAE699DE79C1
:10573000DE58D617C595C575AC9149459C4FA44F09
:10574000492431044124598659A6598661C659C74E
:1057500062086A0859A659A6724882EA830A9C0E12
:10576000BD52C5B4C593C593BD93BD73BD73BD7321
:10577000BD73BD73BD73BD53BD53BD53B531C5D6E8
:10578000DF5EE77EDF7EE77EDF7EDF7EDF5EE75E79
:10579000E75EDF5EDF5EDF5EDF5EDF3EDF3EDF3E79
:1057A000DF3DDF3DDF1DDF1DDF1DDF1DDF1DDF1DD9
:1057B000DF1DD71DD71DD6FCD6FCD6FCE615DE16A0
:1057C000E636E636E636E658E698E698CD95A3AD99
:1057D000B4D2BD13BD54A4509C30836C940E8B6C1A
:1057E0007288834C836C72887AEA8B8C6A895166E2
:1057F000390549856207498539246A087ACB72AA36
:105800007289416541659BEFB4F3B513B513B4D309
:10581000B4B2AC91A42FA40FAC71BCF3C595D6174C
:10582000D617DE58DE58DE58DE58DE38DE38DE3871
:10583000D5F7CDD6CDB5C57451A63082A48FBCF1B5
:10584000518530A3494559A659A659A6518659A64E
:105850006A48622859E76A287A8982C98B4AA46F04
:10586000BD53C594C594C593BD93BD73BD73BD733E
:10587000BD73BD73BD73BD53BD53BD53B532C5D6E6
:10588000DF3EE77FDF7EDF7EDF7EDF7EDF5EE75E9F
:10589000E75EDF5EDF5EDF5EDF3EDF3EDF3EDF3D99
:1058A000DF3DDF3DDF3DDF1DDF1DDF1DDF1DDF1DB8
:1058B000DF1DD71DD6FDD6FCD6FCD6FCDE16DE16C7
:1058C000E616E636E636E678E678E699C596A3EE7D
:1058D000B514BD34ACB29C2F8B8D93EF9C507B0ADA
:1058E0007AE9838C7AEA7AA9834B7AC9624759A606
:1058F000414549A66A684986414462287ACB72AA22
:10590000728951A659C79BEFB513B513B533BCF3D4
:10591000B4F2B4B1AC91A450A42FAC50B4B1BD5406
:10592000CDD6D5F7D617DE17DE17D617DE17D5F783
:10593000CDB6CDB6C5956A6A30624144A48FCDB369
:105940006A6830E4492559A659A661C7518651862F
:1059500072486A4859E7726982C983098B6BACB097
:10596000BD73BD93BD93BD73BD73BD73BD73BD7377
:10597000BD53BD73BD53BD52BD52BD52B511BDB572
:10598000DF5EE77FDF7EDF7EDF7EDF5EE75EE75E96
:10599000DF5EDF5EDF5EDF5EDF5EDF3EDF3EDF3D80
:1059A000DF1DDF3DDF1DDF1DDF1DDF1DDF1DDF1DF7
:1059B000DF1DD71DD6FDD6FDD6FCD6FCDE36DE16A5
:1059C000E636E636E636E678E677E699C5B6AC70B2
:1059D000BD74B5139BEF8BAD8BAEA4718B8C72C96C
:1059E0008B6C8B8C7AC9832A72896A6872CA61E768
:1059F00041865A276A8849454966620882EC728A5C
:105A00007ACA62286207A450B533B533BD34BD34B9
:105A1000BD13BCD2B4D2B4B1AC70AC50AC50B47104
:105A2000BCF3C554CD75CD95CDB5CDB6CDB6CD9520
:105A3000CD95C55472CA308249254944A46FCDD44E
:105A40008B8B416538C359E7620761C659A659C7B0
:105A500072896A486A287A6882E98B2A93ACB51100
:105A6000BD73BD73BD73BD73BD73BD73BD72BD73B7
:105A7000BD53BD52BD52B532B532B532B511BD952B
:105A8000DF3EE77FDF7EDF5EDF5EDF7EE75EDF5EDD
:105A9000E75EDF5EDF5EDF5EDF5EDF3DDF3DDF3D79
:105AA000DF3DDF3DDF3DDF1DDF1DDF1DD71DDF1DBE
:105AB000DF1DD71DD6FCD6FDD6FCD6FCE616E63695
:105AC000E636E636E636E678E677E6B9C5B6ACB150
:105AD000BD74AC918B4B93EEA471A4718B2B7AE9BE
