:020000040800F2
:1000000080040020010100083B0D0008990C000845
:10001000390D000899010008DD0D000800000000FE
:100020000000000000000000000000003F0D00087C
:1000300085040008000000003D0D0008410D000887
:100040001B0100081B0100081B0100081B01000820
:100050001B0100081B0100081B0100081B01000810
:100060001B0100081B0100081B0100081B01000800
:100070001B0100081B0100081B0100081B010008F0
:100080001B0100081B0100081B0100081B010008E0
:100090001B0100081B0100081B0100081B010008D0
:1000A0001B0100081B0100081B0100081B010008C0
:1000B0001B0100081B0100081B0100081B010008B0
:1000C0001B0100081B0100081B0100081B010008A0
:1000D0001B0100081B0100081B0100081B01000890
:1000E0001B0100081B0100081B010008DFF80CD0F1
:1000F00000F040F800480047A90F000880040020E5
:100100000648804706480047FEE7FEE7FEE7FEE7B1
:10011000FEE7FEE7FEE7FEE7FEE7FEE7950D0008D7
:10012000ED000008D2B201E000F8012B491EFBD21D
:1001300070470022F6E710B513460A4604461946F2
:10014000FFF7F0FF204610BD30B50B4601460020FA
:100150002022012409E021FA02F59D4205D303FA89
:1001600002F5491B04FA02F52844151EA2F101020A
:10017000F1DC30BD064C074D06E0E06840F00103BD
:1001800094E8070098471034AC42F6D3FFF7B2FF6B
:100190006010000880100008FEE72DE9F05F0446BB
:1001A000DDE91890DDE91465DDE912C7DDE90ABE75
:1001B0004FF01008DDF86CA084F800806170A27028
:1001C0006360A4F808B0C4F80CE00C9921820D9982
:1001D00061610E9921830F99E16110992184119930
:1001E0006162A4F828C0E7622686656316992187B4
:1001F0001799E163A4F8409060641A98A4F8480045
:10020000C4F84CA01C98A4F85000322000F03CF92F
:10021000382084F85500062184F852100C2084F808
:100220005300142084F854000022204600F0B7F850
:1002300094F853100022204600F0B1F894F85410BE
:100240000022204600F0ABF894F85510002220461A
:1002500000F0A5F800220121204600F0A0F8204679
:10026000BDE8F05F0022022100F099B808B510A3A4
:100270001B68009343788B4201D85B1ED9B2837808
:10028000934201D85B1EDAB21DF8022011440278B5
:10029000C9B2102A06D0002A03D141F0800100F033
:1002A00009F808BD41F08001002200F078F808BD8F
:1002B0000040145470B504460E090D4612B1012ACF
:1002C00004D008E021890022606802E0218901222F
:1002D000606800F0DBF9218F606B06F001020C34DE
:1002E00000F0D4F9A18EC6F34002206B00F0CEF9E5
:1002F000A18FC6F38002A06B00F0C8F9B4F84410D7
:10030000F208206C00F0C2F9A1880022206800F0F9
:10031000BDF9012000F0B8F8A1880122206800F0A2
:10032000B5F9012000F0B0F8A1880022206800F0A3
:10033000ADF9012000F0A8F805F00102A18DA06A36
:1003400000F0A4F9A18EC5F34002206B00F09EF9E5
:10035000A18FC5F38002A06B00F098F9B4F84410A7
:10036000C5F3C002206C00F091F9A188002220683A
:1003700000F08CF9012000F087F8A18801222068A4
:1003800000F084F9012000F07FF8A18800222068A5
:1003900000F07CF9BDE87040012000F075B870B540
:1003A0000D46044612B1012A04D008E0218900223A
:1003B000606802E021890122606800F067F9218B02
:1003C000606905F001020C3400F060F9A18AC5F300
:1003D0004002206900F05AF9A18BC5F38002A069A0
:1003E00000F054F9A18CC5F3C002206A00F04EF968
:1003F000A18DC5F30012A06A00F048F9A18EC5F3E3
:100400004012206B00F042F9A18FC5F38012A06B5F
:1004100000F03CF9EA09B4F84410206C00F036F919
:10042000A1880022206800F031F9012000F02CF8AA
:10043000A1880122206800F029F9012000F024F8A9
:10044000A1880022206800F021F9BDE87040012059
:1004500000F01AB80278102A04D0002A05D101222F
:10046000FFF728BF0122FFF79ABF704770B50C460F
:10047000054603E02846641CFFF7ECFF21780029BD
:10048000F8D170BD7047000070B5044600F004F963
:100490000546601C02D004480078044400F0FCF8D3
:1004A000401BA042FAD370BD040000202DE9F84F94
:1004B000DFF8B891002409F1040A0AF1040B23467D
:1004C0000F270BF1040EC9E00125A5402A40AA42DE
:1004D0007DD1674ED1F804C0ACEB0608B44532D0EC
:1004E00014DCBCF1030F3AD009DCBCF1000F2AD0B8
:1004F000BCF1010F1CD0BCF1020F31D11DE0BCF1E9
:10050000110F17D0BCF1120F2AD119E0B8F5881FCE
:1005100019D006DCB8F5803F15D0B8F5801F1FD183
:1005200011E0B8F5001F0ED0B8F5041F18D10AE08D
:10053000CB6815E0CB681B1D12E0CB6808330FE0D9
:10054000CB680C330CE08B682BB1012B4FF0080308
:1005500003D0456104E0042302E0056100E00023CC
:10056000FF2A01D8064601E000F104064FEA84059F
:1005700001D9A5F12005D6F8008007FA05FC28EA84
:100580000C0803FA05F548EA0508C6F800804D682E
:10059000ED0062D5374DAE6946F00106AE61AD693A
:1005A00024F0030605F001050095334D06EB050C1C
:1005B000DCF80850A607360F07FA06F825EA080502
:1005C000DFF8B880404503D14FF0000817E044E061
:1005D000DFF8AC80404502D14FF001080FE0DFF8B2
:1005E000A480404502D14FF0020808E0DFF898806F
:1005F000404502D14FF0030801E04FF0040808FA2B
:1006000006F848EA0508CCF808804D68D9F800607B
:10061000ED034D4601D5164300E096432E604D682C
:10062000DAF80060AD03554601D5164300E0964365
:100630002E604D68DBF80060ED025D4601D5164383
:1006400000E096432E604D68DEF80060AD0275460E
:1006500001D5164300E096432E60641C0D682A46BF
:10066000E5407FF431AFBDE8F88F000000040140A1
:10067000000011100010024000000140000801407D
:10068000000C014000100140001401400AB101615A
:1006900070470904FBE700000148806870470000CC
:1006A000040000200248816802781144816070478C
:1006B00004000020074810B5016841F010010160F6
:1006C000032000F067F8002000F006F800F024F89E
:1006D000002010BD0020024070B50D4D04464FF4BF
:1006E0007A712878B1FBF0F00A490968B1FBF0F0A3
:1006F00000F0BEFA48B9102C07D200222146501E45
:1007000000F028F800206C6070BD012070BD000072
:1007100004000020100000200C4808B5816941F059
:1007200001018161816901F001010091C16941F01C
:100730008051C161C06900F0805000900448416858
:1007400021F0E06141F00071416008BD00100240FD
:1007500000000140F0B40E4B1B680C46C3F30223AB
:10076000C3F10705042D00D90425191D072901D25D
:10077000002300E0DB1E012606FA05F1491E214098
:1007800099409E40761E16403143F0BC00F03CBBC1
:100790000CED00E0064900F0070208684FF6FF0381
:1007A000184040EA0220034A1043086070470000E6
:1007B0000CED00E00000FA052DE9F0470F460500BA
:1007C00061D0434E306800F00700B84209D230686B
:1007D00020F0070038433060306800F00700B8426E
:1007E00051D128683B4C810712D5400703D560687A
:1007F00040F4E06060602878000703D5606840F44A
:10080000605060606068A96820F0F0000843606094
:100810002878C00728D06868012810D021680228ED
:1008200010D0890700292EDA616821F00301014305
:100830006160FFF731FF804641F288390DE02168A1
:100840008903EFE78901EDE7FFF726FFA0EB080139
:10085000494502D90320BDE8F0876068696800F067
:100860000C00B0EB810FEFD1306800F00700B84208
:100870000BD9306820F0070038433060306800F052
:100880000700B84201D00120E5E72878400705D5E8
:100890006068E96820F4E060084360602878000739
:1008A00006D56068296920F4605040EAC1006060A4
:1008B00000F018F86168084AC1F30311515CC840A0
:1008C0000649086006480068FFF706FF0020C2E7F7
:1008D00000200240001002405010000810000020CC
:1008E0000800002012A185B00FC98DE80F0014A0E8
:1008F000144A006804905168134801F00C03042B5B
:1009000010D0082B0ED1C1F38343C9031DF8030097
:100910000AD5516804AAC1F34041515C0A4A5043C8
:10092000B0FBF1F005B0704708494843FAE7000012
:1009300002030405060708090A0B0C0D0E0F101020
:10094000010200000010024000127A0000093D0080
:100950002DE9F84F040070D02078C04DC00749D071
:100960006868C0F38100012807D06868C0F381007F
:10097000022809D16868C00306D52868800339D5E4
:1009800060680028E7D035E06068B0F5803F0BD0A4
:1009900010B1B0F5A02F11D0286820F48030286065
:1009A000286820F4802002E0286840F48030286025
:1009B000606890B1FFF770FE06460AE0286840F4D0
:1009C00080202860F0E700BFFFF766FE801B6428E8
:1009D00073D828688003F7D50CE0FFF75DFE064664
:1009E00005E000BFFFF758FE801B6428F0D8286898
:1009F0008003F7D420789A4E80074FF001094FF01A
:100A0000000839D5686810F00C0F07D06868C0F38B
:100A10008100022809D16868C00306D428688007CD
:100A200014D52069012808D110E02069B0B1C6F8BA
:100A30000090FFF731FE074605E00AE1FFF72CFEC4
:100A4000C01B0228C4D828688007F7D528686169C8
:100A500020F0F80040EAC10028600DE0C6F80080F0
:100A6000FFF71AFE074604E0FFF716FEC01B022838
:100A700023D828688007F7D4207800072CD5794838
:100A8000A169D9B1C0F80090FFF706FE074604E05F
:100A9000FFF702FEC01B02280FD8686A8007F7D54F
:100AA00071484FF4FA510068B0FBF1F0009000BFBC
:100AB0000098411E0091FAD20EE080E0C0F800805C
:100AC000FFF7EAFD074604E0FFF7E6FDC01B02283A
:100AD00075D8686A8007F7D42078400760D5E86940
:100AE0000027C00008D4E86940F08050E861E86958
:100AF000012700F0805000905C480168C90513D4BC
:100B00000168834641F480710160FFF7C5FD8246AC
:100B100006E000BFFFF7C0FDA0EB0A0064284ED836
:100B2000DBF80000C005F5D5E06801280AD008B15F
:100B3000052813D0286A20F001002862286A20F0D6
:100B4000040002E0286A40F001002862E06841F2F7
:100B5000883B98B1FFF7A0FD82460BE0286A40F081
:100B600004002862EEE700BFFFF796FDA0EB0A0144
:100B700059455AD8286A8007F6D50CE0FFF78CFD56
:100B8000824605E0FFF788FDA0EB0A0159454CD8E5
:100B9000286A8007F6D41FB1E86920F08050E86128
:100BA000E06988B36968C1F38101022944D0022851
:100BB000C6F8608004D0FFF76FFD044638E034E0EB
:100BC000FFF76AFD074604E0FFF766FDC01B022839
:100BD0002BD828688001F7D4206AB0F5803F05D172
:100BE0006868A16820F4003008436860D4E908010F
:100BF0000843696821F4741108436860C6F860907E
:100C0000FFF74AFD044606E025E000BFFFF744FD7C
:100C1000001B022809D828688001F7D51BE000BF17
:100C2000FFF73AFD001B022802D90320BDE8F88F28
:100C300028688001F4D40EE00128F7D06868226AA1
:100C400000F48031914204D1616A00F4701088424E
:100C500001D00120EAE70020E8E700000010024090
:100C60000000424280044242100000200070004018
:100C700010B5401EB0F1807F01D3012010BD4FF0B0
:100C8000E02460610F21601700F0BEF80020A06131
:100C900007202061002010BDFEE700002DE9F04391
:100CA00085B0002421480094019402940394816942
:100CB00041F020018161816901F020010491816985
:100CC00041F008018161816901F0080104918169A5
:100CD00041F0040181618069DFF8548000F0040074
:100CE0004FF478450490002229464046FFF7CEFC99
:100CF000DFF84090EF10002239464846FFF7C6FC67
:100D00000095022601250396CDE901546946404627
:100D1000FFF7CCFB00970396CDE90154694648469E
:100D2000FFF7C4FB05B0BDE8F083000000100240EF
:100D3000000C014000080140FEE770477047704713
:100D4000FFF7B0BC30B58FB028216846FFF7F1F946
:100D500014210AA8FFF7EDF901210804CDE90010DC
:100D60000024029402250491CDE907504FF4E010CD
:100D700009906846FFF7ECFD0F20CDE90A056802EF
:100D8000CDE90C4002210AA80E94FFF715FD0FB023
:100D900030BD00000D48016841F00101016041686B
:100DA0000B4A1140416001680A4A11400160016824
:100DB00021F480210160416821F4FE0141604FF47B
:100DC0001F0181600449C0030860704700100240A1
:100DD0000000FFF8FFFFF6FE08ED00E0FEE7000070
:100DE0000FB4084B10B504A902AA039800F02CF820
:100DF000044602A9002000F0D1F8204610BC5DF89E
:100E000014FB00009D0F00080907090E002804DBF1
:100E100000F1E02080F80014704700F00F0000F1AE
:100E2000E02080F8141D704702E008C8121F08C1B6
:100E3000002AFAD170477047002001E001C1121F5B
:100E4000002AFBD1704700002DE9FF4F89B09B4677
:100E50000446002506E025280BD05A460B999047FA
:100E6000641C6D1C20780028F5D10DB02846BDE823
:100E7000F08F0027B8460122474900E0074314F8E5
:100E8000013F203B02FA03F00842F7D120782E28D8
:100E900019D114F8010F47F004072A280ED06FF07B
:100EA0002F022078A0F1300109290CD808EB880125
:100EB00002EB410100EB0108641CF2E70A98641C94
:100EC00050F8048B0A9020780028CED0642808D0EF
:100ED000692806D075281ED05A460B9990476D1C7C
:100EE00058E00A994FF00A0901C90A91002802DA6C
:100EF00040422D2102E0390504D52B218DF8201028
:100F0000012103E0F90704D02021F7E78A4608AE63
:100F10000DE00021FAE70A994FF00A0901C90A9188
:100F2000F7E74946FFF710F9303106F8011D0028B0
:100F3000F7D1ADEB060000F12009780701D44FF09E
:100F40000108C84502DDA8EB090000E0002080464A
:100F5000002706E008A85A46C05D0B9990476D1C13
:100F60007F1C5745F6DB04E030205A460B9990472A
:100F70006D1CB8F10001A8F10108F5DC05E016F8D8
:100F8000010B5A460B9990476D1CB9F10001A9F16C
:100F90000109F4DC641C65E7092801000A68531C98
:100FA0000B6010707047000094B0FFF783FBFFF7F1
:100FB000C9FEFFF773FE4FF480601D4B4110CDE971
:100FC0000F31CDE911308110CDE90D3142011948C1
:100FD000CDE90B024214CDE907028901CDE90901EF
:100FE000C214CDE903028114CDE905010091CDE9D8
:100FF0000132022210211048FFF7CFF80F4C4FF4B6
:101000007A750D4822780EA15830FFF7E9FE0022CC
:1010100011460948FFF72AF9074907485831FFF7F1
:1010200025FA21782846491C2170FFF72DFAE8E7B8
:1010300000080140000C01401400002000000020C6
:101040004C43442044656D203A2025640000000094
:101050000000000000000000010203040607080968
:10106000801000080000002014000000280E000876
:1010700094100008140000206C040000380E0008D2
:10108000000000000100000010000000000000004F
:041090000024F40044
:04000005080000ED02
:00000001FF
