:020000040800F2
:100000007004002001010008870C00084F0C000854
:10001000850C00086D010008951000080000000024
:100020000000000000000000000000003F0D00087C
:100030006F01000800000000890C0008410D000855
:100040001B0100081B0100081B0100081B01000820
:100050001B0100081B0100081B0100081B01000810
:100060001B0100081B0100081B0100081B01000800
:100070001B0100081B0100081B0100081B010008F0
:100080001B0100081B0100081B0100081B010008E0
:100090001B0100081B0100081B0100081B010008D0
:1000A0001B0100081B0100081B0100081B010008C0
:1000B0001B0100081B0100081B0100081B010008B0
:1000C0001B0100081B0100081B0100081B010008A0
:1000D0001B0100081B0100081B0100081B01000890
:1000E0001B0100081B0100081B010008DFF80CD0F1
:1000F00000F02AF800480047D510000870040020DE
:100100000648804706480047FEE7FEE7FEE7FEE7B1
:10011000FEE7FEE7FEE7FEE7FEE7FEE78D0D0008DF
:10012000ED000008D2B201E000F8012B491EFBD21D
:1001300070470022F6E710B513460A4604461946F2
:10014000FFF7F0FF204610BD064C074D06E0E068C3
:1001500040F0010394E8070098471034AC42F6D30E
:10016000FFF7C8FF6411000884110008FEE770471C
:1001700070B5044600F004F90546601C02D004483E
:100180000078044400F0FCF8401BA042FAD370BD94
:10019000080000202DE9F84FDFF8B891002409F19C
:1001A000040A0AF1040B23460F270BF1040EC9E0E1
:1001B0000125A5402A40AA427DD1674ED1F804C04E
:1001C000ACEB0608B44532D014DCBCF1030F3AD0D6
:1001D00009DCBCF1000F2AD0BCF1010F1CD0BCF12E
:1001E000020F31D11DE0BCF1110F17D0BCF1120F7D
:1001F0002AD119E0B8F5881F19D006DCB8F5803F80
:1002000015D0B8F5801F1FD111E0B8F5001F0ED032
:10021000B8F5041F18D10AE0CB6815E0CB681B1DA8
:1002200012E0CB6808330FE0CB680C330CE08B682E
:100230002BB1012B4FF0080303D0456104E00423E8
:1002400002E0056100E00023FF2A01D8064601E034
:1002500000F104064FEA840501D9A5F12005D6F87E
:10026000008007FA05FC28EA0C0803FA05F548EABD
:100270000508C6F800804D68ED0062D5374DAE69BF
:1002800046F00106AE61AD6924F0030605F00105F4
:100290000095334D06EB050CDCF80850A607360F29
:1002A00007FA06F825EA0805DFF8B880404503D1CB
:1002B0004FF0000817E044E0DFF8AC80404502D181
:1002C0004FF001080FE0DFF8A480404502D14FF065
:1002D000020808E0DFF89880404502D14FF003089B
:1002E00001E04FF0040808FA06F848EA0508CCF8DF
:1002F00008804D68D9F80060ED034D4601D51643DE
:1003000000E096432E604D68DAF80060AD03554674
:1003100001D5164300E096432E604D68DBF800607F
:10032000ED025D4601D5164300E096432E604D6810
:10033000DEF80060AD02754601D5164300E0964335
:100340002E60641C0D682A46E5407FF431AFBDE89D
:10035000F88F00000004014000001110001002405E
:100360000000014000080140000C01400010014065
:10037000001401400AB1016170470904FBE7000065
:10038000014880687047000008000020024881682A
:10039000027811448160704708000020074810B5BA
:1003A000016841F010010160032000F067F80020AF
:1003B00000F006F800F024F8002010BD00200240F4
:1003C00070B50D4D04464FF47A712878B1FBF0F00A
:1003D0000A490968B1FBF0F000F025FC48B9102C7F
:1003E00007D200222146501E00F028F800206C6041
:1003F00070BD012070BD0000080000201400002026
:100400000C4808B5816941F001018161816901F001
:1004100001010091C16941F08051C161C06900F0E2
:10042000805000900448416821F0E06141F0007183
:10043000416008BD0010024000000140F0B40E4BC6
:100440001B680C46C3F30223C3F10705042D00D932
:100450000425191D072901D2002300E0DB1E012617
:1004600006FA05F1491E214099409E40761E16402D
:100470003143F0BC00F00FBE0CED00E0064900F087
:10048000070208684FF6FF03184040EA0220034ABB
:1004900010430860704700000CED00E00000FA0512
:1004A0002DE9F0470F46050061D0434E306800F05B
:1004B0000700B84209D2306820F0070038433060A6
:1004C000306800F00700B84251D128683B4C8107E2
:1004D00012D5400703D5606840F4E060606028787A
:1004E000000703D5606840F4605060606068A968E8
:1004F00020F0F000084360602878C00728D06868C2
:10050000012810D02168022810D0890700292EDA8E
:10051000616821F0030101436160FFF731FF80460C
:1005200041F288390DE021688903EFE78901EDE7A1
:10053000FFF726FFA0EB0801494502D90320BDE8DB
:10054000F0876068696800F00C00B0EB810FEFD1B4
:10055000306800F00700B8420BD9306820F007007F
:1005600038433060306800F00700B84201D0012005
:10057000E5E72878400705D56068E96820F4E06081
:10058000084360602878000706D56068296920F470
:10059000605040EAC100606000F018F86168084AE5
:1005A000C1F30311515CC840064908600648006861
:1005B000FFF706FF0020C2E70020024000100240C3
:1005C00054110008140000200C00002012A185B076
:1005D0000FC98DE80F0014A0144A006804905168F8
:1005E000134801F00C03042B10D0082B0ED1C1F3DB
:1005F0008343C9031DF803000AD5516804AAC1F357
:100600004041515C0A4A5043B0FBF1F005B07047DD
:1006100008494843FAE700000203040506070809F1
:100620000A0B0C0D0E0F101001020000001002400A
:1006300000127A0000093D002DE9F84F040070D047
:100640002078C04DC00749D06868C0F381000128F8
:1006500007D06868C0F38100022809D16868C00328
:1006600006D52868800339D560680028E7D035E0D2
:100670006068B0F5803F0BD010B1B0F5A02F11D05D
:10068000286820F480302860286820F4802002E068
:10069000286840F480302860606890B1FFF770FEF1
:1006A00006460AE0286840F480202860F0E700BF92
:1006B000FFF766FE801B642873D828688003F7D58F
:1006C0000CE0FFF75DFE064605E000BFFFF758FEB1
:1006D000801B6428F0D828688003F7D420789A4ECD
:1006E00080074FF001094FF0000839D5686810F015
:1006F0000C0F07D06868C0F38100022809D1686830
:10070000C00306D42868800714D52069012808D1C1
:1007100010E02069B0B1C6F80090FFF731FE07463F
:1007200005E00AE1FFF72CFEC01B0228C4D82868A8
:100730008007F7D52868616920F0F80040EAC10019
:1007400028600DE0C6F80080FFF71AFE074604E0B7
:10075000FFF716FEC01B022823D828688007F7D4AD
:10076000207800072CD57948A169D9B1C0F800904C
:10077000FFF706FE074604E0FFF702FEC01B022853
:100780000FD8686A8007F7D571484FF4FA510068AE
:10079000B0FBF1F0009000BF0098411E0091FAD22A
:1007A0000EE080E0C0F80080FFF7EAFD074604E0B5
:1007B000FFF7E6FDC01B022875D8686A8007F7D4EA
:1007C0002078400760D5E8690027C00008D4E869B0
:1007D00040F08050E861E869012700F08050009007
:1007E0005C480168C90513D40168834641F48071EF
:1007F0000160FFF7C5FD824606E000BFFFF7C0FDC0
:10080000A0EB0A0064284ED8DBF80000C005F5D53F
:10081000E06801280AD008B1052813D0286A20F022
:1008200001002862286A20F0040002E0286A40F0F3
:1008300001002862E06841F2883B98B1FFF7A0FD13
:1008400082460BE0286A40F004002862EEE700BF11
:10085000FFF796FDA0EB0A0159455AD8286A800790
:10086000F6D50CE0FFF78CFD824605E0FFF788FD2A
:10087000A0EB0A0159454CD8286A8007F6D41FB16D
:10088000E86920F08050E861E06988B36968C1F3E5
:100890008101022944D00228C6F8608004D0FFF705
:1008A0006FFD044638E034E0FFF76AFD074604E0D8
:1008B000FFF766FDC01B02282BD828688001F7D4FB
:1008C000206AB0F5803F05D16868A16820F4003047
:1008D00008436860D4E908010843696821F4741189
:1008E00008436860C6F86090FFF74AFD044606E0DA
:1008F00025E000BFFFF744FD001B022809D8286847
:100900008001F7D51BE000BFFFF73AFD001B02286E
:1009100002D90320BDE8F88F28688001F4D40EE0E6
:100920000128F7D06868226A00F48031914204D12E
:10093000616A00F47010884201D00120EAE70020CB
:10094000E8E70000001002400000424280044242FA
:10095000140000200070004070B5040005D0002590
:10096000A56294F8510010B106E0012070BD84F832
:100970005050204600F02EF8022084F851002068E4
:10098000016821F040010160D4E901010843D4E984
:1009900003121143084361690843218B01F400717C
:1009A0000843E1690843216A0843A16A08432168B2
:1009B0000860A069042101EA1040216848602068AD
:1009C000C16921F40061C1616565012084F85100AD
:1009D000002070BD30B585B00024009401940294CD
:1009E000039400681449884223D11448816941F472
:1009F00080518161816901F480510491816941F0E4
:100A00000401816180690E4D00F004000490A02073
:100A10000090022001900320039069462846FFF7CA
:100A2000B9FB4020CDE90004694628460294FFF74F
:100A3000B1FB05B030BD00000030014000100240A5
:100A4000000801402DE9F84F044690F850000027B7
:100A50000A9E1D4692468B464FF0010901280ED092
:100A6000012084F85000FFF78BFC804694F8510079
:100A7000616801280CD0B1F5827F07D102E0022025
:100A8000BDE8F88FA16809B9042801D00227C2E0A7
:100A9000BBF1000F27D0BAF1000F24D01DB394F89A
:100AA0005100042802D0052084F851000020606520
:100AB000C4F838A0E587A587C4F830B0E586A586D8
:100AC0002064606420680168490603D4016841F02D
:100AD00040010160E068B0F5006F606805D0E8B3E0
:100AE000012D46D07FE0012795E008B1012D39D1D5
:100AF000206B21680088C860206B801C2063E08E1A
:100B0000401EE0862EE02068816889070FD5E18EBF
:100B100069B1B9F1010F0AD1216B0988C160206B5D
:100B2000801C2063E08E401EE0864FF000092068A4
:100B30008168C9070CD0E18F51B1C068A16B0880F2
:100B4000A06B801CA063E08F401EE0874FF001097E
:100B5000FFF716FCA0EB0800B04200E009E001D36B
:100B6000701C50D1E08E0028CDD1E08F0028CAD172
:100B70003FE0206B216800780873206B401C2063E5
:100B8000E08E401EE0862EE02068816889070FD540
:100B9000E18E69B1B9F1010F0AD1216B09780173B6
:100BA000206B401C2063E08E401EE0864FF0000961
:100BB00020688168C9070CD0E18F51B1C068A16B72
:100BC0000870A06B401CA063E08F401EE0874FF0D0
:100BD0000109FFF7D5FBA0EB0800B04202D3701C5F
:100BE00001D010E07EB1E08E0028CDD1E08F00284A
:100BF000CAD142463146204600F047F828B10127C5
:100C00002020606507E0032705E0A06818B9206888
:100C1000C16880680090012084F85100002084F8A9
:100C2000500038462CE710B5401EB0F1807F01D34C
:100C3000012010BD4FF0E02460610F21601700F02B
:100C40002AFA0020A06107202061002010BDFEE7E5
:100C50000B480A494FF4007201604FF48271416001
:100C600000218160C1600161C0E90512C1610162BA
:100C7000416281620A21C162FFF76EBE003001400D
:100C800018000020FEE77047704738B50B46009209
:100C900004460022802100F008F8002804D0606D8E
:100CA00040F020006065032038BD2DE9F0411D466D
:100CB00017460E460446DDF8188008E0681C06D08A
:100CC000FFF75EFBA0EB0800A8420BD255B12068ED
:100CD000806836EA000030D00020B842EED1002013
:100CE000BDE8F0812068416821F0E0014160606862
:100CF000B0F5827F0BD1A068B0F5004F02D0B0F5FF
:100D0000806F04D12068016821F040010160A06A71
:100D1000B0F5005F09D12068016821F4005101603D
:100D20002068016841F400510160012084F85100FD
:100D3000002084F850000320D2E70120CDE770475F
:100D4000FFF724BB30B58FB028216846FFF7F1F9D3
:100D500014210AA8FFF7EDF901200225049000955F
:100D6000102005900024CDE9075468460994FFF748
:100D700063FC0F20CDE90A056802CDE90C40002193
:100D80000AA80E94FFF78CFB0FB030BD0D48016828
:100D900041F00101016041680B4A11404160016866
:100DA0000A4A11400160016821F480210160416814
:100DB00021F4FE0141604FF41F0181600449C0032A
:100DC00008607047001002400000FFF8FFFFF6FEC9
:100DD00008ED00E010B5142000F05AF8800705D1A6
:100DE0000321BDE81040142000F089B810BD7CB587
:100DF0000446002529460D2000F018F993202070A4
:100E00002020607001A823460090022219460C2081
:100E100000F081F8010009D1225C401C5540C0B2AD
:100E20000428F9D3205CA84200D0022108467CBDEA
:100E300070B50C46054600F02BF820EA0401284660
:100E4000BDE8704000F0F2B810B500F054F88D2104
:100E50002A2000F0EBF83E212B2000F0E7F81E21BD
:100E60002D2000F0E3F800212C2000F0DFF87021A5
:100E7000262000F0DBF84021152000F0D7F83D21B6
:100E8000112000F0D3F8BDE81040FFF7A3BF000029
:100E900070B50C4D0446002210212846FFF76AFA6F
:100EA0007E2000EA440040F0800000F0D9F80020E5
:100EB00000F0D6F80446012210212846FFF75AFA1E
:100EC000204670BD000801407CB50C460546072150
:100ED0000D2000F0ABF8257001A8234600900122F8
:100EE00019460C2000F017F818B9BDF804101029A5
:100EF00000D002207CBD0F21012000F097B870B512
:100F00000C460546FFF7C4FF40EA04012846BDE849
:100F1000704000F08BB82DE9FF5F00270226DDF856
:100F200038A015468B468146B8460C2805D0B9F145
:100F30000E0F05D11227102001E0772730208046C0
:100F400047F08001022000F071F880210420FFF7B3
:100F50006FFF80210A20FFF7D2FF0021012000F05F
:100F600065F8002406E01BF80410092000F05EF884
:100F7000641CA4B2AC42F6D34946012000F056F8F6
:100F8000B9F10C0F03D180210D20FFF7B8FF4FF40A
:100F9000FA650420FFF77CFF6D1E2D0404462D0C1E
:100FA00004D0E00702D114EA080FF2D080210D200E
:100FB000FFF73EFF35B10620FFF76AFF10F01B0F69
:100FC00004D0022604B03046BDE8F09F00263C4025
:100FD000E00700D00126B9F10C0FF3D10A20FFF78A
:100FE00057FF04460C20FFF753FF10F007004FEAAD
:100FF000C40104D008390844AAF8000001E0AAF8A6
:10100000001024B1102C04D91024002503E0012481
:10101000FBE7002506E00920FFF73AFF0399485552
:101020006D1CADB2A542F6D3CCE7000070B50B4DF8
:101030000E460446002210212846FFF79BF97E2029
:1010400000EA440000F00CF8304600F009F82846A9
:10105000BDE8704001221021FFF78CB90008014063
:101060003EB50B4C8DF80400206881688907FCD5DB
:101070000A200090012302AA01A90548FFF7E2FC1B
:10108000206881680906FCD49DF808003EBD000078
:1010900018000020FEE70907090E002804DB00F114
:1010A000E02080F80014704700F00F0000F1E0200D
:1010B00080F8141D704702E008C8121F08C1002AFA
:1010C000FAD170477047002001E001C1121F002AC9
:1010D000FBD1704786B0FFF761F9FFF733FE0024BC
:1010E00019480094019402940394816941F0040129
:1010F00081618069154D00F00400049022461021A2
:101100002846FFF737F9102000900120CDE90104AF
:101110000220039069462846FFF73CF8FFF798FD48
:10112000FFF792FE0A4C6420FFF722F8084952208C
:10113000491CFFF7C9FE20700028F4D10448401C68
:10114000FFF755FE2070EEE7001002400008014056
:101150000000002000000000000000000102030465
:10116000060708098411000800000020180000008C
:10117000B61000089C110008180000205804000058
:10118000C610000800000000000000000100000080
:0C11900010000000000000000024F4002B
:04000005080000ED02
:00000001FF
